{
  "contractName": "GeneSlimeMoldAlpha",
  "abi": [
    {
      "inputs": [],
      "stateMutability": "payable",
      "type": "constructor",
      "payable": true
    },
    {
      "inputs": [
        {
          "internalType": "uint256",
          "name": "",
          "type": "uint256"
        }
      ],
      "name": "gene_mining_data_list",
      "outputs": [
        {
          "internalType": "uint256",
          "name": "id",
          "type": "uint256"
        },
        {
          "internalType": "string",
          "name": "url",
          "type": "string"
        },
        {
          "internalType": "string",
          "name": "description",
          "type": "string"
        },
        {
          "internalType": "address",
          "name": "gene_holder_address",
          "type": "address"
        },
        {
          "internalType": "address",
          "name": "miner_address",
          "type": "address"
        },
        {
          "internalType": "bool",
          "name": "is_accepted_by_holder",
          "type": "bool"
        },
        {
          "internalType": "bool",
          "name": "is_blocked_by_holder",
          "type": "bool"
        }
      ],
      "stateMutability": "view",
      "type": "function",
      "constant": true
    },
    {
      "inputs": [],
      "name": "supervisor",
      "outputs": [
        {
          "internalType": "address",
          "name": "",
          "type": "address"
        }
      ],
      "stateMutability": "view",
      "type": "function",
      "constant": true
    },
    {
      "inputs": [
        {
          "internalType": "uint256",
          "name": "",
          "type": "uint256"
        }
      ],
      "name": "use_event_list",
      "outputs": [
        {
          "internalType": "uint256",
          "name": "id",
          "type": "uint256"
        },
        {
          "internalType": "address",
          "name": "event_owner_address",
          "type": "address"
        },
        {
          "internalType": "string",
          "name": "description",
          "type": "string"
        },
        {
          "internalType": "address payable",
          "name": "offer_to_address",
          "type": "address"
        },
        {
          "internalType": "uint256",
          "name": "pay_amount",
          "type": "uint256"
        },
        {
          "internalType": "bool",
          "name": "is_approved",
          "type": "bool"
        },
        {
          "internalType": "bool",
          "name": "is_blocked",
          "type": "bool"
        },
        {
          "internalType": "bool",
          "name": "is_executed",
          "type": "bool"
        }
      ],
      "stateMutability": "view",
      "type": "function",
      "constant": true
    },
    {
      "inputs": [
        {
          "internalType": "address",
          "name": "block_address",
          "type": "address"
        }
      ],
      "name": "add_block_list",
      "outputs": [],
      "stateMutability": "nonpayable",
      "type": "function"
    },
    {
      "inputs": [
        {
          "internalType": "address",
          "name": "block_address",
          "type": "address"
        }
      ],
      "name": "remove_block_list",
      "outputs": [],
      "stateMutability": "nonpayable",
      "type": "function"
    },
    {
      "inputs": [
        {
          "internalType": "address",
          "name": "miner_address",
          "type": "address"
        }
      ],
      "name": "generate_gene_miner",
      "outputs": [],
      "stateMutability": "nonpayable",
      "type": "function"
    },
    {
      "inputs": [
        {
          "internalType": "address",
          "name": "miner_address",
          "type": "address"
        }
      ],
      "name": "invalidate_gene_miner",
      "outputs": [],
      "stateMutability": "nonpayable",
      "type": "function"
    },
    {
      "inputs": [
        {
          "internalType": "address",
          "name": "use_event_maker_address",
          "type": "address"
        }
      ],
      "name": "generate_use_event_maker",
      "outputs": [],
      "stateMutability": "nonpayable",
      "type": "function"
    },
    {
      "inputs": [
        {
          "internalType": "address",
          "name": "use_event_maker_address",
          "type": "address"
        }
      ],
      "name": "invalidate_use_event_maker",
      "outputs": [],
      "stateMutability": "nonpayable",
      "type": "function"
    },
    {
      "inputs": [
        {
          "internalType": "string",
          "name": "description",
          "type": "string"
        },
        {
          "internalType": "address payable",
          "name": "offer_to_address",
          "type": "address"
        },
        {
          "internalType": "uint256",
          "name": "payment",
          "type": "uint256"
        }
      ],
      "name": "generate_use_event",
      "outputs": [],
      "stateMutability": "nonpayable",
      "type": "function"
    },
    {
      "inputs": [
        {
          "internalType": "uint256",
          "name": "use_event_id",
          "type": "uint256"
        }
      ],
      "name": "approve_use_event_offer",
      "outputs": [],
      "stateMutability": "nonpayable",
      "type": "function"
    },
    {
      "inputs": [
        {
          "internalType": "uint256",
          "name": "use_event_id",
          "type": "uint256"
        }
      ],
      "name": "block_use_event_offer",
      "outputs": [],
      "stateMutability": "nonpayable",
      "type": "function"
    },
    {
      "inputs": [
        {
          "internalType": "address payable",
          "name": "reciever_address",
          "type": "address"
        },
        {
          "internalType": "uint256",
          "name": "pay_amount",
          "type": "uint256"
        }
      ],
      "name": "balance_to",
      "outputs": [],
      "stateMutability": "payable",
      "type": "function",
      "payable": true
    },
    {
      "inputs": [
        {
          "internalType": "uint256",
          "name": "use_event_id",
          "type": "uint256"
        }
      ],
      "name": "execute_use_event",
      "outputs": [],
      "stateMutability": "nonpayable",
      "type": "function"
    },
    {
      "inputs": [
        {
          "internalType": "address",
          "name": "gene_holder_address",
          "type": "address"
        },
        {
          "internalType": "string",
          "name": "gene_url",
          "type": "string"
        },
        {
          "internalType": "string",
          "name": "description",
          "type": "string"
        }
      ],
      "name": "register_mining_gene",
      "outputs": [],
      "stateMutability": "nonpayable",
      "type": "function"
    },
    {
      "inputs": [
        {
          "internalType": "uint256",
          "name": "gene_mining_data_id",
          "type": "uint256"
        }
      ],
      "name": "accept_mining_gene",
      "outputs": [],
      "stateMutability": "nonpayable",
      "type": "function"
    },
    {
      "inputs": [
        {
          "internalType": "uint256",
          "name": "gene_mining_data_id",
          "type": "uint256"
        }
      ],
      "name": "blocked_mining_gene",
      "outputs": [],
      "stateMutability": "nonpayable",
      "type": "function"
    },
    {
      "inputs": [],
      "name": "request_my_account_address",
      "outputs": [
        {
          "internalType": "address",
          "name": "",
          "type": "address"
        }
      ],
      "stateMutability": "view",
      "type": "function",
      "constant": true
    },
    {
      "inputs": [],
      "name": "request_own_gene_mining_data_list",
      "outputs": [
        {
          "components": [
            {
              "internalType": "uint256",
              "name": "id",
              "type": "uint256"
            },
            {
              "internalType": "string",
              "name": "url",
              "type": "string"
            },
            {
              "internalType": "string",
              "name": "description",
              "type": "string"
            },
            {
              "internalType": "address",
              "name": "gene_holder_address",
              "type": "address"
            },
            {
              "internalType": "address",
              "name": "miner_address",
              "type": "address"
            },
            {
              "internalType": "bool",
              "name": "is_accepted_by_holder",
              "type": "bool"
            },
            {
              "internalType": "bool",
              "name": "is_blocked_by_holder",
              "type": "bool"
            }
          ],
          "internalType": "struct GeneSlimeMoldAlpha.GeneMiningData[]",
          "name": "",
          "type": "tuple[]"
        }
      ],
      "stateMutability": "view",
      "type": "function",
      "constant": true
    },
    {
      "inputs": [],
      "name": "request_own_use_event_list",
      "outputs": [
        {
          "components": [
            {
              "internalType": "uint256",
              "name": "id",
              "type": "uint256"
            },
            {
              "internalType": "address",
              "name": "event_owner_address",
              "type": "address"
            },
            {
              "internalType": "string",
              "name": "description",
              "type": "string"
            },
            {
              "internalType": "address payable",
              "name": "offer_to_address",
              "type": "address"
            },
            {
              "internalType": "uint256",
              "name": "pay_amount",
              "type": "uint256"
            },
            {
              "internalType": "bool",
              "name": "is_approved",
              "type": "bool"
            },
            {
              "internalType": "bool",
              "name": "is_blocked",
              "type": "bool"
            },
            {
              "internalType": "bool",
              "name": "is_executed",
              "type": "bool"
            }
          ],
          "internalType": "struct GeneSlimeMoldAlpha.UseEvent[]",
          "name": "",
          "type": "tuple[]"
        }
      ],
      "stateMutability": "view",
      "type": "function",
      "constant": true
    },
    {
      "inputs": [],
      "name": "request_own_mined_gene_mining_data_list",
      "outputs": [
        {
          "components": [
            {
              "internalType": "uint256",
              "name": "id",
              "type": "uint256"
            },
            {
              "internalType": "string",
              "name": "url",
              "type": "string"
            },
            {
              "internalType": "string",
              "name": "description",
              "type": "string"
            },
            {
              "internalType": "address",
              "name": "gene_holder_address",
              "type": "address"
            },
            {
              "internalType": "address",
              "name": "miner_address",
              "type": "address"
            },
            {
              "internalType": "bool",
              "name": "is_accepted_by_holder",
              "type": "bool"
            },
            {
              "internalType": "bool",
              "name": "is_blocked_by_holder",
              "type": "bool"
            }
          ],
          "internalType": "struct GeneSlimeMoldAlpha.GeneMiningData[]",
          "name": "",
          "type": "tuple[]"
        }
      ],
      "stateMutability": "view",
      "type": "function",
      "constant": true
    },
    {
      "inputs": [],
      "name": "request_own_made_use_event_list",
      "outputs": [
        {
          "components": [
            {
              "internalType": "uint256",
              "name": "id",
              "type": "uint256"
            },
            {
              "internalType": "address",
              "name": "event_owner_address",
              "type": "address"
            },
            {
              "internalType": "string",
              "name": "description",
              "type": "string"
            },
            {
              "internalType": "address payable",
              "name": "offer_to_address",
              "type": "address"
            },
            {
              "internalType": "uint256",
              "name": "pay_amount",
              "type": "uint256"
            },
            {
              "internalType": "bool",
              "name": "is_approved",
              "type": "bool"
            },
            {
              "internalType": "bool",
              "name": "is_blocked",
              "type": "bool"
            },
            {
              "internalType": "bool",
              "name": "is_executed",
              "type": "bool"
            }
          ],
          "internalType": "struct GeneSlimeMoldAlpha.UseEvent[]",
          "name": "",
          "type": "tuple[]"
        }
      ],
      "stateMutability": "view",
      "type": "function",
      "constant": true
    }
  ],
  "bytecode": "0x608060405233600560006101000a81548173ffffffffffffffffffffffffffffffffffffffff021916908373ffffffffffffffffffffffffffffffffffffffff160217905550613150806100546000396000f3fe6080604052600436106101355760003560e01c806388df39fb116100ab578063bbb0d9261161006f578063bbb0d926146103fa578063c3cb096514610423578063d417bd571461044c578063dad7aa5f14610477578063f38a36a4146104a0578063f4092aec146104cb57610135565b806388df39fb1461033a5780638cf005e714610363578063a1ea13041461038c578063b06355c5146103a8578063b7082e04146103d157610135565b806356e4b68b116100fd57806356e4b68b146102235780635a8515ea1461024e5780635ca9afb61461027957806374632b86146102a457806379fed660146102cd578063821dc23f146102f657610135565b80630b6d7b0e1461013a57806314a8ba97146101635780631af12f96146101a65780633fbeb5da146101cf57806348d3d7a0146101f8575b600080fd5b34801561014657600080fd5b50610161600480360381019061015c9190612736565b6104f4565b005b34801561016f57600080fd5b5061018a60048036038101906101859190612799565b61058e565b60405161019d9796959493929190612898565b60405180910390f35b3480156101b257600080fd5b506101cd60048036038101906101c89190612a88565b61074a565b005b3480156101db57600080fd5b506101f660048036038101906101f19190612736565b610a82565b005b34801561020457600080fd5b5061020d610b3a565b60405161021a9190612cef565b60405180910390f35b34801561022f57600080fd5b50610238610e52565b6040516102459190612d11565b60405180910390f35b34801561025a57600080fd5b50610263610e78565b6040516102709190612cef565b60405180910390f35b34801561028557600080fd5b5061028e61118e565b60405161029b9190612d11565b60405180910390f35b3480156102b057600080fd5b506102cb60048036038101906102c69190612736565b611196565b005b3480156102d957600080fd5b506102f460048036038101906102ef9190612799565b61124d565b005b34801561030257600080fd5b5061031d60048036038101906103189190612799565b611349565b604051610331989796959493929190612d3b565b60405180910390f35b34801561034657600080fd5b50610361600480360381019061035c9190612736565b611490565b005b34801561036f57600080fd5b5061038a60048036038101906103859190612736565b61152a565b005b6103a660048036038101906103a19190612dc0565b6115e2565b005b3480156103b457600080fd5b506103cf60048036038101906103ca9190612799565b61162d565b005b3480156103dd57600080fd5b506103f860048036038101906103f39190612799565b611729565b005b34801561040657600080fd5b50610421600480360381019061041c9190612799565b611866565b005b34801561042f57600080fd5b5061044a60048036038101906104459190612e00565b611962565b005b34801561045857600080fd5b50610461611c83565b60405161046e9190612ff0565b60405180910390f35b34801561048357600080fd5b5061049e60048036038101906104999190612736565b612005565b005b3480156104ac57600080fd5b506104b56120bd565b6040516104c29190612ff0565b60405180910390f35b3480156104d757600080fd5b506104f260048036038101906104ed9190612799565b612441565b005b60008060003373ffffffffffffffffffffffffffffffffffffffff1673ffffffffffffffffffffffffffffffffffffffff16815260200190815260200160002060020160008373ffffffffffffffffffffffffffffffffffffffff1673ffffffffffffffffffffffffffffffffffffffff16815260200190815260200160002060006101000a81548160ff02191690831515021790555050565b6003818154811061059e57600080fd5b90600052602060002090600502016000915090508060000154908060010180546105c790613041565b80601f01602080910402602001604051908101604052809291908181526020018280546105f390613041565b80156106405780601f1061061557610100808354040283529160200191610640565b820191906000526020600020905b81548152906001019060200180831161062357829003601f168201915b50505050509080600201805461065590613041565b80601f016020809104026020016040519081016040528092919081815260200182805461068190613041565b80156106ce5780601f106106a3576101008083540402835291602001916106ce565b820191906000526020600020905b8154815290600101906020018083116106b157829003601f168201915b5050505050908060030160009054906101000a900473ffffffffffffffffffffffffffffffffffffffff16908060040160009054906101000a900473ffffffffffffffffffffffffffffffffffffffff16908060040160149054906101000a900460ff16908060040160159054906101000a900460ff16905087565b600015156000808473ffffffffffffffffffffffffffffffffffffffff1673ffffffffffffffffffffffffffffffffffffffff16815260200190815260200160002060020160003373ffffffffffffffffffffffffffffffffffffffff1673ffffffffffffffffffffffffffffffffffffffff16815260200190815260200160002060009054906101000a900460ff161515146107e657600080fd5b6000600480549050905060046040518061010001604052808381526020013373ffffffffffffffffffffffffffffffffffffffff1681526020018681526020018573ffffffffffffffffffffffffffffffffffffffff1681526020018481526020016000151581526020016000151581526020016000151581525090806001815401808255809150506001900390600052602060002090600602016000909190919091506000820151816000015560208201518160010160006101000a81548173ffffffffffffffffffffffffffffffffffffffff021916908373ffffffffffffffffffffffffffffffffffffffff16021790555060408201518160020190805190602001906108f792919061253d565b5060608201518160030160006101000a81548173ffffffffffffffffffffffffffffffffffffffff021916908373ffffffffffffffffffffffffffffffffffffffff1602179055506080820151816004015560a08201518160050160006101000a81548160ff02191690831515021790555060c08201518160050160016101000a81548160ff02191690831515021790555060e08201518160050160026101000a81548160ff0219169083151502179055505050600260003373ffffffffffffffffffffffffffffffffffffffff1673ffffffffffffffffffffffffffffffffffffffff1681526020019081526020016000206000018190806001815401808255809150506001900390600052602060002001600090919091909150556000808473ffffffffffffffffffffffffffffffffffffffff1673ffffffffffffffffffffffffffffffffffffffff16815260200190815260200160002060010181908060018154018082558091505060019003906000526020600020016000909190919091505550505050565b3373ffffffffffffffffffffffffffffffffffffffff16600560009054906101000a900473ffffffffffffffffffffffffffffffffffffffff1673ffffffffffffffffffffffffffffffffffffffff1614610adc57600080fd5b6000600160008373ffffffffffffffffffffffffffffffffffffffff1673ffffffffffffffffffffffffffffffffffffffff16815260200190815260200160002060010160006101000a81548160ff02191690831515021790555050565b60606000600260003373ffffffffffffffffffffffffffffffffffffffff1673ffffffffffffffffffffffffffffffffffffffff16815260200190815260200160002060000180549050905060008167ffffffffffffffff811115610ba257610ba161291f565b5b604051908082528060200260200182016040528015610bdb57816020015b610bc86125c3565b815260200190600190039081610bc05790505b50905060005b82811015610e49576004600260003373ffffffffffffffffffffffffffffffffffffffff1673ffffffffffffffffffffffffffffffffffffffff1681526020019081526020016000206000018281548110610c3f57610c3e613073565b5b906000526020600020015481548110610c5b57610c5a613073565b5b906000526020600020906006020160405180610100016040529081600082015481526020016001820160009054906101000a900473ffffffffffffffffffffffffffffffffffffffff1673ffffffffffffffffffffffffffffffffffffffff1673ffffffffffffffffffffffffffffffffffffffff168152602001600282018054610ce590613041565b80601f0160208091040260200160405190810160405280929190818152602001828054610d1190613041565b8015610d5e5780601f10610d3357610100808354040283529160200191610d5e565b820191906000526020600020905b815481529060010190602001808311610d4157829003601f168201915b505050505081526020016003820160009054906101000a900473ffffffffffffffffffffffffffffffffffffffff1673ffffffffffffffffffffffffffffffffffffffff1673ffffffffffffffffffffffffffffffffffffffff168152602001600482015481526020016005820160009054906101000a900460ff161515151581526020016005820160019054906101000a900460ff161515151581526020016005820160029054906101000a900460ff161515151581525050828281518110610e2b57610e2a613073565b5b60200260200101819052508080610e41906130d1565b915050610be1565b50809250505090565b600560009054906101000a900473ffffffffffffffffffffffffffffffffffffffff1681565b606060008060003373ffffffffffffffffffffffffffffffffffffffff1673ffffffffffffffffffffffffffffffffffffffff16815260200190815260200160002060010180549050905060008167ffffffffffffffff811115610edf57610ede61291f565b5b604051908082528060200260200182016040528015610f1857816020015b610f056125c3565b815260200190600190039081610efd5790505b50905060005b828110156111855760046000803373ffffffffffffffffffffffffffffffffffffffff1673ffffffffffffffffffffffffffffffffffffffff1681526020019081526020016000206001018281548110610f7b57610f7a613073565b5b906000526020600020015481548110610f9757610f96613073565b5b906000526020600020906006020160405180610100016040529081600082015481526020016001820160009054906101000a900473ffffffffffffffffffffffffffffffffffffffff1673ffffffffffffffffffffffffffffffffffffffff1673ffffffffffffffffffffffffffffffffffffffff16815260200160028201805461102190613041565b80601f016020809104026020016040519081016040528092919081815260200182805461104d90613041565b801561109a5780601f1061106f5761010080835404028352916020019161109a565b820191906000526020600020905b81548152906001019060200180831161107d57829003601f168201915b505050505081526020016003820160009054906101000a900473ffffffffffffffffffffffffffffffffffffffff1673ffffffffffffffffffffffffffffffffffffffff1673ffffffffffffffffffffffffffffffffffffffff168152602001600482015481526020016005820160009054906101000a900460ff161515151581526020016005820160019054906101000a900460ff161515151581526020016005820160029054906101000a900460ff16151515158152505082828151811061116757611166613073565b5b6020026020010181905250808061117d906130d1565b915050610f1e565b50809250505090565b600033905090565b3373ffffffffffffffffffffffffffffffffffffffff16600560009054906101000a900473ffffffffffffffffffffffffffffffffffffffff1673ffffffffffffffffffffffffffffffffffffffff16146111f057600080fd5b60018060008373ffffffffffffffffffffffffffffffffffffffff1673ffffffffffffffffffffffffffffffffffffffff16815260200190815260200160002060010160006101000a81548160ff02191690831515021790555050565b3373ffffffffffffffffffffffffffffffffffffffff166003828154811061127857611277613073565b5b906000526020600020906005020160030160009054906101000a900473ffffffffffffffffffffffffffffffffffffffff1673ffffffffffffffffffffffffffffffffffffffff16146112ca57600080fd5b6000600382815481106112e0576112df613073565b5b906000526020600020906005020160040160146101000a81548160ff02191690831515021790555060016003828154811061131e5761131d613073565b5b906000526020600020906005020160040160156101000a81548160ff02191690831515021790555050565b6004818154811061135957600080fd5b90600052602060002090600602016000915090508060000154908060010160009054906101000a900473ffffffffffffffffffffffffffffffffffffffff16908060020180546113a890613041565b80601f01602080910402602001604051908101604052809291908181526020018280546113d490613041565b80156114215780601f106113f657610100808354040283529160200191611421565b820191906000526020600020905b81548152906001019060200180831161140457829003601f168201915b5050505050908060030160009054906101000a900473ffffffffffffffffffffffffffffffffffffffff16908060040154908060050160009054906101000a900460ff16908060050160019054906101000a900460ff16908060050160029054906101000a900460ff16905088565b60016000803373ffffffffffffffffffffffffffffffffffffffff1673ffffffffffffffffffffffffffffffffffffffff16815260200190815260200160002060020160008373ffffffffffffffffffffffffffffffffffffffff1673ffffffffffffffffffffffffffffffffffffffff16815260200190815260200160002060006101000a81548160ff02191690831515021790555050565b3373ffffffffffffffffffffffffffffffffffffffff16600560009054906101000a900473ffffffffffffffffffffffffffffffffffffffff1673ffffffffffffffffffffffffffffffffffffffff161461158457600080fd5b6001600260008373ffffffffffffffffffffffffffffffffffffffff1673ffffffffffffffffffffffffffffffffffffffff16815260200190815260200160002060010160006101000a81548160ff02191690831515021790555050565b8173ffffffffffffffffffffffffffffffffffffffff166108fc829081150290604051600060405180830381858888f19350505050158015611628573d6000803e3d6000fd5b505050565b3373ffffffffffffffffffffffffffffffffffffffff166003828154811061165857611657613073565b5b906000526020600020906005020160030160009054906101000a900473ffffffffffffffffffffffffffffffffffffffff1673ffffffffffffffffffffffffffffffffffffffff16146116aa57600080fd5b6000600382815481106116c0576116bf613073565b5b906000526020600020906005020160040160156101000a81548160ff0219169083151502179055506001600382815481106116fe576116fd613073565b5b906000526020600020906005020160040160146101000a81548160ff02191690831515021790555050565b3373ffffffffffffffffffffffffffffffffffffffff166004828154811061175457611753613073565b5b906000526020600020906006020160010160009054906101000a900473ffffffffffffffffffffffffffffffffffffffff1673ffffffffffffffffffffffffffffffffffffffff16146117a657600080fd5b60001515600482815481106117be576117bd613073565b5b906000526020600020906006020160050160029054906101000a900460ff161515146117e957600080fd5b600481815481106117fd576117fc613073565b5b906000526020600020906006020160050160009054906101000a900460ff1661182557600080fd5b60016004828154811061183b5761183a613073565b5b906000526020600020906006020160050160026101000a81548160ff02191690831515021790555050565b3373ffffffffffffffffffffffffffffffffffffffff166004828154811061189157611890613073565b5b906000526020600020906006020160030160009054906101000a900473ffffffffffffffffffffffffffffffffffffffff1673ffffffffffffffffffffffffffffffffffffffff16146118e357600080fd5b6001600482815481106118f9576118f8613073565b5b906000526020600020906006020160050160016101000a81548160ff02191690831515021790555060006004828154811061193757611936613073565b5b906000526020600020906006020160050160006101000a81548160ff02191690831515021790555050565b600015156000808573ffffffffffffffffffffffffffffffffffffffff1673ffffffffffffffffffffffffffffffffffffffff16815260200190815260200160002060020160003373ffffffffffffffffffffffffffffffffffffffff1673ffffffffffffffffffffffffffffffffffffffff16815260200190815260200160002060009054906101000a900460ff161515146119fe57600080fd5b6000600380549050905060036040518060e001604052808381526020018581526020018481526020018673ffffffffffffffffffffffffffffffffffffffff1681526020013373ffffffffffffffffffffffffffffffffffffffff168152602001600015158152602001600015158152509080600181540180825580915050600190039060005260206000209060050201600090919091909150600082015181600001556020820151816001019080519060200190611abe92919061253d565b506040820151816002019080519060200190611adb92919061253d565b5060608201518160030160006101000a81548173ffffffffffffffffffffffffffffffffffffffff021916908373ffffffffffffffffffffffffffffffffffffffff16021790555060808201518160040160006101000a81548173ffffffffffffffffffffffffffffffffffffffff021916908373ffffffffffffffffffffffffffffffffffffffff16021790555060a08201518160040160146101000a81548160ff02191690831515021790555060c08201518160040160156101000a81548160ff02191690831515021790555050506000808573ffffffffffffffffffffffffffffffffffffffff1673ffffffffffffffffffffffffffffffffffffffff168152602001908152602001600020600001819080600181540180825580915050600190039060005260206000200160009091909190915055600160003373ffffffffffffffffffffffffffffffffffffffff1673ffffffffffffffffffffffffffffffffffffffff16815260200190815260200160002060000181908060018154018082558091505060019003906000526020600020016000909190919091505550505050565b606060008060003373ffffffffffffffffffffffffffffffffffffffff1673ffffffffffffffffffffffffffffffffffffffff16815260200190815260200160002060000180549050905060008167ffffffffffffffff811115611cea57611ce961291f565b5b604051908082528060200260200182016040528015611d2357816020015b611d1061263a565b815260200190600190039081611d085790505b50905060005b82811015611ffc5760036000803373ffffffffffffffffffffffffffffffffffffffff1673ffffffffffffffffffffffffffffffffffffffff1681526020019081526020016000206000018281548110611d8657611d85613073565b5b906000526020600020015481548110611da257611da1613073565b5b90600052602060002090600502016040518060e001604052908160008201548152602001600182018054611dd590613041565b80601f0160208091040260200160405190810160405280929190818152602001828054611e0190613041565b8015611e4e5780601f10611e2357610100808354040283529160200191611e4e565b820191906000526020600020905b815481529060010190602001808311611e3157829003601f168201915b50505050508152602001600282018054611e6790613041565b80601f0160208091040260200160405190810160405280929190818152602001828054611e9390613041565b8015611ee05780601f10611eb557610100808354040283529160200191611ee0565b820191906000526020600020905b815481529060010190602001808311611ec357829003601f168201915b505050505081526020016003820160009054906101000a900473ffffffffffffffffffffffffffffffffffffffff1673ffffffffffffffffffffffffffffffffffffffff1673ffffffffffffffffffffffffffffffffffffffff1681526020016004820160009054906101000a900473ffffffffffffffffffffffffffffffffffffffff1673ffffffffffffffffffffffffffffffffffffffff1673ffffffffffffffffffffffffffffffffffffffff1681526020016004820160149054906101000a900460ff161515151581526020016004820160159054906101000a900460ff161515151581525050828281518110611fde57611fdd613073565b5b60200260200101819052508080611ff4906130d1565b915050611d29565b50809250505090565b3373ffffffffffffffffffffffffffffffffffffffff16600560009054906101000a900473ffffffffffffffffffffffffffffffffffffffff1673ffffffffffffffffffffffffffffffffffffffff161461205f57600080fd5b6000600260008373ffffffffffffffffffffffffffffffffffffffff1673ffffffffffffffffffffffffffffffffffffffff16815260200190815260200160002060010160006101000a81548160ff02191690831515021790555050565b60606000600160003373ffffffffffffffffffffffffffffffffffffffff1673ffffffffffffffffffffffffffffffffffffffff16815260200190815260200160002060000180549050905060008167ffffffffffffffff8111156121255761212461291f565b5b60405190808252806020026020018201604052801561215e57816020015b61214b61263a565b8152602001906001900390816121435790505b50905060005b82811015612438576003600160003373ffffffffffffffffffffffffffffffffffffffff1673ffffffffffffffffffffffffffffffffffffffff16815260200190815260200160002060000182815481106121c2576121c1613073565b5b9060005260206000200154815481106121de576121dd613073565b5b90600052602060002090600502016040518060e00160405290816000820154815260200160018201805461221190613041565b80601f016020809104026020016040519081016040528092919081815260200182805461223d90613041565b801561228a5780601f1061225f5761010080835404028352916020019161228a565b820191906000526020600020905b81548152906001019060200180831161226d57829003601f168201915b505050505081526020016002820180546122a390613041565b80601f01602080910402602001604051908101604052809291908181526020018280546122cf90613041565b801561231c5780601f106122f15761010080835404028352916020019161231c565b820191906000526020600020905b8154815290600101906020018083116122ff57829003601f168201915b505050505081526020016003820160009054906101000a900473ffffffffffffffffffffffffffffffffffffffff1673ffffffffffffffffffffffffffffffffffffffff1673ffffffffffffffffffffffffffffffffffffffff1681526020016004820160009054906101000a900473ffffffffffffffffffffffffffffffffffffffff1673ffffffffffffffffffffffffffffffffffffffff1673ffffffffffffffffffffffffffffffffffffffff1681526020016004820160149054906101000a900460ff161515151581526020016004820160159054906101000a900460ff16151515158152505082828151811061241a57612419613073565b5b60200260200101819052508080612430906130d1565b915050612164565b50809250505090565b3373ffffffffffffffffffffffffffffffffffffffff166004828154811061246c5761246b613073565b5b906000526020600020906006020160030160009054906101000a900473ffffffffffffffffffffffffffffffffffffffff1673ffffffffffffffffffffffffffffffffffffffff16146124be57600080fd5b6001600482815481106124d4576124d3613073565b5b906000526020600020906006020160050160006101000a81548160ff02191690831515021790555060006004828154811061251257612511613073565b5b906000526020600020906006020160050160016101000a81548160ff02191690831515021790555050565b82805461254990613041565b90600052602060002090601f01602090048101928261256b57600085556125b2565b82601f1061258457805160ff19168380011785556125b2565b828001600101855582156125b2579182015b828111156125b1578251825591602001919060010190612596565b5b5090506125bf91906126a7565b5090565b60405180610100016040528060008152602001600073ffffffffffffffffffffffffffffffffffffffff16815260200160608152602001600073ffffffffffffffffffffffffffffffffffffffff168152602001600081526020016000151581526020016000151581526020016000151581525090565b6040518060e00160405280600081526020016060815260200160608152602001600073ffffffffffffffffffffffffffffffffffffffff168152602001600073ffffffffffffffffffffffffffffffffffffffff1681526020016000151581526020016000151581525090565b5b808211156126c05760008160009055506001016126a8565b5090565b6000604051905090565b600080fd5b600080fd5b600073ffffffffffffffffffffffffffffffffffffffff82169050919050565b6000612703826126d8565b9050919050565b612713816126f8565b811461271e57600080fd5b50565b6000813590506127308161270a565b92915050565b60006020828403121561274c5761274b6126ce565b5b600061275a84828501612721565b91505092915050565b6000819050919050565b61277681612763565b811461278157600080fd5b50565b6000813590506127938161276d565b92915050565b6000602082840312156127af576127ae6126ce565b5b60006127bd84828501612784565b91505092915050565b6127cf81612763565b82525050565b600081519050919050565b600082825260208201905092915050565b60005b8381101561280f5780820151818401526020810190506127f4565b8381111561281e576000848401525b50505050565b6000601f19601f8301169050919050565b6000612840826127d5565b61284a81856127e0565b935061285a8185602086016127f1565b61286381612824565b840191505092915050565b612877816126f8565b82525050565b60008115159050919050565b6128928161287d565b82525050565b600060e0820190506128ad600083018a6127c6565b81810360208301526128bf8189612835565b905081810360408301526128d38188612835565b90506128e2606083018761286e565b6128ef608083018661286e565b6128fc60a0830185612889565b61290960c0830184612889565b98975050505050505050565b600080fd5b600080fd5b7f4e487b7100000000000000000000000000000000000000000000000000000000600052604160045260246000fd5b61295782612824565b810181811067ffffffffffffffff821117156129765761297561291f565b5b80604052505050565b60006129896126c4565b9050612995828261294e565b919050565b600067ffffffffffffffff8211156129b5576129b461291f565b5b6129be82612824565b9050602081019050919050565b82818337600083830152505050565b60006129ed6129e88461299a565b61297f565b905082815260208101848484011115612a0957612a0861291a565b5b612a148482856129cb565b509392505050565b600082601f830112612a3157612a30612915565b5b8135612a418482602086016129da565b91505092915050565b6000612a55826126d8565b9050919050565b612a6581612a4a565b8114612a7057600080fd5b50565b600081359050612a8281612a5c565b92915050565b600080600060608486031215612aa157612aa06126ce565b5b600084013567ffffffffffffffff811115612abf57612abe6126d3565b5b612acb86828701612a1c565b9350506020612adc86828701612a73565b9250506040612aed86828701612784565b9150509250925092565b600081519050919050565b600082825260208201905092915050565b6000819050602082019050919050565b612b2c81612763565b82525050565b612b3b816126f8565b82525050565b600082825260208201905092915050565b6000612b5d826127d5565b612b678185612b41565b9350612b778185602086016127f1565b612b8081612824565b840191505092915050565b612b9481612a4a565b82525050565b612ba38161287d565b82525050565b600061010083016000830151612bc26000860182612b23565b506020830151612bd56020860182612b32565b5060408301518482036040860152612bed8282612b52565b9150506060830151612c026060860182612b8b565b506080830151612c156080860182612b23565b5060a0830151612c2860a0860182612b9a565b5060c0830151612c3b60c0860182612b9a565b5060e0830151612c4e60e0860182612b9a565b508091505092915050565b6000612c658383612ba9565b905092915050565b6000602082019050919050565b6000612c8582612af7565b612c8f8185612b02565b935083602082028501612ca185612b13565b8060005b85811015612cdd5784840389528151612cbe8582612c59565b9450612cc983612c6d565b925060208a01995050600181019050612ca5565b50829750879550505050505092915050565b60006020820190508181036000830152612d098184612c7a565b905092915050565b6000602082019050612d26600083018461286e565b92915050565b612d3581612a4a565b82525050565b600061010082019050612d51600083018b6127c6565b612d5e602083018a61286e565b8181036040830152612d708189612835565b9050612d7f6060830188612d2c565b612d8c60808301876127c6565b612d9960a0830186612889565b612da660c0830185612889565b612db360e0830184612889565b9998505050505050505050565b60008060408385031215612dd757612dd66126ce565b5b6000612de585828601612a73565b9250506020612df685828601612784565b9150509250929050565b600080600060608486031215612e1957612e186126ce565b5b6000612e2786828701612721565b935050602084013567ffffffffffffffff811115612e4857612e476126d3565b5b612e5486828701612a1c565b925050604084013567ffffffffffffffff811115612e7557612e746126d3565b5b612e8186828701612a1c565b9150509250925092565b600081519050919050565b600082825260208201905092915050565b6000819050602082019050919050565b600060e083016000830151612ecf6000860182612b23565b5060208301518482036020860152612ee78282612b52565b91505060408301518482036040860152612f018282612b52565b9150506060830151612f166060860182612b32565b506080830151612f296080860182612b32565b5060a0830151612f3c60a0860182612b9a565b5060c0830151612f4f60c0860182612b9a565b508091505092915050565b6000612f668383612eb7565b905092915050565b6000602082019050919050565b6000612f8682612e8b565b612f908185612e96565b935083602082028501612fa285612ea7565b8060005b85811015612fde5784840389528151612fbf8582612f5a565b9450612fca83612f6e565b925060208a01995050600181019050612fa6565b50829750879550505050505092915050565b6000602082019050818103600083015261300a8184612f7b565b905092915050565b7f4e487b7100000000000000000000000000000000000000000000000000000000600052602260045260246000fd5b6000600282049050600182168061305957607f821691505b6020821081141561306d5761306c613012565b5b50919050565b7f4e487b7100000000000000000000000000000000000000000000000000000000600052603260045260246000fd5b7f4e487b7100000000000000000000000000000000000000000000000000000000600052601160045260246000fd5b60006130dc82612763565b91507fffffffffffffffffffffffffffffffffffffffffffffffffffffffffffffffff82141561310f5761310e6130a2565b5b60018201905091905056fea264697066735822122017371eacc1dcce2838e1658a505344793d7ffe8f3653f7473e05cbd24e219adf64736f6c634300080b0033",
  "immutableReferences": {},
  "source": "pragma solidity ^0.8.4;\n\ncontract GeneSlimeMoldAlpha{\n    //\n    struct GeneHolder{\n        uint[] gene_mining_data_id_list;\n        uint[] use_event_id_list;\n        mapping(address => bool)block_address_list;\n    }\n\n    //\n    struct GeneMiner{\n        uint[] mined_gene_mining_data_id_list;\n        bool is_available;\n    }\n\n    //\n    struct UseEventMaker{\n        uint[] use_event_id_list;\n        bool is_available;\n    }\n\n    //\n    struct UseEvent{\n        uint id;\n        address event_owner_address;\n        string description;\n        address payable offer_to_address;\n        uint pay_amount;\n        bool is_approved;\n        bool is_blocked;\n        bool is_executed;\n    }\n    \n    //\n    struct GeneMiningData{\n        uint id;\n        string url;\n        string description;\n        address gene_holder_address;\n        address miner_address;\n        bool is_accepted_by_holder;\n        bool is_blocked_by_holder;\n    }\n\n    mapping(address => GeneHolder) private gene_holder_list; //\n    mapping(address => GeneMiner) private gene_miner_list; //\n    mapping(address => UseEventMaker) private use_event_maker_list; //\n\n    GeneMiningData[] public gene_mining_data_list; //\n    UseEvent[] public use_event_list; //use event\n\n    address public supervisor; //\n\n    constructor() public payable {\n        supervisor = msg.sender; //\n    }\n\n/*gene holder*/\n    //\n    function add_block_list(address block_address) public{\n        gene_holder_list[msg.sender].block_address_list[block_address] = true;\n    }\n\n    function remove_block_list(address block_address) public{\n        gene_holder_list[msg.sender].block_address_list[block_address] = false;\n    }\n\n/*gene miner*/\n    function generate_gene_miner(address miner_address) public {\n        require(supervisor == msg.sender);//\n        gene_miner_list[miner_address].is_available = true;\n    }\n\n    function invalidate_gene_miner(address miner_address) public {\n        require(supervisor == msg.sender);//\n        gene_miner_list[miner_address].is_available = false; \n    }\n\n/* use event maker */\n    function generate_use_event_maker(address use_event_maker_address) public {\n        require(supervisor == msg.sender);//\n        use_event_maker_list[use_event_maker_address].is_available = true;\n    }\n\n    function invalidate_use_event_maker(address use_event_maker_address) public {\n        require(supervisor == msg.sender);//\n        use_event_maker_list[use_event_maker_address].is_available = false; \n    }\n\n/* */\n    //use event maker use event \n    function generate_use_event(string memory description, address payable offer_to_address, uint payment) public {\n        //require(use_event_maker_list[msg.sender].is_available);//event maker\n        require(gene_holder_list[offer_to_address].block_address_list[msg.sender] == false);//\n        uint id = use_event_list.length;\n        \n        use_event_list.push(UseEvent(id, msg.sender, description, offer_to_address, payment, false, false, false)); // use_event_listuse eventid\n        use_event_maker_list[msg.sender].use_event_id_list.push(id); //use_event_listid\n\n        gene_holder_list[offer_to_address].use_event_id_list.push(id);//gene holderid\n    }\n    \n    //use event\n    function approve_use_event_offer(uint use_event_id) public{\n        require(use_event_list[use_event_id].offer_to_address == msg.sender);\n        use_event_list[use_event_id].is_approved = true;\n        use_event_list[use_event_id].is_blocked = false;\n    }\n\n    //use event\n    function block_use_event_offer(uint use_event_id) public{\n        require(use_event_list[use_event_id].offer_to_address == msg.sender);\n        use_event_list[use_event_id].is_blocked = true;\n        use_event_list[use_event_id].is_approved = false;\n    }\n\n/**/\n\n    //\n    function balance_to(address payable reciever_address, uint pay_amount) public payable{\n        reciever_address.transfer(pay_amount);\n    }\n\n    //use event\n    function execute_use_event(uint use_event_id)public{\n        require(use_event_list[use_event_id].event_owner_address == msg.sender);\n        require(use_event_list[use_event_id].is_executed == false);        \n        require(use_event_list[use_event_id].is_approved);\n        //require(use_event_list[use_event_id].pay_amount <= address(this).balance);\n        //balance_to(use_event_list[use_event_id].offer_to_address, use_event_list[use_event_id].pay_amount);\n        use_event_list[use_event_id].is_executed = true;\n    }\n\n/**/\n    //\n    function register_mining_gene(address gene_holder_address, string memory gene_url, string memory description) public {\n        //require(gene_miner_list[msg.sender].is_available);\n        require(gene_holder_list[gene_holder_address].block_address_list[msg.sender] == false);//\n        uint id = gene_mining_data_list.length;\n\n        gene_mining_data_list.push(GeneMiningData(id, gene_url, description, gene_holder_address, msg.sender, false, false));\n        gene_holder_list[gene_holder_address].gene_mining_data_id_list.push(id);\n        gene_miner_list[msg.sender].mined_gene_mining_data_id_list.push(id);\n    }\n    \n    //\n    function accept_mining_gene(uint gene_mining_data_id) public {\n        require(gene_mining_data_list[gene_mining_data_id].gene_holder_address == msg.sender);\n        gene_mining_data_list[gene_mining_data_id].is_blocked_by_holder = false;\n        gene_mining_data_list[gene_mining_data_id].is_accepted_by_holder = true;\n    }\n\n    //\n    function blocked_mining_gene(uint gene_mining_data_id) public {\n        require(gene_mining_data_list[gene_mining_data_id].gene_holder_address == msg.sender);\n        gene_mining_data_list[gene_mining_data_id].is_accepted_by_holder = false;\n        gene_mining_data_list[gene_mining_data_id].is_blocked_by_holder = true;\n    }\n\n    \n/**/\n    //\n    function request_my_account_address() public view returns(address){\n        return msg.sender;\n    }\n\n    //\n    function request_own_gene_mining_data_list() external view returns(GeneMiningData[] memory){\n        uint array_length = gene_holder_list[msg.sender].gene_mining_data_id_list.length;  \n        GeneMiningData[] memory own_gene_mining_data_list = new GeneMiningData[](array_length);\n\n        for(uint i = 0; i < array_length; i++){\n            own_gene_mining_data_list[i] = gene_mining_data_list[gene_holder_list[msg.sender].gene_mining_data_id_list[i]];\n        }\n\n        return own_gene_mining_data_list;\n    }\n\n    //use event\n    function request_own_use_event_list() external view returns(UseEvent[] memory){\n        uint array_length = gene_holder_list[msg.sender].use_event_id_list.length;\n        UseEvent[] memory own_use_event_list = new UseEvent[](array_length);\n        \n        for(uint i = 0; i < array_length; i++){\n            own_use_event_list[i] = use_event_list[gene_holder_list[msg.sender].use_event_id_list[i]];\n        }\n\n        return own_use_event_list;\n    }\n\n    //\n    function request_own_mined_gene_mining_data_list() external view returns(GeneMiningData[] memory){\n        uint array_length = gene_miner_list[msg.sender].mined_gene_mining_data_id_list.length;\n        GeneMiningData[] memory own_mined_gene_mining_data_list = new GeneMiningData[](array_length);\n        \n        for(uint i = 0; i < array_length; i++){\n            own_mined_gene_mining_data_list[i] = gene_mining_data_list[gene_miner_list[msg.sender].mined_gene_mining_data_id_list[i]];\n        }\n\n        return own_mined_gene_mining_data_list;\n    }\n\n    //use event\n    function request_own_made_use_event_list() external view returns(UseEvent[] memory){\n        uint array_length = use_event_maker_list[msg.sender].use_event_id_list.length;\n        UseEvent[] memory own_use_event_list = new UseEvent[](array_length);\n\n        for(uint i = 0; i < array_length; i++){\n            own_use_event_list[i] = use_event_list[use_event_maker_list[msg.sender].use_event_id_list[i]];\n        }\n\n        return own_use_event_list;\n    }\n\n}",
  "sourcePath": "C:\\Users\\okuda\\OneDrive\\\\gitRepository\\SecHack365GeneSlimeMold\\SecHack365GeneSlimeMold\\contracts\\GeneSlimeMoldAlpha.sol",
  "compiler": {
    "name": "solc",
    "version": "0.8.11+commit.d7f03943.Emscripten.clang"
  },
  "schemaVersion": "3.4.3",
  "updatedAt": "2022-01-17T18:15:04.005Z",
  "networkType": "ethereum",
  "devdoc": {
    "kind": "dev",
    "methods": {},
    "version": 1
  },
  "userdoc": {
    "kind": "user",
    "methods": {},
    "version": 1
  }
}