{
  "contractName": "GeneSlimeMoldAlpha",
  "abi": [
    {
      "inputs": [],
      "stateMutability": "payable",
      "type": "constructor",
      "payable": true
    },
    {
      "inputs": [
        {
          "internalType": "address",
          "name": "",
          "type": "address"
        }
      ],
      "name": "balances",
      "outputs": [
        {
          "internalType": "uint256",
          "name": "",
          "type": "uint256"
        }
      ],
      "stateMutability": "view",
      "type": "function",
      "constant": true
    },
    {
      "inputs": [],
      "name": "coin_name",
      "outputs": [
        {
          "internalType": "string",
          "name": "",
          "type": "string"
        }
      ],
      "stateMutability": "view",
      "type": "function",
      "constant": true
    },
    {
      "inputs": [
        {
          "internalType": "uint256",
          "name": "",
          "type": "uint256"
        }
      ],
      "name": "gene_mining_data_list",
      "outputs": [
        {
          "internalType": "uint256",
          "name": "id",
          "type": "uint256"
        },
        {
          "internalType": "string",
          "name": "url",
          "type": "string"
        },
        {
          "internalType": "string",
          "name": "description",
          "type": "string"
        },
        {
          "internalType": "address",
          "name": "gene_holder_address",
          "type": "address"
        },
        {
          "internalType": "address",
          "name": "miner_address",
          "type": "address"
        },
        {
          "internalType": "bool",
          "name": "is_accepted_by_holder",
          "type": "bool"
        },
        {
          "internalType": "bool",
          "name": "is_blocked_by_holder",
          "type": "bool"
        },
        {
          "internalType": "uint256",
          "name": "used_count",
          "type": "uint256"
        }
      ],
      "stateMutability": "view",
      "type": "function",
      "constant": true
    },
    {
      "inputs": [],
      "name": "miner_used_bonus",
      "outputs": [
        {
          "internalType": "uint256",
          "name": "",
          "type": "uint256"
        }
      ],
      "stateMutability": "view",
      "type": "function",
      "constant": true
    },
    {
      "inputs": [],
      "name": "supervisor",
      "outputs": [
        {
          "internalType": "address",
          "name": "",
          "type": "address"
        }
      ],
      "stateMutability": "view",
      "type": "function",
      "constant": true
    },
    {
      "inputs": [],
      "name": "symbol",
      "outputs": [
        {
          "internalType": "string",
          "name": "",
          "type": "string"
        }
      ],
      "stateMutability": "view",
      "type": "function",
      "constant": true
    },
    {
      "inputs": [
        {
          "internalType": "uint256",
          "name": "",
          "type": "uint256"
        }
      ],
      "name": "use_event_list",
      "outputs": [
        {
          "internalType": "uint256",
          "name": "id",
          "type": "uint256"
        },
        {
          "internalType": "address",
          "name": "event_owner_address",
          "type": "address"
        },
        {
          "internalType": "string",
          "name": "description",
          "type": "string"
        },
        {
          "internalType": "address payable",
          "name": "offer_to_address",
          "type": "address"
        },
        {
          "internalType": "uint256",
          "name": "gene_data_id",
          "type": "uint256"
        },
        {
          "internalType": "uint256",
          "name": "pay_amount",
          "type": "uint256"
        },
        {
          "internalType": "bool",
          "name": "is_approved",
          "type": "bool"
        },
        {
          "internalType": "bool",
          "name": "is_blocked",
          "type": "bool"
        },
        {
          "internalType": "bool",
          "name": "is_executed",
          "type": "bool"
        }
      ],
      "stateMutability": "view",
      "type": "function",
      "constant": true
    },
    {
      "inputs": [
        {
          "internalType": "address",
          "name": "block_address",
          "type": "address"
        }
      ],
      "name": "add_block_list",
      "outputs": [],
      "stateMutability": "nonpayable",
      "type": "function"
    },
    {
      "inputs": [
        {
          "internalType": "address",
          "name": "block_address",
          "type": "address"
        }
      ],
      "name": "remove_block_list",
      "outputs": [],
      "stateMutability": "nonpayable",
      "type": "function"
    },
    {
      "inputs": [
        {
          "internalType": "address",
          "name": "miner_address",
          "type": "address"
        }
      ],
      "name": "generate_gene_miner",
      "outputs": [],
      "stateMutability": "nonpayable",
      "type": "function"
    },
    {
      "inputs": [
        {
          "internalType": "address",
          "name": "miner_address",
          "type": "address"
        }
      ],
      "name": "invalidate_gene_miner",
      "outputs": [],
      "stateMutability": "nonpayable",
      "type": "function"
    },
    {
      "inputs": [
        {
          "internalType": "address",
          "name": "use_event_maker_address",
          "type": "address"
        }
      ],
      "name": "generate_use_event_maker",
      "outputs": [],
      "stateMutability": "nonpayable",
      "type": "function"
    },
    {
      "inputs": [
        {
          "internalType": "address",
          "name": "use_event_maker_address",
          "type": "address"
        }
      ],
      "name": "invalidate_use_event_maker",
      "outputs": [],
      "stateMutability": "nonpayable",
      "type": "function"
    },
    {
      "inputs": [
        {
          "internalType": "string",
          "name": "description",
          "type": "string"
        },
        {
          "internalType": "address payable",
          "name": "offer_to_address",
          "type": "address"
        },
        {
          "internalType": "uint256",
          "name": "gene_data_id",
          "type": "uint256"
        },
        {
          "internalType": "uint256",
          "name": "payment",
          "type": "uint256"
        }
      ],
      "name": "generate_use_event",
      "outputs": [],
      "stateMutability": "nonpayable",
      "type": "function"
    },
    {
      "inputs": [
        {
          "internalType": "uint256",
          "name": "use_event_id",
          "type": "uint256"
        }
      ],
      "name": "approve_use_event_offer",
      "outputs": [],
      "stateMutability": "nonpayable",
      "type": "function"
    },
    {
      "inputs": [
        {
          "internalType": "uint256",
          "name": "use_event_id",
          "type": "uint256"
        }
      ],
      "name": "block_use_event_offer",
      "outputs": [],
      "stateMutability": "nonpayable",
      "type": "function"
    },
    {
      "inputs": [],
      "name": "balanceOf",
      "outputs": [
        {
          "internalType": "uint256",
          "name": "",
          "type": "uint256"
        }
      ],
      "stateMutability": "view",
      "type": "function",
      "constant": true
    },
    {
      "inputs": [
        {
          "internalType": "address",
          "name": "_to",
          "type": "address"
        },
        {
          "internalType": "uint256",
          "name": "_value",
          "type": "uint256"
        }
      ],
      "name": "transfer",
      "outputs": [],
      "stateMutability": "nonpayable",
      "type": "function"
    },
    {
      "inputs": [
        {
          "internalType": "address",
          "name": "_to",
          "type": "address"
        },
        {
          "internalType": "uint256",
          "name": "_value",
          "type": "uint256"
        }
      ],
      "name": "supervisorTransfer",
      "outputs": [],
      "stateMutability": "nonpayable",
      "type": "function"
    },
    {
      "inputs": [
        {
          "internalType": "address payable",
          "name": "reciever_address",
          "type": "address"
        },
        {
          "internalType": "uint256",
          "name": "pay_amount",
          "type": "uint256"
        }
      ],
      "name": "balance_to",
      "outputs": [],
      "stateMutability": "payable",
      "type": "function",
      "payable": true
    },
    {
      "inputs": [
        {
          "internalType": "uint256",
          "name": "use_event_id",
          "type": "uint256"
        }
      ],
      "name": "execute_use_event",
      "outputs": [],
      "stateMutability": "nonpayable",
      "type": "function"
    },
    {
      "inputs": [
        {
          "internalType": "address",
          "name": "gene_holder_address",
          "type": "address"
        },
        {
          "internalType": "string",
          "name": "gene_url",
          "type": "string"
        },
        {
          "internalType": "string",
          "name": "description",
          "type": "string"
        }
      ],
      "name": "register_mining_gene",
      "outputs": [],
      "stateMutability": "nonpayable",
      "type": "function"
    },
    {
      "inputs": [
        {
          "internalType": "uint256",
          "name": "gene_mining_data_id",
          "type": "uint256"
        }
      ],
      "name": "accept_mining_gene",
      "outputs": [],
      "stateMutability": "nonpayable",
      "type": "function"
    },
    {
      "inputs": [
        {
          "internalType": "uint256",
          "name": "gene_mining_data_id",
          "type": "uint256"
        }
      ],
      "name": "blocked_mining_gene",
      "outputs": [],
      "stateMutability": "nonpayable",
      "type": "function"
    },
    {
      "inputs": [],
      "name": "request_my_account_address",
      "outputs": [
        {
          "internalType": "address",
          "name": "",
          "type": "address"
        }
      ],
      "stateMutability": "view",
      "type": "function",
      "constant": true
    },
    {
      "inputs": [],
      "name": "request_own_gene_mining_data_list",
      "outputs": [
        {
          "components": [
            {
              "internalType": "uint256",
              "name": "id",
              "type": "uint256"
            },
            {
              "internalType": "string",
              "name": "url",
              "type": "string"
            },
            {
              "internalType": "string",
              "name": "description",
              "type": "string"
            },
            {
              "internalType": "address",
              "name": "gene_holder_address",
              "type": "address"
            },
            {
              "internalType": "address",
              "name": "miner_address",
              "type": "address"
            },
            {
              "internalType": "bool",
              "name": "is_accepted_by_holder",
              "type": "bool"
            },
            {
              "internalType": "bool",
              "name": "is_blocked_by_holder",
              "type": "bool"
            },
            {
              "internalType": "uint256",
              "name": "used_count",
              "type": "uint256"
            }
          ],
          "internalType": "struct GeneSlimeMoldAlpha.GeneMiningData[]",
          "name": "",
          "type": "tuple[]"
        }
      ],
      "stateMutability": "view",
      "type": "function",
      "constant": true
    },
    {
      "inputs": [],
      "name": "request_own_use_event_list",
      "outputs": [
        {
          "components": [
            {
              "internalType": "uint256",
              "name": "id",
              "type": "uint256"
            },
            {
              "internalType": "address",
              "name": "event_owner_address",
              "type": "address"
            },
            {
              "internalType": "string",
              "name": "description",
              "type": "string"
            },
            {
              "internalType": "address payable",
              "name": "offer_to_address",
              "type": "address"
            },
            {
              "internalType": "uint256",
              "name": "gene_data_id",
              "type": "uint256"
            },
            {
              "internalType": "uint256",
              "name": "pay_amount",
              "type": "uint256"
            },
            {
              "internalType": "bool",
              "name": "is_approved",
              "type": "bool"
            },
            {
              "internalType": "bool",
              "name": "is_blocked",
              "type": "bool"
            },
            {
              "internalType": "bool",
              "name": "is_executed",
              "type": "bool"
            }
          ],
          "internalType": "struct GeneSlimeMoldAlpha.UseEvent[]",
          "name": "",
          "type": "tuple[]"
        }
      ],
      "stateMutability": "view",
      "type": "function",
      "constant": true
    },
    {
      "inputs": [],
      "name": "request_own_mined_gene_mining_data_list",
      "outputs": [
        {
          "components": [
            {
              "internalType": "uint256",
              "name": "id",
              "type": "uint256"
            },
            {
              "internalType": "string",
              "name": "url",
              "type": "string"
            },
            {
              "internalType": "string",
              "name": "description",
              "type": "string"
            },
            {
              "internalType": "address",
              "name": "gene_holder_address",
              "type": "address"
            },
            {
              "internalType": "address",
              "name": "miner_address",
              "type": "address"
            },
            {
              "internalType": "bool",
              "name": "is_accepted_by_holder",
              "type": "bool"
            },
            {
              "internalType": "bool",
              "name": "is_blocked_by_holder",
              "type": "bool"
            },
            {
              "internalType": "uint256",
              "name": "used_count",
              "type": "uint256"
            }
          ],
          "internalType": "struct GeneSlimeMoldAlpha.GeneMiningData[]",
          "name": "",
          "type": "tuple[]"
        }
      ],
      "stateMutability": "view",
      "type": "function",
      "constant": true
    },
    {
      "inputs": [],
      "name": "request_own_made_use_event_list",
      "outputs": [
        {
          "components": [
            {
              "internalType": "uint256",
              "name": "id",
              "type": "uint256"
            },
            {
              "internalType": "address",
              "name": "event_owner_address",
              "type": "address"
            },
            {
              "internalType": "string",
              "name": "description",
              "type": "string"
            },
            {
              "internalType": "address payable",
              "name": "offer_to_address",
              "type": "address"
            },
            {
              "internalType": "uint256",
              "name": "gene_data_id",
              "type": "uint256"
            },
            {
              "internalType": "uint256",
              "name": "pay_amount",
              "type": "uint256"
            },
            {
              "internalType": "bool",
              "name": "is_approved",
              "type": "bool"
            },
            {
              "internalType": "bool",
              "name": "is_blocked",
              "type": "bool"
            },
            {
              "internalType": "bool",
              "name": "is_executed",
              "type": "bool"
            }
          ],
          "internalType": "struct GeneSlimeMoldAlpha.UseEvent[]",
          "name": "",
          "type": "tuple[]"
        }
      ],
      "stateMutability": "view",
      "type": "function",
      "constant": true
    }
  ],
  "bytecode": "0x60806040526040518060400160405280600881526020017f47656e65436f696e0000000000000000000000000000000000000000000000008152506000908051906020019062000051929190620000ec565b506040518060400160405280600281526020017f4743000000000000000000000000000000000000000000000000000000000000815250600190805190602001906200009f929190620000ec565b50600a60095533600860006101000a81548173ffffffffffffffffffffffffffffffffffffffff021916908373ffffffffffffffffffffffffffffffffffffffff16021790555062000201565b828054620000fa90620001cb565b90600052602060002090601f0160209004810192826200011e57600085556200016a565b82601f106200013957805160ff19168380011785556200016a565b828001600101855582156200016a579182015b82811115620001695782518255916020019190600101906200014c565b5b5090506200017991906200017d565b5090565b5b80821115620001985760008160009055506001016200017e565b5090565b7f4e487b7100000000000000000000000000000000000000000000000000000000600052602260045260246000fd5b60006002820490506001821680620001e457607f821691505b60208210811415620001fb57620001fa6200019c565b5b50919050565b613b2e80620002116000396000f3fe6080604052600436106101c25760003560e01c80638cf005e7116100f7578063b7082e0411610095578063dad7aa5f11610064578063dad7aa5f14610616578063f38a36a41461063f578063f4092aec1461066a578063f66327c814610693576101c2565b8063b7082e0414610570578063bbb0d92614610599578063c3cb0965146105c2578063d417bd57146105eb576101c2565b8063a1ea1304116100d1578063a1ea1304146104d9578063a4ab29de146104f5578063a9059cbb1461051e578063b06355c514610547576101c2565b80638cf005e71461045a57806395d89b411461048357806395e6c039146104ae576101c2565b80635a8515ea1161016457806374632b861161013e57806374632b861461039a57806379fed660146103c3578063821dc23f146103ec57806388df39fb14610431576101c2565b80635a8515ea146103195780635ca9afb614610344578063722713f71461036f576101c2565b806339583c05116101a057806339583c05146102715780633fbeb5da1461029a57806348d3d7a0146102c357806356e4b68b146102ee576101c2565b80630b6d7b0e146101c757806314a8ba97146101f057806327e235e314610234575b600080fd5b3480156101d357600080fd5b506101ee60048036038101906101e99190612fb2565b6106be565b005b3480156101fc57600080fd5b5061021760048036038101906102129190613015565b610759565b60405161022b989796959493929190613114565b60405180910390f35b34801561024057600080fd5b5061025b60048036038101906102569190612fb2565b61091b565b60405161026891906131a0565b60405180910390f35b34801561027d57600080fd5b506102986004803603810190610293919061332e565b610933565b005b3480156102a657600080fd5b506102c160048036038101906102bc9190612fb2565b610cfc565b005b3480156102cf57600080fd5b506102d8610db4565b6040516102e591906135be565b60405180910390f35b3480156102fa57600080fd5b506103036110d6565b60405161031091906135e0565b60405180910390f35b34801561032557600080fd5b5061032e6110fc565b60405161033b91906135be565b60405180910390f35b34801561035057600080fd5b5061035961141e565b60405161036691906135e0565b60405180910390f35b34801561037b57600080fd5b50610384611426565b60405161039191906131a0565b60405180910390f35b3480156103a657600080fd5b506103c160048036038101906103bc9190612fb2565b61146d565b005b3480156103cf57600080fd5b506103ea60048036038101906103e59190613015565b611525565b005b3480156103f857600080fd5b50610413600480360381019061040e9190613015565b611621565b6040516104289998979695949392919061360a565b60405180910390f35b34801561043d57600080fd5b5061045860048036038101906104539190612fb2565b61176e565b005b34801561046657600080fd5b50610481600480360381019061047c9190612fb2565b611809565b005b34801561048f57600080fd5b506104986118c1565b6040516104a5919061369e565b60405180910390f35b3480156104ba57600080fd5b506104c361194f565b6040516104d0919061369e565b60405180910390f35b6104f360048036038101906104ee91906136c0565b6119dd565b005b34801561050157600080fd5b5061051c60048036038101906105179190613700565b611a28565b005b34801561052a57600080fd5b5061054560048036038101906105409190613700565b611adc565b005b34801561055357600080fd5b5061056e60048036038101906105699190613015565b611bd8565b005b34801561057c57600080fd5b5061059760048036038101906105929190613015565b611cd4565b005b3480156105a557600080fd5b506105c060048036038101906105bb9190613015565b611f5d565b005b3480156105ce57600080fd5b506105e960048036038101906105e49190613740565b6120fb565b005b3480156105f757600080fd5b50610600612430565b60405161060d9190613944565b60405180910390f35b34801561062257600080fd5b5061063d60048036038101906106389190612fb2565b6127bf565b005b34801561064b57600080fd5b50610654612877565b6040516106619190613944565b60405180910390f35b34801561067657600080fd5b50610691600480360381019061068c9190613015565b612c06565b005b34801561069f57600080fd5b506106a8612da4565b6040516106b591906131a0565b60405180910390f35b6000600360003373ffffffffffffffffffffffffffffffffffffffff1673ffffffffffffffffffffffffffffffffffffffff16815260200190815260200160002060020160008373ffffffffffffffffffffffffffffffffffffffff1673ffffffffffffffffffffffffffffffffffffffff16815260200190815260200160002060006101000a81548160ff02191690831515021790555050565b6006818154811061076957600080fd5b906000526020600020906006020160009150905080600001549080600101805461079290613995565b80601f01602080910402602001604051908101604052809291908181526020018280546107be90613995565b801561080b5780601f106107e05761010080835404028352916020019161080b565b820191906000526020600020905b8154815290600101906020018083116107ee57829003601f168201915b50505050509080600201805461082090613995565b80601f016020809104026020016040519081016040528092919081815260200182805461084c90613995565b80156108995780601f1061086e57610100808354040283529160200191610899565b820191906000526020600020905b81548152906001019060200180831161087c57829003601f168201915b5050505050908060030160009054906101000a900473ffffffffffffffffffffffffffffffffffffffff16908060040160009054906101000a900473ffffffffffffffffffffffffffffffffffffffff16908060040160149054906101000a900460ff16908060040160159054906101000a900460ff16908060050154905088565b60026020528060005260406000206000915090505481565b60001515600360008573ffffffffffffffffffffffffffffffffffffffff1673ffffffffffffffffffffffffffffffffffffffff16815260200190815260200160002060020160003373ffffffffffffffffffffffffffffffffffffffff1673ffffffffffffffffffffffffffffffffffffffff16815260200190815260200160002060009054906101000a900460ff161515146109d057600080fd5b8273ffffffffffffffffffffffffffffffffffffffff16600683815481106109fb576109fa6139c7565b5b906000526020600020906006020160030160009054906101000a900473ffffffffffffffffffffffffffffffffffffffff1673ffffffffffffffffffffffffffffffffffffffff1614610a4d57600080fd5b6000600780549050905060076040518061012001604052808381526020013373ffffffffffffffffffffffffffffffffffffffff1681526020018781526020018673ffffffffffffffffffffffffffffffffffffffff1681526020018581526020018481526020016000151581526020016000151581526020016000151581525090806001815401808255809150506001900390600052602060002090600702016000909190919091506000820151816000015560208201518160010160006101000a81548173ffffffffffffffffffffffffffffffffffffffff021916908373ffffffffffffffffffffffffffffffffffffffff1602179055506040820151816002019080519060200190610b64929190612daa565b5060608201518160030160006101000a81548173ffffffffffffffffffffffffffffffffffffffff021916908373ffffffffffffffffffffffffffffffffffffffff1602179055506080820151816004015560a0820151816005015560c08201518160060160006101000a81548160ff02191690831515021790555060e08201518160060160016101000a81548160ff0219169083151502179055506101008201518160060160026101000a81548160ff0219169083151502179055505050600560003373ffffffffffffffffffffffffffffffffffffffff1673ffffffffffffffffffffffffffffffffffffffff168152602001908152602001600020600001819080600181540180825580915050600190039060005260206000200160009091909190915055600360008573ffffffffffffffffffffffffffffffffffffffff1673ffffffffffffffffffffffffffffffffffffffff1681526020019081526020016000206001018190806001815401808255809150506001900390600052602060002001600090919091909150555050505050565b3373ffffffffffffffffffffffffffffffffffffffff16600860009054906101000a900473ffffffffffffffffffffffffffffffffffffffff1673ffffffffffffffffffffffffffffffffffffffff1614610d5657600080fd5b6000600460008373ffffffffffffffffffffffffffffffffffffffff1673ffffffffffffffffffffffffffffffffffffffff16815260200190815260200160002060010160006101000a81548160ff02191690831515021790555050565b60606000600560003373ffffffffffffffffffffffffffffffffffffffff1673ffffffffffffffffffffffffffffffffffffffff16815260200190815260200160002060000180549050905060008167ffffffffffffffff811115610e1c57610e1b6131c5565b5b604051908082528060200260200182016040528015610e5557816020015b610e42612e30565b815260200190600190039081610e3a5790505b50905060005b828110156110cd576007600560003373ffffffffffffffffffffffffffffffffffffffff1673ffffffffffffffffffffffffffffffffffffffff1681526020019081526020016000206000018281548110610eb957610eb86139c7565b5b906000526020600020015481548110610ed557610ed46139c7565b5b906000526020600020906007020160405180610120016040529081600082015481526020016001820160009054906101000a900473ffffffffffffffffffffffffffffffffffffffff1673ffffffffffffffffffffffffffffffffffffffff1673ffffffffffffffffffffffffffffffffffffffff168152602001600282018054610f5f90613995565b80601f0160208091040260200160405190810160405280929190818152602001828054610f8b90613995565b8015610fd85780601f10610fad57610100808354040283529160200191610fd8565b820191906000526020600020905b815481529060010190602001808311610fbb57829003601f168201915b505050505081526020016003820160009054906101000a900473ffffffffffffffffffffffffffffffffffffffff1673ffffffffffffffffffffffffffffffffffffffff1673ffffffffffffffffffffffffffffffffffffffff16815260200160048201548152602001600582015481526020016006820160009054906101000a900460ff161515151581526020016006820160019054906101000a900460ff161515151581526020016006820160029054906101000a900460ff1615151515815250508282815181106110af576110ae6139c7565b5b602002602001018190525080806110c590613a25565b915050610e5b565b50809250505090565b600860009054906101000a900473ffffffffffffffffffffffffffffffffffffffff1681565b60606000600360003373ffffffffffffffffffffffffffffffffffffffff1673ffffffffffffffffffffffffffffffffffffffff16815260200190815260200160002060010180549050905060008167ffffffffffffffff811115611164576111636131c5565b5b60405190808252806020026020018201604052801561119d57816020015b61118a612e30565b8152602001906001900390816111825790505b50905060005b82811015611415576007600360003373ffffffffffffffffffffffffffffffffffffffff1673ffffffffffffffffffffffffffffffffffffffff1681526020019081526020016000206001018281548110611201576112006139c7565b5b90600052602060002001548154811061121d5761121c6139c7565b5b906000526020600020906007020160405180610120016040529081600082015481526020016001820160009054906101000a900473ffffffffffffffffffffffffffffffffffffffff1673ffffffffffffffffffffffffffffffffffffffff1673ffffffffffffffffffffffffffffffffffffffff1681526020016002820180546112a790613995565b80601f01602080910402602001604051908101604052809291908181526020018280546112d390613995565b80156113205780601f106112f557610100808354040283529160200191611320565b820191906000526020600020905b81548152906001019060200180831161130357829003601f168201915b505050505081526020016003820160009054906101000a900473ffffffffffffffffffffffffffffffffffffffff1673ffffffffffffffffffffffffffffffffffffffff1673ffffffffffffffffffffffffffffffffffffffff16815260200160048201548152602001600582015481526020016006820160009054906101000a900460ff161515151581526020016006820160019054906101000a900460ff161515151581526020016006820160029054906101000a900460ff1615151515815250508282815181106113f7576113f66139c7565b5b6020026020010181905250808061140d90613a25565b9150506111a3565b50809250505090565b600033905090565b6000600260003373ffffffffffffffffffffffffffffffffffffffff1673ffffffffffffffffffffffffffffffffffffffff16815260200190815260200160002054905090565b3373ffffffffffffffffffffffffffffffffffffffff16600860009054906101000a900473ffffffffffffffffffffffffffffffffffffffff1673ffffffffffffffffffffffffffffffffffffffff16146114c757600080fd5b6001600460008373ffffffffffffffffffffffffffffffffffffffff1673ffffffffffffffffffffffffffffffffffffffff16815260200190815260200160002060010160006101000a81548160ff02191690831515021790555050565b3373ffffffffffffffffffffffffffffffffffffffff16600682815481106115505761154f6139c7565b5b906000526020600020906006020160030160009054906101000a900473ffffffffffffffffffffffffffffffffffffffff1673ffffffffffffffffffffffffffffffffffffffff16146115a257600080fd5b6000600682815481106115b8576115b76139c7565b5b906000526020600020906006020160040160146101000a81548160ff0219169083151502179055506001600682815481106115f6576115f56139c7565b5b906000526020600020906006020160040160156101000a81548160ff02191690831515021790555050565b6007818154811061163157600080fd5b90600052602060002090600702016000915090508060000154908060010160009054906101000a900473ffffffffffffffffffffffffffffffffffffffff169080600201805461168090613995565b80601f01602080910402602001604051908101604052809291908181526020018280546116ac90613995565b80156116f95780601f106116ce576101008083540402835291602001916116f9565b820191906000526020600020905b8154815290600101906020018083116116dc57829003601f168201915b5050505050908060030160009054906101000a900473ffffffffffffffffffffffffffffffffffffffff16908060040154908060050154908060060160009054906101000a900460ff16908060060160019054906101000a900460ff16908060060160029054906101000a900460ff16905089565b6001600360003373ffffffffffffffffffffffffffffffffffffffff1673ffffffffffffffffffffffffffffffffffffffff16815260200190815260200160002060020160008373ffffffffffffffffffffffffffffffffffffffff1673ffffffffffffffffffffffffffffffffffffffff16815260200190815260200160002060006101000a81548160ff02191690831515021790555050565b3373ffffffffffffffffffffffffffffffffffffffff16600860009054906101000a900473ffffffffffffffffffffffffffffffffffffffff1673ffffffffffffffffffffffffffffffffffffffff161461186357600080fd5b6001600560008373ffffffffffffffffffffffffffffffffffffffff1673ffffffffffffffffffffffffffffffffffffffff16815260200190815260200160002060010160006101000a81548160ff02191690831515021790555050565b600180546118ce90613995565b80601f01602080910402602001604051908101604052809291908181526020018280546118fa90613995565b80156119475780601f1061191c57610100808354040283529160200191611947565b820191906000526020600020905b81548152906001019060200180831161192a57829003601f168201915b505050505081565b6000805461195c90613995565b80601f016020809104026020016040519081016040528092919081815260200182805461198890613995565b80156119d55780601f106119aa576101008083540402835291602001916119d5565b820191906000526020600020905b8154815290600101906020018083116119b857829003601f168201915b505050505081565b8173ffffffffffffffffffffffffffffffffffffffff166108fc829081150290604051600060405180830381858888f19350505050158015611a23573d6000803e3d6000fd5b505050565b3373ffffffffffffffffffffffffffffffffffffffff16600860009054906101000a900473ffffffffffffffffffffffffffffffffffffffff1673ffffffffffffffffffffffffffffffffffffffff1614611a8257600080fd5b80600260008473ffffffffffffffffffffffffffffffffffffffff1673ffffffffffffffffffffffffffffffffffffffff1681526020019081526020016000206000828254611ad19190613a6e565b925050819055505050565b600260003373ffffffffffffffffffffffffffffffffffffffff1673ffffffffffffffffffffffffffffffffffffffff16815260200190815260200160002054811115611b2857600080fd5b80600260003373ffffffffffffffffffffffffffffffffffffffff1673ffffffffffffffffffffffffffffffffffffffff1681526020019081526020016000206000828254611b779190613ac4565b9250508190555080600260008473ffffffffffffffffffffffffffffffffffffffff1673ffffffffffffffffffffffffffffffffffffffff1681526020019081526020016000206000828254611bcd9190613a6e565b925050819055505050565b3373ffffffffffffffffffffffffffffffffffffffff1660068281548110611c0357611c026139c7565b5b906000526020600020906006020160030160009054906101000a900473ffffffffffffffffffffffffffffffffffffffff1673ffffffffffffffffffffffffffffffffffffffff1614611c5557600080fd5b600060068281548110611c6b57611c6a6139c7565b5b906000526020600020906006020160040160156101000a81548160ff021916908315150217905550600160068281548110611ca957611ca86139c7565b5b906000526020600020906006020160040160146101000a81548160ff02191690831515021790555050565b3373ffffffffffffffffffffffffffffffffffffffff1660078281548110611cff57611cfe6139c7565b5b906000526020600020906007020160010160009054906101000a900473ffffffffffffffffffffffffffffffffffffffff1673ffffffffffffffffffffffffffffffffffffffff1614611d5157600080fd5b6000151560078281548110611d6957611d686139c7565b5b906000526020600020906007020160060160029054906101000a900460ff16151514611d9457600080fd5b60078181548110611da857611da76139c7565b5b906000526020600020906007020160060160009054906101000a900460ff16611dd057600080fd5b600160078281548110611de657611de56139c7565b5b906000526020600020906007020160060160026101000a81548160ff021916908315150217905550611e8260078281548110611e2557611e246139c7565b5b906000526020600020906007020160030160009054906101000a900473ffffffffffffffffffffffffffffffffffffffff1660078381548110611e6b57611e6a6139c7565b5b906000526020600020906007020160050154611adc565b611ef8600660078381548110611e9b57611e9a6139c7565b5b90600052602060002090600702016004015481548110611ebe57611ebd6139c7565b5b906000526020600020906006020160040160009054906101000a900473ffffffffffffffffffffffffffffffffffffffff16600954611adc565b6001600660078381548110611f1057611f0f6139c7565b5b90600052602060002090600702016004015481548110611f3357611f326139c7565b5b90600052602060002090600602016005016000828254611f539190613a6e565b9250508190555050565b3373ffffffffffffffffffffffffffffffffffffffff1660078281548110611f8857611f876139c7565b5b906000526020600020906007020160030160009054906101000a900473ffffffffffffffffffffffffffffffffffffffff1673ffffffffffffffffffffffffffffffffffffffff1614611fda57600080fd5b3373ffffffffffffffffffffffffffffffffffffffff16600660078381548110612007576120066139c7565b5b9060005260206000209060070201600401548154811061202a576120296139c7565b5b906000526020600020906006020160030160009054906101000a900473ffffffffffffffffffffffffffffffffffffffff1673ffffffffffffffffffffffffffffffffffffffff161461207c57600080fd5b600160078281548110612092576120916139c7565b5b906000526020600020906007020160060160016101000a81548160ff0219169083151502179055506000600782815481106120d0576120cf6139c7565b5b906000526020600020906007020160060160006101000a81548160ff02191690831515021790555050565b60001515600360008573ffffffffffffffffffffffffffffffffffffffff1673ffffffffffffffffffffffffffffffffffffffff16815260200190815260200160002060020160003373ffffffffffffffffffffffffffffffffffffffff1673ffffffffffffffffffffffffffffffffffffffff16815260200190815260200160002060009054906101000a900460ff1615151461219857600080fd5b6000600680549050905060066040518061010001604052808381526020018581526020018481526020018673ffffffffffffffffffffffffffffffffffffffff1681526020013373ffffffffffffffffffffffffffffffffffffffff16815260200160001515815260200160001515815260200160008152509080600181540180825580915050600190039060005260206000209060060201600090919091909150600082015181600001556020820151816001019080519060200190612260929190612daa565b50604082015181600201908051906020019061227d929190612daa565b5060608201518160030160006101000a81548173ffffffffffffffffffffffffffffffffffffffff021916908373ffffffffffffffffffffffffffffffffffffffff16021790555060808201518160040160006101000a81548173ffffffffffffffffffffffffffffffffffffffff021916908373ffffffffffffffffffffffffffffffffffffffff16021790555060a08201518160040160146101000a81548160ff02191690831515021790555060c08201518160040160156101000a81548160ff02191690831515021790555060e082015181600501555050600360008573ffffffffffffffffffffffffffffffffffffffff1673ffffffffffffffffffffffffffffffffffffffff168152602001908152602001600020600001819080600181540180825580915050600190039060005260206000200160009091909190915055600460003373ffffffffffffffffffffffffffffffffffffffff1673ffffffffffffffffffffffffffffffffffffffff16815260200190815260200160002060000181908060018154018082558091505060019003906000526020600020016000909190919091505550505050565b60606000600360003373ffffffffffffffffffffffffffffffffffffffff1673ffffffffffffffffffffffffffffffffffffffff16815260200190815260200160002060000180549050905060008167ffffffffffffffff811115612498576124976131c5565b5b6040519080825280602002602001820160405280156124d157816020015b6124be612eae565b8152602001906001900390816124b65790505b50905060005b828110156127b6576006600360003373ffffffffffffffffffffffffffffffffffffffff1673ffffffffffffffffffffffffffffffffffffffff1681526020019081526020016000206000018281548110612535576125346139c7565b5b906000526020600020015481548110612551576125506139c7565b5b9060005260206000209060060201604051806101000160405290816000820154815260200160018201805461258590613995565b80601f01602080910402602001604051908101604052809291908181526020018280546125b190613995565b80156125fe5780601f106125d3576101008083540402835291602001916125fe565b820191906000526020600020905b8154815290600101906020018083116125e157829003601f168201915b5050505050815260200160028201805461261790613995565b80601f016020809104026020016040519081016040528092919081815260200182805461264390613995565b80156126905780601f1061266557610100808354040283529160200191612690565b820191906000526020600020905b81548152906001019060200180831161267357829003601f168201915b505050505081526020016003820160009054906101000a900473ffffffffffffffffffffffffffffffffffffffff1673ffffffffffffffffffffffffffffffffffffffff1673ffffffffffffffffffffffffffffffffffffffff1681526020016004820160009054906101000a900473ffffffffffffffffffffffffffffffffffffffff1673ffffffffffffffffffffffffffffffffffffffff1673ffffffffffffffffffffffffffffffffffffffff1681526020016004820160149054906101000a900460ff161515151581526020016004820160159054906101000a900460ff16151515158152602001600582015481525050828281518110612798576127976139c7565b5b602002602001018190525080806127ae90613a25565b9150506124d7565b50809250505090565b3373ffffffffffffffffffffffffffffffffffffffff16600860009054906101000a900473ffffffffffffffffffffffffffffffffffffffff1673ffffffffffffffffffffffffffffffffffffffff161461281957600080fd5b6000600560008373ffffffffffffffffffffffffffffffffffffffff1673ffffffffffffffffffffffffffffffffffffffff16815260200190815260200160002060010160006101000a81548160ff02191690831515021790555050565b60606000600460003373ffffffffffffffffffffffffffffffffffffffff1673ffffffffffffffffffffffffffffffffffffffff16815260200190815260200160002060000180549050905060008167ffffffffffffffff8111156128df576128de6131c5565b5b60405190808252806020026020018201604052801561291857816020015b612905612eae565b8152602001906001900390816128fd5790505b50905060005b82811015612bfd576006600460003373ffffffffffffffffffffffffffffffffffffffff1673ffffffffffffffffffffffffffffffffffffffff168152602001908152602001600020600001828154811061297c5761297b6139c7565b5b906000526020600020015481548110612998576129976139c7565b5b906000526020600020906006020160405180610100016040529081600082015481526020016001820180546129cc90613995565b80601f01602080910402602001604051908101604052809291908181526020018280546129f890613995565b8015612a455780601f10612a1a57610100808354040283529160200191612a45565b820191906000526020600020905b815481529060010190602001808311612a2857829003601f168201915b50505050508152602001600282018054612a5e90613995565b80601f0160208091040260200160405190810160405280929190818152602001828054612a8a90613995565b8015612ad75780601f10612aac57610100808354040283529160200191612ad7565b820191906000526020600020905b815481529060010190602001808311612aba57829003601f168201915b505050505081526020016003820160009054906101000a900473ffffffffffffffffffffffffffffffffffffffff1673ffffffffffffffffffffffffffffffffffffffff1673ffffffffffffffffffffffffffffffffffffffff1681526020016004820160009054906101000a900473ffffffffffffffffffffffffffffffffffffffff1673ffffffffffffffffffffffffffffffffffffffff1673ffffffffffffffffffffffffffffffffffffffff1681526020016004820160149054906101000a900460ff161515151581526020016004820160159054906101000a900460ff16151515158152602001600582015481525050828281518110612bdf57612bde6139c7565b5b60200260200101819052508080612bf590613a25565b91505061291e565b50809250505090565b3373ffffffffffffffffffffffffffffffffffffffff1660078281548110612c3157612c306139c7565b5b906000526020600020906007020160030160009054906101000a900473ffffffffffffffffffffffffffffffffffffffff1673ffffffffffffffffffffffffffffffffffffffff1614612c8357600080fd5b3373ffffffffffffffffffffffffffffffffffffffff16600660078381548110612cb057612caf6139c7565b5b90600052602060002090600702016004015481548110612cd357612cd26139c7565b5b906000526020600020906006020160030160009054906101000a900473ffffffffffffffffffffffffffffffffffffffff1673ffffffffffffffffffffffffffffffffffffffff1614612d2557600080fd5b600160078281548110612d3b57612d3a6139c7565b5b906000526020600020906007020160060160006101000a81548160ff021916908315150217905550600060078281548110612d7957612d786139c7565b5b906000526020600020906007020160060160016101000a81548160ff02191690831515021790555050565b60095481565b828054612db690613995565b90600052602060002090601f016020900481019282612dd85760008555612e1f565b82601f10612df157805160ff1916838001178555612e1f565b82800160010185558215612e1f579182015b82811115612e1e578251825591602001919060010190612e03565b5b509050612e2c9190612f23565b5090565b60405180610120016040528060008152602001600073ffffffffffffffffffffffffffffffffffffffff16815260200160608152602001600073ffffffffffffffffffffffffffffffffffffffff16815260200160008152602001600081526020016000151581526020016000151581526020016000151581525090565b604051806101000160405280600081526020016060815260200160608152602001600073ffffffffffffffffffffffffffffffffffffffff168152602001600073ffffffffffffffffffffffffffffffffffffffff168152602001600015158152602001600015158152602001600081525090565b5b80821115612f3c576000816000905550600101612f24565b5090565b6000604051905090565b600080fd5b600080fd5b600073ffffffffffffffffffffffffffffffffffffffff82169050919050565b6000612f7f82612f54565b9050919050565b612f8f81612f74565b8114612f9a57600080fd5b50565b600081359050612fac81612f86565b92915050565b600060208284031215612fc857612fc7612f4a565b5b6000612fd684828501612f9d565b91505092915050565b6000819050919050565b612ff281612fdf565b8114612ffd57600080fd5b50565b60008135905061300f81612fe9565b92915050565b60006020828403121561302b5761302a612f4a565b5b600061303984828501613000565b91505092915050565b61304b81612fdf565b82525050565b600081519050919050565b600082825260208201905092915050565b60005b8381101561308b578082015181840152602081019050613070565b8381111561309a576000848401525b50505050565b6000601f19601f8301169050919050565b60006130bc82613051565b6130c6818561305c565b93506130d681856020860161306d565b6130df816130a0565b840191505092915050565b6130f381612f74565b82525050565b60008115159050919050565b61310e816130f9565b82525050565b60006101008201905061312a600083018b613042565b818103602083015261313c818a6130b1565b9050818103604083015261315081896130b1565b905061315f60608301886130ea565b61316c60808301876130ea565b61317960a0830186613105565b61318660c0830185613105565b61319360e0830184613042565b9998505050505050505050565b60006020820190506131b56000830184613042565b92915050565b600080fd5b600080fd5b7f4e487b7100000000000000000000000000000000000000000000000000000000600052604160045260246000fd5b6131fd826130a0565b810181811067ffffffffffffffff8211171561321c5761321b6131c5565b5b80604052505050565b600061322f612f40565b905061323b82826131f4565b919050565b600067ffffffffffffffff82111561325b5761325a6131c5565b5b613264826130a0565b9050602081019050919050565b82818337600083830152505050565b600061329361328e84613240565b613225565b9050828152602081018484840111156132af576132ae6131c0565b5b6132ba848285613271565b509392505050565b600082601f8301126132d7576132d66131bb565b5b81356132e7848260208601613280565b91505092915050565b60006132fb82612f54565b9050919050565b61330b816132f0565b811461331657600080fd5b50565b60008135905061332881613302565b92915050565b6000806000806080858703121561334857613347612f4a565b5b600085013567ffffffffffffffff81111561336657613365612f4f565b5b613372878288016132c2565b945050602061338387828801613319565b935050604061339487828801613000565b92505060606133a587828801613000565b91505092959194509250565b600081519050919050565b600082825260208201905092915050565b6000819050602082019050919050565b6133e681612fdf565b82525050565b6133f581612f74565b82525050565b600082825260208201905092915050565b600061341782613051565b61342181856133fb565b935061343181856020860161306d565b61343a816130a0565b840191505092915050565b61344e816132f0565b82525050565b61345d816130f9565b82525050565b60006101208301600083015161347c60008601826133dd565b50602083015161348f60208601826133ec565b50604083015184820360408601526134a7828261340c565b91505060608301516134bc6060860182613445565b5060808301516134cf60808601826133dd565b5060a08301516134e260a08601826133dd565b5060c08301516134f560c0860182613454565b5060e083015161350860e0860182613454565b5061010083015161351d610100860182613454565b508091505092915050565b60006135348383613463565b905092915050565b6000602082019050919050565b6000613554826133b1565b61355e81856133bc565b935083602082028501613570856133cd565b8060005b858110156135ac578484038952815161358d8582613528565b94506135988361353c565b925060208a01995050600181019050613574565b50829750879550505050505092915050565b600060208201905081810360008301526135d88184613549565b905092915050565b60006020820190506135f560008301846130ea565b92915050565b613604816132f0565b82525050565b600061012082019050613620600083018c613042565b61362d602083018b6130ea565b818103604083015261363f818a6130b1565b905061364e60608301896135fb565b61365b6080830188613042565b61366860a0830187613042565b61367560c0830186613105565b61368260e0830185613105565b613690610100830184613105565b9a9950505050505050505050565b600060208201905081810360008301526136b881846130b1565b905092915050565b600080604083850312156136d7576136d6612f4a565b5b60006136e585828601613319565b92505060206136f685828601613000565b9150509250929050565b6000806040838503121561371757613716612f4a565b5b600061372585828601612f9d565b925050602061373685828601613000565b9150509250929050565b60008060006060848603121561375957613758612f4a565b5b600061376786828701612f9d565b935050602084013567ffffffffffffffff81111561378857613787612f4f565b5b613794868287016132c2565b925050604084013567ffffffffffffffff8111156137b5576137b4612f4f565b5b6137c1868287016132c2565b9150509250925092565b600081519050919050565b600082825260208201905092915050565b6000819050602082019050919050565b60006101008301600083015161381060008601826133dd565b5060208301518482036020860152613828828261340c565b91505060408301518482036040860152613842828261340c565b915050606083015161385760608601826133ec565b50608083015161386a60808601826133ec565b5060a083015161387d60a0860182613454565b5060c083015161389060c0860182613454565b5060e08301516138a360e08601826133dd565b508091505092915050565b60006138ba83836137f7565b905092915050565b6000602082019050919050565b60006138da826137cb565b6138e481856137d6565b9350836020820285016138f6856137e7565b8060005b85811015613932578484038952815161391385826138ae565b945061391e836138c2565b925060208a019950506001810190506138fa565b50829750879550505050505092915050565b6000602082019050818103600083015261395e81846138cf565b905092915050565b7f4e487b7100000000000000000000000000000000000000000000000000000000600052602260045260246000fd5b600060028204905060018216806139ad57607f821691505b602082108114156139c1576139c0613966565b5b50919050565b7f4e487b7100000000000000000000000000000000000000000000000000000000600052603260045260246000fd5b7f4e487b7100000000000000000000000000000000000000000000000000000000600052601160045260246000fd5b6000613a3082612fdf565b91507fffffffffffffffffffffffffffffffffffffffffffffffffffffffffffffffff821415613a6357613a626139f6565b5b600182019050919050565b6000613a7982612fdf565b9150613a8483612fdf565b9250827fffffffffffffffffffffffffffffffffffffffffffffffffffffffffffffffff03821115613ab957613ab86139f6565b5b828201905092915050565b6000613acf82612fdf565b9150613ada83612fdf565b925082821015613aed57613aec6139f6565b5b82820390509291505056fea26469706673582212204f217683bf9b3efc87fc8bc020e52c477fc45686000ca0e300209267c7a991dc64736f6c634300080b0033",
  "immutableReferences": {},
  "source": "pragma solidity ^0.8.4;\n\ncontract GeneSlimeMoldAlpha{\n    //\n    struct GeneHolder{\n        uint[] gene_mining_data_id_list;\n        uint[] use_event_id_list;\n        mapping(address => bool)block_address_list;\n    }\n\n    //\n    struct GeneMiner{\n        uint[] mined_gene_mining_data_id_list;\n        bool is_available;\n    }\n\n    //\n    struct UseEventMaker{\n        uint[] use_event_id_list;\n        bool is_available;\n    }\n\n    //\n    struct UseEvent{\n        uint id;\n        address event_owner_address;\n        string description;\n        address payable offer_to_address;\n        uint gene_data_id;\n        uint pay_amount;\n        bool is_approved;\n        bool is_blocked;\n        bool is_executed;\n    }\n    \n    //\n    struct GeneMiningData{\n        uint id;\n        string url;\n        string description;\n        address gene_holder_address;\n        address miner_address;\n        bool is_accepted_by_holder;\n        bool is_blocked_by_holder;\n        uint used_count;\n    }\n\n    //\n    string public coin_name = \"GeneCoin\";\n    string public symbol = \"GC\";\n\n    mapping(address => uint) public balances; //\n    mapping(address => GeneHolder) private gene_holder_list; //\n    mapping(address => GeneMiner) private gene_miner_list; //\n    mapping(address => UseEventMaker) private use_event_maker_list; //\n\n    GeneMiningData[] public gene_mining_data_list; //\n    UseEvent[] public use_event_list; //use event\n\n    address public supervisor; //\n    uint public miner_used_bonus = 10; //\n\n    constructor() public payable {\n        supervisor = msg.sender; //\n    }\n\n/*gene holder*/\n    //\n    function add_block_list(address block_address) public{\n        gene_holder_list[msg.sender].block_address_list[block_address] = true;\n    }\n\n    function remove_block_list(address block_address) public{\n        gene_holder_list[msg.sender].block_address_list[block_address] = false;\n    }\n\n/*gene miner*/\n    function generate_gene_miner(address miner_address) public {\n        require(supervisor == msg.sender);//\n        gene_miner_list[miner_address].is_available = true;\n    }\n\n    function invalidate_gene_miner(address miner_address) public {\n        require(supervisor == msg.sender);//\n        gene_miner_list[miner_address].is_available = false; \n    }\n\n/* use event maker */\n    function generate_use_event_maker(address use_event_maker_address) public {\n        require(supervisor == msg.sender);//\n        use_event_maker_list[use_event_maker_address].is_available = true;\n    }\n\n    function invalidate_use_event_maker(address use_event_maker_address) public {\n        require(supervisor == msg.sender);//\n        use_event_maker_list[use_event_maker_address].is_available = false; \n    }\n\n/* */\n    //use event maker use event \n    function generate_use_event(string memory description, address payable offer_to_address, uint gene_data_id, uint payment) public {\n        //require(use_event_maker_list[msg.sender].is_available);//event maker\n        require(gene_holder_list[offer_to_address].block_address_list[msg.sender] == false);//\n        require(gene_mining_data_list[gene_data_id].gene_holder_address == offer_to_address);//\n        uint id = use_event_list.length;\n        \n        use_event_list.push(UseEvent(id, msg.sender, description, offer_to_address, gene_data_id, payment, false, false, false)); // use_event_listuse eventid\n        use_event_maker_list[msg.sender].use_event_id_list.push(id); //use_event_listid\n\n        gene_holder_list[offer_to_address].use_event_id_list.push(id);//gene holderid\n    }\n    \n    //use event\n    function approve_use_event_offer(uint use_event_id) public{\n        require(use_event_list[use_event_id].offer_to_address == msg.sender);\n        require(gene_mining_data_list[use_event_list[use_event_id].gene_data_id].gene_holder_address == msg.sender);\n        use_event_list[use_event_id].is_approved = true;\n        use_event_list[use_event_id].is_blocked = false;\n    }\n\n    //use event\n    function block_use_event_offer(uint use_event_id) public{\n        require(use_event_list[use_event_id].offer_to_address == msg.sender);\n        require(gene_mining_data_list[use_event_list[use_event_id].gene_data_id].gene_holder_address == msg.sender);\n        use_event_list[use_event_id].is_blocked = true;\n        use_event_list[use_event_id].is_approved = false;\n    }\n\n/**/\n    //\n    function balanceOf() public view returns (uint) {\n        return (balances[msg.sender]);\n    }\n    //msg.sender\n    function transfer(address _to, uint256 _value) public {\n        require(_value <= balances[msg.sender]);\n\n        balances[msg.sender] -= _value;\n        balances[_to] += _value;\n    }\n    \n    //SuperVisor\n    function supervisorTransfer(address _to, uint256 _value) public{\n        require(supervisor == msg.sender);\n        balances[_to] += _value;\n\n\n    }\n/**/\n\n    //\n    function balance_to(address payable reciever_address, uint pay_amount) public payable{\n        reciever_address.transfer(pay_amount);\n    }\n\n    //use event\n    function execute_use_event(uint use_event_id)public{\n        require(use_event_list[use_event_id].event_owner_address == msg.sender);\n        require(use_event_list[use_event_id].is_executed == false);        \n        require(use_event_list[use_event_id].is_approved);\n        //require(use_event_list[use_event_id].pay_amount <= address(this).balance);\n        //balance_to(use_event_list[use_event_id].offer_to_address, use_event_list[use_event_id].pay_amount);\n        use_event_list[use_event_id].is_executed = true;\n\n        transfer(use_event_list[use_event_id].offer_to_address, use_event_list[use_event_id].pay_amount);\n        transfer(gene_mining_data_list[use_event_list[use_event_id].gene_data_id].miner_address, miner_used_bonus);\n        gene_mining_data_list[use_event_list[use_event_id].gene_data_id].used_count += 1;\n    }\n\n/**/\n    //\n    function register_mining_gene(address gene_holder_address, string memory gene_url, string memory description) public {\n        //require(gene_miner_list[msg.sender].is_available);\n        require(gene_holder_list[gene_holder_address].block_address_list[msg.sender] == false);//\n        uint id = gene_mining_data_list.length;\n\n        gene_mining_data_list.push(GeneMiningData(id, gene_url, description, gene_holder_address, msg.sender, false, false, 0));\n        gene_holder_list[gene_holder_address].gene_mining_data_id_list.push(id);\n        gene_miner_list[msg.sender].mined_gene_mining_data_id_list.push(id);\n    }\n    \n    //\n    function accept_mining_gene(uint gene_mining_data_id) public {\n        require(gene_mining_data_list[gene_mining_data_id].gene_holder_address == msg.sender);\n        gene_mining_data_list[gene_mining_data_id].is_blocked_by_holder = false;\n        gene_mining_data_list[gene_mining_data_id].is_accepted_by_holder = true;\n        \n    }\n\n    //\n    function blocked_mining_gene(uint gene_mining_data_id) public {\n        require(gene_mining_data_list[gene_mining_data_id].gene_holder_address == msg.sender);\n        gene_mining_data_list[gene_mining_data_id].is_accepted_by_holder = false;\n        gene_mining_data_list[gene_mining_data_id].is_blocked_by_holder = true;\n    }\n\n    \n/**/\n    //\n    function request_my_account_address() public view returns(address){\n        return msg.sender;\n    }\n\n    //\n    function request_own_gene_mining_data_list() external view returns(GeneMiningData[] memory){\n        uint array_length = gene_holder_list[msg.sender].gene_mining_data_id_list.length;  \n        GeneMiningData[] memory own_gene_mining_data_list = new GeneMiningData[](array_length);\n\n        for(uint i = 0; i < array_length; i++){\n            own_gene_mining_data_list[i] = gene_mining_data_list[gene_holder_list[msg.sender].gene_mining_data_id_list[i]];\n        }\n\n        return own_gene_mining_data_list;\n    }\n\n    //use event\n    function request_own_use_event_list() external view returns(UseEvent[] memory){\n        uint array_length = gene_holder_list[msg.sender].use_event_id_list.length;\n        UseEvent[] memory own_use_event_list = new UseEvent[](array_length);\n        \n        for(uint i = 0; i < array_length; i++){\n            own_use_event_list[i] = use_event_list[gene_holder_list[msg.sender].use_event_id_list[i]];\n        }\n\n        return own_use_event_list;\n    }\n\n    //\n    function request_own_mined_gene_mining_data_list() external view returns(GeneMiningData[] memory){\n        uint array_length = gene_miner_list[msg.sender].mined_gene_mining_data_id_list.length;\n        GeneMiningData[] memory own_mined_gene_mining_data_list = new GeneMiningData[](array_length);\n        \n        for(uint i = 0; i < array_length; i++){\n            own_mined_gene_mining_data_list[i] = gene_mining_data_list[gene_miner_list[msg.sender].mined_gene_mining_data_id_list[i]];\n        }\n\n        return own_mined_gene_mining_data_list;\n    }\n\n    //use event\n    function request_own_made_use_event_list() external view returns(UseEvent[] memory){\n        uint array_length = use_event_maker_list[msg.sender].use_event_id_list.length;\n        UseEvent[] memory own_use_event_list = new UseEvent[](array_length);\n\n        for(uint i = 0; i < array_length; i++){\n            own_use_event_list[i] = use_event_list[use_event_maker_list[msg.sender].use_event_id_list[i]];\n        }\n\n        return own_use_event_list;\n    }\n\n}",
  "sourcePath": "C:\\Users\\okuda\\OneDrive\\\\gitRepository\\SecHack365GeneSlimeMold\\SecHack365GeneSlimeMold\\contracts\\GeneSlimeMoldAlpha.sol",
  "compiler": {
    "name": "solc",
    "version": "0.8.11+commit.d7f03943.Emscripten.clang"
  },
  "schemaVersion": "3.4.3",
  "updatedAt": "2022-01-17T20:22:47.130Z",
  "networkType": "ethereum",
  "devdoc": {
    "kind": "dev",
    "methods": {},
    "version": 1
  },
  "userdoc": {
    "kind": "user",
    "methods": {},
    "version": 1
  }
}