{
  "contractName": "GeneSlimeMoldAlpha",
  "abi": [
    {
      "inputs": [],
      "stateMutability": "nonpayable",
      "type": "constructor"
    },
    {
      "inputs": [
        {
          "internalType": "uint256",
          "name": "",
          "type": "uint256"
        }
      ],
      "name": "gene_mining_data_list",
      "outputs": [
        {
          "internalType": "string",
          "name": "url",
          "type": "string"
        },
        {
          "internalType": "string",
          "name": "description",
          "type": "string"
        },
        {
          "internalType": "address",
          "name": "gene_holder_address",
          "type": "address"
        },
        {
          "internalType": "address",
          "name": "miner_address",
          "type": "address"
        },
        {
          "internalType": "bool",
          "name": "is_accepted_by_holder",
          "type": "bool"
        },
        {
          "internalType": "bool",
          "name": "is_blocked_by_holder",
          "type": "bool"
        }
      ],
      "stateMutability": "view",
      "type": "function",
      "constant": true
    },
    {
      "inputs": [],
      "name": "supervisor",
      "outputs": [
        {
          "internalType": "address",
          "name": "",
          "type": "address"
        }
      ],
      "stateMutability": "view",
      "type": "function",
      "constant": true
    },
    {
      "inputs": [
        {
          "internalType": "uint256",
          "name": "",
          "type": "uint256"
        }
      ],
      "name": "use_event_list",
      "outputs": [
        {
          "internalType": "address",
          "name": "event_owner_address",
          "type": "address"
        },
        {
          "internalType": "string",
          "name": "description",
          "type": "string"
        },
        {
          "internalType": "address payable",
          "name": "offer_to_address",
          "type": "address"
        },
        {
          "internalType": "uint256",
          "name": "pay_amount",
          "type": "uint256"
        },
        {
          "internalType": "bool",
          "name": "is_approved",
          "type": "bool"
        },
        {
          "internalType": "bool",
          "name": "is_blocked",
          "type": "bool"
        },
        {
          "internalType": "bool",
          "name": "is_executed",
          "type": "bool"
        }
      ],
      "stateMutability": "view",
      "type": "function",
      "constant": true
    },
    {
      "inputs": [
        {
          "internalType": "address",
          "name": "block_address",
          "type": "address"
        }
      ],
      "name": "add_block_list",
      "outputs": [],
      "stateMutability": "nonpayable",
      "type": "function"
    },
    {
      "inputs": [
        {
          "internalType": "address",
          "name": "block_address",
          "type": "address"
        }
      ],
      "name": "remove_block_list",
      "outputs": [],
      "stateMutability": "nonpayable",
      "type": "function"
    },
    {
      "inputs": [
        {
          "internalType": "address",
          "name": "miner_address",
          "type": "address"
        }
      ],
      "name": "generate_gene_miner",
      "outputs": [],
      "stateMutability": "nonpayable",
      "type": "function"
    },
    {
      "inputs": [
        {
          "internalType": "address",
          "name": "miner_address",
          "type": "address"
        }
      ],
      "name": "invalidate_gene_miner",
      "outputs": [],
      "stateMutability": "nonpayable",
      "type": "function"
    },
    {
      "inputs": [
        {
          "internalType": "address",
          "name": "use_event_maker_address",
          "type": "address"
        }
      ],
      "name": "generate_use_event_maker",
      "outputs": [],
      "stateMutability": "nonpayable",
      "type": "function"
    },
    {
      "inputs": [
        {
          "internalType": "address",
          "name": "use_event_maker_address",
          "type": "address"
        }
      ],
      "name": "invalidate_use_event_maker",
      "outputs": [],
      "stateMutability": "nonpayable",
      "type": "function"
    },
    {
      "inputs": [
        {
          "internalType": "string",
          "name": "description",
          "type": "string"
        },
        {
          "internalType": "address payable",
          "name": "offer_to_address",
          "type": "address"
        },
        {
          "internalType": "uint256",
          "name": "payment",
          "type": "uint256"
        }
      ],
      "name": "generate_use_event",
      "outputs": [],
      "stateMutability": "nonpayable",
      "type": "function"
    },
    {
      "inputs": [
        {
          "internalType": "uint256",
          "name": "use_event_id",
          "type": "uint256"
        }
      ],
      "name": "approve_use_event_offer",
      "outputs": [],
      "stateMutability": "nonpayable",
      "type": "function"
    },
    {
      "inputs": [
        {
          "internalType": "uint256",
          "name": "use_event_id",
          "type": "uint256"
        }
      ],
      "name": "block_use_event_offer",
      "outputs": [],
      "stateMutability": "nonpayable",
      "type": "function"
    },
    {
      "inputs": [
        {
          "internalType": "address payable",
          "name": "reciever_address",
          "type": "address"
        },
        {
          "internalType": "uint256",
          "name": "pay_amount",
          "type": "uint256"
        }
      ],
      "name": "balance_to",
      "outputs": [],
      "stateMutability": "payable",
      "type": "function",
      "payable": true
    },
    {
      "inputs": [
        {
          "internalType": "uint256",
          "name": "use_event_id",
          "type": "uint256"
        }
      ],
      "name": "execute_use_event",
      "outputs": [],
      "stateMutability": "nonpayable",
      "type": "function"
    },
    {
      "inputs": [
        {
          "internalType": "address",
          "name": "gene_holder_address",
          "type": "address"
        },
        {
          "internalType": "string",
          "name": "gene_url",
          "type": "string"
        },
        {
          "internalType": "string",
          "name": "description",
          "type": "string"
        }
      ],
      "name": "register_mining_gene",
      "outputs": [],
      "stateMutability": "nonpayable",
      "type": "function"
    },
    {
      "inputs": [
        {
          "internalType": "uint256",
          "name": "gene_mining_data_id",
          "type": "uint256"
        }
      ],
      "name": "accept_mining_gene",
      "outputs": [],
      "stateMutability": "nonpayable",
      "type": "function"
    },
    {
      "inputs": [
        {
          "internalType": "uint256",
          "name": "gene_mining_data_id",
          "type": "uint256"
        }
      ],
      "name": "blocked_mining_gene",
      "outputs": [],
      "stateMutability": "nonpayable",
      "type": "function"
    },
    {
      "inputs": [],
      "name": "request_own_gene_mining_data_list",
      "outputs": [
        {
          "components": [
            {
              "internalType": "string",
              "name": "url",
              "type": "string"
            },
            {
              "internalType": "string",
              "name": "description",
              "type": "string"
            },
            {
              "internalType": "address",
              "name": "gene_holder_address",
              "type": "address"
            },
            {
              "internalType": "address",
              "name": "miner_address",
              "type": "address"
            },
            {
              "internalType": "bool",
              "name": "is_accepted_by_holder",
              "type": "bool"
            },
            {
              "internalType": "bool",
              "name": "is_blocked_by_holder",
              "type": "bool"
            }
          ],
          "internalType": "struct GeneSlimeMoldAlpha.GeneMiningData[]",
          "name": "",
          "type": "tuple[]"
        }
      ],
      "stateMutability": "view",
      "type": "function",
      "constant": true
    },
    {
      "inputs": [],
      "name": "request_own_use_event_list",
      "outputs": [
        {
          "components": [
            {
              "internalType": "address",
              "name": "event_owner_address",
              "type": "address"
            },
            {
              "internalType": "string",
              "name": "description",
              "type": "string"
            },
            {
              "internalType": "address payable",
              "name": "offer_to_address",
              "type": "address"
            },
            {
              "internalType": "uint256",
              "name": "pay_amount",
              "type": "uint256"
            },
            {
              "internalType": "bool",
              "name": "is_approved",
              "type": "bool"
            },
            {
              "internalType": "bool",
              "name": "is_blocked",
              "type": "bool"
            },
            {
              "internalType": "bool",
              "name": "is_executed",
              "type": "bool"
            }
          ],
          "internalType": "struct GeneSlimeMoldAlpha.UseEvent[]",
          "name": "",
          "type": "tuple[]"
        }
      ],
      "stateMutability": "view",
      "type": "function",
      "constant": true
    },
    {
      "inputs": [],
      "name": "request_own_mined_gene_mining_data_list",
      "outputs": [
        {
          "components": [
            {
              "internalType": "string",
              "name": "url",
              "type": "string"
            },
            {
              "internalType": "string",
              "name": "description",
              "type": "string"
            },
            {
              "internalType": "address",
              "name": "gene_holder_address",
              "type": "address"
            },
            {
              "internalType": "address",
              "name": "miner_address",
              "type": "address"
            },
            {
              "internalType": "bool",
              "name": "is_accepted_by_holder",
              "type": "bool"
            },
            {
              "internalType": "bool",
              "name": "is_blocked_by_holder",
              "type": "bool"
            }
          ],
          "internalType": "struct GeneSlimeMoldAlpha.GeneMiningData[]",
          "name": "",
          "type": "tuple[]"
        }
      ],
      "stateMutability": "view",
      "type": "function",
      "constant": true
    },
    {
      "inputs": [],
      "name": "request_own_made_use_event_list",
      "outputs": [
        {
          "components": [
            {
              "internalType": "address",
              "name": "event_owner_address",
              "type": "address"
            },
            {
              "internalType": "string",
              "name": "description",
              "type": "string"
            },
            {
              "internalType": "address payable",
              "name": "offer_to_address",
              "type": "address"
            },
            {
              "internalType": "uint256",
              "name": "pay_amount",
              "type": "uint256"
            },
            {
              "internalType": "bool",
              "name": "is_approved",
              "type": "bool"
            },
            {
              "internalType": "bool",
              "name": "is_blocked",
              "type": "bool"
            },
            {
              "internalType": "bool",
              "name": "is_executed",
              "type": "bool"
            }
          ],
          "internalType": "struct GeneSlimeMoldAlpha.UseEvent[]",
          "name": "",
          "type": "tuple[]"
        }
      ],
      "stateMutability": "view",
      "type": "function",
      "constant": true
    }
  ],
  "bytecode": "0x608060405234801561001057600080fd5b5033600660006101000a81548173ffffffffffffffffffffffffffffffffffffffff021916908373ffffffffffffffffffffffffffffffffffffffff160217905550612f6c806100616000396000f3fe60806040526004361061012a5760003560e01c806388df39fb116100ab578063bbb0d9261161006f578063bbb0d926146103c2578063c3cb0965146103eb578063d417bd5714610414578063dad7aa5f1461043f578063f38a36a414610468578063f4092aec146104935761012a565b806388df39fb146103025780638cf005e71461032b578063a1ea130414610354578063b06355c514610370578063b7082e04146103995761012a565b806356e4b68b116100f257806356e4b68b146102175780635a8515ea1461024257806374632b861461026d57806379fed66014610296578063821dc23f146102bf5761012a565b80630b6d7b0e1461012f57806314a8ba97146101585780631af12f961461019a5780633fbeb5da146101c357806348d3d7a0146101ec575b600080fd5b34801561013b57600080fd5b5061015660048036038101906101519190612596565b6104bc565b005b34801561016457600080fd5b5061017f600480360381019061017a91906125f9565b610556565b604051610191969594939291906126e9565b60405180910390f35b3480156101a657600080fd5b506101c160048036038101906101bc91906128cb565b61070c565b005b3480156101cf57600080fd5b506101ea60048036038101906101e59190612596565b610a8c565b005b3480156101f857600080fd5b50610201610b44565b60405161020e9190612b1e565b60405180910390f35b34801561022357600080fd5b5061022c610e02565b6040516102399190612b40565b60405180910390f35b34801561024e57600080fd5b50610257610e28565b6040516102649190612b1e565b60405180910390f35b34801561027957600080fd5b50610294600480360381019061028f9190612596565b6110e5565b005b3480156102a257600080fd5b506102bd60048036038101906102b891906125f9565b61119c565b005b3480156102cb57600080fd5b506102e660048036038101906102e191906125f9565b611298565b6040516102f99796959493929190612b79565b60405180910390f35b34801561030e57600080fd5b5061032960048036038101906103249190612596565b6113d9565b005b34801561033757600080fd5b50610352600480360381019061034d9190612596565b611473565b005b61036e60048036038101906103699190612bef565b61152b565b005b34801561037c57600080fd5b50610397600480360381019061039291906125f9565b611576565b005b3480156103a557600080fd5b506103c060048036038101906103bb91906125f9565b611672565b005b3480156103ce57600080fd5b506103e960048036038101906103e491906125f9565b611812565b005b3480156103f757600080fd5b50610412600480360381019061040d9190612c2f565b61190e565b005b34801561042057600080fd5b50610429611c78565b6040516104369190612e0c565b60405180910390f35b34801561044b57600080fd5b5061046660048036038101906104619190612596565b611fa2565b005b34801561047457600080fd5b5061047d61205a565b60405161048a9190612e0c565b60405180910390f35b34801561049f57600080fd5b506104ba60048036038101906104b591906125f9565b612385565b005b60008060003373ffffffffffffffffffffffffffffffffffffffff1673ffffffffffffffffffffffffffffffffffffffff16815260200190815260200160002060020160008373ffffffffffffffffffffffffffffffffffffffff1673ffffffffffffffffffffffffffffffffffffffff16815260200190815260200160002060006101000a81548160ff02191690831515021790555050565b6004818154811061056657600080fd5b906000526020600020906004020160009150905080600001805461058990612e5d565b80601f01602080910402602001604051908101604052809291908181526020018280546105b590612e5d565b80156106025780601f106105d757610100808354040283529160200191610602565b820191906000526020600020905b8154815290600101906020018083116105e557829003601f168201915b50505050509080600101805461061790612e5d565b80601f016020809104026020016040519081016040528092919081815260200182805461064390612e5d565b80156106905780601f1061066557610100808354040283529160200191610690565b820191906000526020600020905b81548152906001019060200180831161067357829003601f168201915b5050505050908060020160009054906101000a900473ffffffffffffffffffffffffffffffffffffffff16908060030160009054906101000a900473ffffffffffffffffffffffffffffffffffffffff16908060030160149054906101000a900460ff16908060030160159054906101000a900460ff16905086565b600260003373ffffffffffffffffffffffffffffffffffffffff1673ffffffffffffffffffffffffffffffffffffffff16815260200190815260200160002060010160009054906101000a900460ff1661076557600080fd5b600015156000808473ffffffffffffffffffffffffffffffffffffffff1673ffffffffffffffffffffffffffffffffffffffff16815260200190815260200160002060020160003373ffffffffffffffffffffffffffffffffffffffff1673ffffffffffffffffffffffffffffffffffffffff16815260200190815260200160002060009054906101000a900460ff1615151461080157600080fd5b6000600380549050905060036040518060e001604052803373ffffffffffffffffffffffffffffffffffffffff1681526020018681526020018573ffffffffffffffffffffffffffffffffffffffff16815260200184815260200160001515815260200160001515815260200160001515815250908060018154018082558091505060019003906000526020600020906005020160009091909190915060008201518160000160006101000a81548173ffffffffffffffffffffffffffffffffffffffff021916908373ffffffffffffffffffffffffffffffffffffffff1602179055506020820151816001019080519060200190610901929190612481565b5060408201518160020160006101000a81548173ffffffffffffffffffffffffffffffffffffffff021916908373ffffffffffffffffffffffffffffffffffffffff1602179055506060820151816003015560808201518160040160006101000a81548160ff02191690831515021790555060a08201518160040160016101000a81548160ff02191690831515021790555060c08201518160040160026101000a81548160ff0219169083151502179055505050600260003373ffffffffffffffffffffffffffffffffffffffff1673ffffffffffffffffffffffffffffffffffffffff1681526020019081526020016000206000018190806001815401808255809150506001900390600052602060002001600090919091909150556000808473ffffffffffffffffffffffffffffffffffffffff1673ffffffffffffffffffffffffffffffffffffffff16815260200190815260200160002060010181908060018154018082558091505060019003906000526020600020016000909190919091505550505050565b3373ffffffffffffffffffffffffffffffffffffffff16600660009054906101000a900473ffffffffffffffffffffffffffffffffffffffff1673ffffffffffffffffffffffffffffffffffffffff1614610ae657600080fd5b6000600160008373ffffffffffffffffffffffffffffffffffffffff1673ffffffffffffffffffffffffffffffffffffffff16815260200190815260200160002060010160006101000a81548160ff02191690831515021790555050565b6060806060600260003373ffffffffffffffffffffffffffffffffffffffff1673ffffffffffffffffffffffffffffffffffffffff168152602001908152602001600020600001805480602002602001604051908101604052809291908181526020018280548015610bd557602002820191906000526020600020905b815481526020019060010190808311610bc1575b5050505050915060005b8251811015610df9576003838281518110610bfd57610bfc612e8f565b5b602002602001015181548110610c1657610c15612e8f565b5b90600052602060002090600502016040518060e00160405290816000820160009054906101000a900473ffffffffffffffffffffffffffffffffffffffff1673ffffffffffffffffffffffffffffffffffffffff1673ffffffffffffffffffffffffffffffffffffffff168152602001600182018054610c9590612e5d565b80601f0160208091040260200160405190810160405280929190818152602001828054610cc190612e5d565b8015610d0e5780601f10610ce357610100808354040283529160200191610d0e565b820191906000526020600020905b815481529060010190602001808311610cf157829003601f168201915b505050505081526020016002820160009054906101000a900473ffffffffffffffffffffffffffffffffffffffff1673ffffffffffffffffffffffffffffffffffffffff1673ffffffffffffffffffffffffffffffffffffffff168152602001600382015481526020016004820160009054906101000a900460ff161515151581526020016004820160019054906101000a900460ff161515151581526020016004820160029054906101000a900460ff161515151581525050828281518110610ddb57610dda612e8f565b5b60200260200101819052508080610df190612eed565b915050610bdf565b50809250505090565b600660009054906101000a900473ffffffffffffffffffffffffffffffffffffffff1681565b60608060606000803373ffffffffffffffffffffffffffffffffffffffff1673ffffffffffffffffffffffffffffffffffffffff168152602001908152602001600020600101805480602002602001604051908101604052809291908181526020018280548015610eb857602002820191906000526020600020905b815481526020019060010190808311610ea4575b5050505050915060005b82518110156110dc576003838281518110610ee057610edf612e8f565b5b602002602001015181548110610ef957610ef8612e8f565b5b90600052602060002090600502016040518060e00160405290816000820160009054906101000a900473ffffffffffffffffffffffffffffffffffffffff1673ffffffffffffffffffffffffffffffffffffffff1673ffffffffffffffffffffffffffffffffffffffff168152602001600182018054610f7890612e5d565b80601f0160208091040260200160405190810160405280929190818152602001828054610fa490612e5d565b8015610ff15780601f10610fc657610100808354040283529160200191610ff1565b820191906000526020600020905b815481529060010190602001808311610fd457829003601f168201915b505050505081526020016002820160009054906101000a900473ffffffffffffffffffffffffffffffffffffffff1673ffffffffffffffffffffffffffffffffffffffff1673ffffffffffffffffffffffffffffffffffffffff168152602001600382015481526020016004820160009054906101000a900460ff161515151581526020016004820160019054906101000a900460ff161515151581526020016004820160029054906101000a900460ff1615151515815250508282815181106110be576110bd612e8f565b5b602002602001018190525080806110d490612eed565b915050610ec2565b50809250505090565b3373ffffffffffffffffffffffffffffffffffffffff16600660009054906101000a900473ffffffffffffffffffffffffffffffffffffffff1673ffffffffffffffffffffffffffffffffffffffff161461113f57600080fd5b60018060008373ffffffffffffffffffffffffffffffffffffffff1673ffffffffffffffffffffffffffffffffffffffff16815260200190815260200160002060010160006101000a81548160ff02191690831515021790555050565b3373ffffffffffffffffffffffffffffffffffffffff16600482815481106111c7576111c6612e8f565b5b906000526020600020906004020160020160009054906101000a900473ffffffffffffffffffffffffffffffffffffffff1673ffffffffffffffffffffffffffffffffffffffff161461121957600080fd5b60006004828154811061122f5761122e612e8f565b5b906000526020600020906004020160030160146101000a81548160ff02191690831515021790555060016004828154811061126d5761126c612e8f565b5b906000526020600020906004020160030160156101000a81548160ff02191690831515021790555050565b600381815481106112a857600080fd5b90600052602060002090600502016000915090508060000160009054906101000a900473ffffffffffffffffffffffffffffffffffffffff16908060010180546112f190612e5d565b80601f016020809104026020016040519081016040528092919081815260200182805461131d90612e5d565b801561136a5780601f1061133f5761010080835404028352916020019161136a565b820191906000526020600020905b81548152906001019060200180831161134d57829003601f168201915b5050505050908060020160009054906101000a900473ffffffffffffffffffffffffffffffffffffffff16908060030154908060040160009054906101000a900460ff16908060040160019054906101000a900460ff16908060040160029054906101000a900460ff16905087565b60016000803373ffffffffffffffffffffffffffffffffffffffff1673ffffffffffffffffffffffffffffffffffffffff16815260200190815260200160002060020160008373ffffffffffffffffffffffffffffffffffffffff1673ffffffffffffffffffffffffffffffffffffffff16815260200190815260200160002060006101000a81548160ff02191690831515021790555050565b3373ffffffffffffffffffffffffffffffffffffffff16600660009054906101000a900473ffffffffffffffffffffffffffffffffffffffff1673ffffffffffffffffffffffffffffffffffffffff16146114cd57600080fd5b6001600260008373ffffffffffffffffffffffffffffffffffffffff1673ffffffffffffffffffffffffffffffffffffffff16815260200190815260200160002060010160006101000a81548160ff02191690831515021790555050565b8173ffffffffffffffffffffffffffffffffffffffff166108fc829081150290604051600060405180830381858888f19350505050158015611571573d6000803e3d6000fd5b505050565b3373ffffffffffffffffffffffffffffffffffffffff16600482815481106115a1576115a0612e8f565b5b906000526020600020906004020160020160009054906101000a900473ffffffffffffffffffffffffffffffffffffffff1673ffffffffffffffffffffffffffffffffffffffff16146115f357600080fd5b60006004828154811061160957611608612e8f565b5b906000526020600020906004020160030160156101000a81548160ff02191690831515021790555060016004828154811061164757611646612e8f565b5b906000526020600020906004020160030160146101000a81548160ff02191690831515021790555050565b3373ffffffffffffffffffffffffffffffffffffffff166003828154811061169d5761169c612e8f565b5b906000526020600020906005020160000160009054906101000a900473ffffffffffffffffffffffffffffffffffffffff1673ffffffffffffffffffffffffffffffffffffffff16146116ef57600080fd5b6003818154811061170357611702612e8f565b5b906000526020600020906005020160040160009054906101000a900460ff1661172b57600080fd5b47600382815481106117405761173f612e8f565b5b906000526020600020906005020160030154111561175d57600080fd5b6117d16003828154811061177457611773612e8f565b5b906000526020600020906005020160020160009054906101000a900473ffffffffffffffffffffffffffffffffffffffff16600383815481106117ba576117b9612e8f565b5b90600052602060002090600502016003015461152b565b6001600382815481106117e7576117e6612e8f565b5b906000526020600020906005020160040160026101000a81548160ff02191690831515021790555050565b3373ffffffffffffffffffffffffffffffffffffffff166003828154811061183d5761183c612e8f565b5b906000526020600020906005020160020160009054906101000a900473ffffffffffffffffffffffffffffffffffffffff1673ffffffffffffffffffffffffffffffffffffffff161461188f57600080fd5b6001600382815481106118a5576118a4612e8f565b5b906000526020600020906005020160040160016101000a81548160ff0219169083151502179055506000600382815481106118e3576118e2612e8f565b5b906000526020600020906005020160040160006101000a81548160ff02191690831515021790555050565b600160003373ffffffffffffffffffffffffffffffffffffffff1673ffffffffffffffffffffffffffffffffffffffff16815260200190815260200160002060010160009054906101000a900460ff1661196757600080fd5b600015156000808573ffffffffffffffffffffffffffffffffffffffff1673ffffffffffffffffffffffffffffffffffffffff16815260200190815260200160002060020160003373ffffffffffffffffffffffffffffffffffffffff1673ffffffffffffffffffffffffffffffffffffffff16815260200190815260200160002060009054906101000a900460ff16151514611a0357600080fd5b6000600480549050905060046040518060c001604052808581526020018481526020018673ffffffffffffffffffffffffffffffffffffffff1681526020013373ffffffffffffffffffffffffffffffffffffffff1681526020016000151581526020016000151581525090806001815401808255809150506001900390600052602060002090600402016000909190919091506000820151816000019080519060200190611ab3929190612481565b506020820151816001019080519060200190611ad0929190612481565b5060408201518160020160006101000a81548173ffffffffffffffffffffffffffffffffffffffff021916908373ffffffffffffffffffffffffffffffffffffffff16021790555060608201518160030160006101000a81548173ffffffffffffffffffffffffffffffffffffffff021916908373ffffffffffffffffffffffffffffffffffffffff16021790555060808201518160030160146101000a81548160ff02191690831515021790555060a08201518160030160156101000a81548160ff02191690831515021790555050506000808573ffffffffffffffffffffffffffffffffffffffff1673ffffffffffffffffffffffffffffffffffffffff168152602001908152602001600020600001819080600181540180825580915050600190039060005260206000200160009091909190915055600160003373ffffffffffffffffffffffffffffffffffffffff1673ffffffffffffffffffffffffffffffffffffffff16815260200190815260200160002060000181908060018154018082558091505060019003906000526020600020016000909190919091505550505050565b60608060606000803373ffffffffffffffffffffffffffffffffffffffff1673ffffffffffffffffffffffffffffffffffffffff168152602001908152602001600020600001805480602002602001604051908101604052809291908181526020018280548015611d0857602002820191906000526020600020905b815481526020019060010190808311611cf4575b5050505050915060005b8251811015611f99576004838281518110611d3057611d2f612e8f565b5b602002602001015181548110611d4957611d48612e8f565b5b90600052602060002090600402016040518060c0016040529081600082018054611d7290612e5d565b80601f0160208091040260200160405190810160405280929190818152602001828054611d9e90612e5d565b8015611deb5780601f10611dc057610100808354040283529160200191611deb565b820191906000526020600020905b815481529060010190602001808311611dce57829003601f168201915b50505050508152602001600182018054611e0490612e5d565b80601f0160208091040260200160405190810160405280929190818152602001828054611e3090612e5d565b8015611e7d5780601f10611e5257610100808354040283529160200191611e7d565b820191906000526020600020905b815481529060010190602001808311611e6057829003601f168201915b505050505081526020016002820160009054906101000a900473ffffffffffffffffffffffffffffffffffffffff1673ffffffffffffffffffffffffffffffffffffffff1673ffffffffffffffffffffffffffffffffffffffff1681526020016003820160009054906101000a900473ffffffffffffffffffffffffffffffffffffffff1673ffffffffffffffffffffffffffffffffffffffff1673ffffffffffffffffffffffffffffffffffffffff1681526020016003820160149054906101000a900460ff161515151581526020016003820160159054906101000a900460ff161515151581525050828281518110611f7b57611f7a612e8f565b5b60200260200101819052508080611f9190612eed565b915050611d12565b50809250505090565b3373ffffffffffffffffffffffffffffffffffffffff16600660009054906101000a900473ffffffffffffffffffffffffffffffffffffffff1673ffffffffffffffffffffffffffffffffffffffff1614611ffc57600080fd5b6000600260008373ffffffffffffffffffffffffffffffffffffffff1673ffffffffffffffffffffffffffffffffffffffff16815260200190815260200160002060010160006101000a81548160ff02191690831515021790555050565b6060806060600160003373ffffffffffffffffffffffffffffffffffffffff1673ffffffffffffffffffffffffffffffffffffffff1681526020019081526020016000206000018054806020026020016040519081016040528092919081815260200182805480156120eb57602002820191906000526020600020905b8154815260200190600101908083116120d7575b5050505050915060005b825181101561237c57600483828151811061211357612112612e8f565b5b60200260200101518154811061212c5761212b612e8f565b5b90600052602060002090600402016040518060c001604052908160008201805461215590612e5d565b80601f016020809104026020016040519081016040528092919081815260200182805461218190612e5d565b80156121ce5780601f106121a3576101008083540402835291602001916121ce565b820191906000526020600020905b8154815290600101906020018083116121b157829003601f168201915b505050505081526020016001820180546121e790612e5d565b80601f016020809104026020016040519081016040528092919081815260200182805461221390612e5d565b80156122605780601f1061223557610100808354040283529160200191612260565b820191906000526020600020905b81548152906001019060200180831161224357829003601f168201915b505050505081526020016002820160009054906101000a900473ffffffffffffffffffffffffffffffffffffffff1673ffffffffffffffffffffffffffffffffffffffff1673ffffffffffffffffffffffffffffffffffffffff1681526020016003820160009054906101000a900473ffffffffffffffffffffffffffffffffffffffff1673ffffffffffffffffffffffffffffffffffffffff1673ffffffffffffffffffffffffffffffffffffffff1681526020016003820160149054906101000a900460ff161515151581526020016003820160159054906101000a900460ff16151515158152505082828151811061235e5761235d612e8f565b5b6020026020010181905250808061237490612eed565b9150506120f5565b50809250505090565b3373ffffffffffffffffffffffffffffffffffffffff16600382815481106123b0576123af612e8f565b5b906000526020600020906005020160020160009054906101000a900473ffffffffffffffffffffffffffffffffffffffff1673ffffffffffffffffffffffffffffffffffffffff161461240257600080fd5b60016003828154811061241857612417612e8f565b5b906000526020600020906005020160040160006101000a81548160ff02191690831515021790555060006003828154811061245657612455612e8f565b5b906000526020600020906005020160040160016101000a81548160ff02191690831515021790555050565b82805461248d90612e5d565b90600052602060002090601f0160209004810192826124af57600085556124f6565b82601f106124c857805160ff19168380011785556124f6565b828001600101855582156124f6579182015b828111156124f55782518255916020019190600101906124da565b5b5090506125039190612507565b5090565b5b80821115612520576000816000905550600101612508565b5090565b6000604051905090565b600080fd5b600080fd5b600073ffffffffffffffffffffffffffffffffffffffff82169050919050565b600061256382612538565b9050919050565b61257381612558565b811461257e57600080fd5b50565b6000813590506125908161256a565b92915050565b6000602082840312156125ac576125ab61252e565b5b60006125ba84828501612581565b91505092915050565b6000819050919050565b6125d6816125c3565b81146125e157600080fd5b50565b6000813590506125f3816125cd565b92915050565b60006020828403121561260f5761260e61252e565b5b600061261d848285016125e4565b91505092915050565b600081519050919050565b600082825260208201905092915050565b60005b83811015612660578082015181840152602081019050612645565b8381111561266f576000848401525b50505050565b6000601f19601f8301169050919050565b600061269182612626565b61269b8185612631565b93506126ab818560208601612642565b6126b481612675565b840191505092915050565b6126c881612558565b82525050565b60008115159050919050565b6126e3816126ce565b82525050565b600060c08201905081810360008301526127038189612686565b905081810360208301526127178188612686565b905061272660408301876126bf565b61273360608301866126bf565b61274060808301856126da565b61274d60a08301846126da565b979650505050505050565b600080fd5b600080fd5b7f4e487b7100000000000000000000000000000000000000000000000000000000600052604160045260246000fd5b61279a82612675565b810181811067ffffffffffffffff821117156127b9576127b8612762565b5b80604052505050565b60006127cc612524565b90506127d88282612791565b919050565b600067ffffffffffffffff8211156127f8576127f7612762565b5b61280182612675565b9050602081019050919050565b82818337600083830152505050565b600061283061282b846127dd565b6127c2565b90508281526020810184848401111561284c5761284b61275d565b5b61285784828561280e565b509392505050565b600082601f83011261287457612873612758565b5b813561288484826020860161281d565b91505092915050565b600061289882612538565b9050919050565b6128a88161288d565b81146128b357600080fd5b50565b6000813590506128c58161289f565b92915050565b6000806000606084860312156128e4576128e361252e565b5b600084013567ffffffffffffffff81111561290257612901612533565b5b61290e8682870161285f565b935050602061291f868287016128b6565b9250506040612930868287016125e4565b9150509250925092565b600081519050919050565b600082825260208201905092915050565b6000819050602082019050919050565b61296f81612558565b82525050565b600082825260208201905092915050565b600061299182612626565b61299b8185612975565b93506129ab818560208601612642565b6129b481612675565b840191505092915050565b6129c88161288d565b82525050565b6129d7816125c3565b82525050565b6129e6816126ce565b82525050565b600060e083016000830151612a046000860182612966565b5060208301518482036020860152612a1c8282612986565b9150506040830151612a3160408601826129bf565b506060830151612a4460608601826129ce565b506080830151612a5760808601826129dd565b5060a0830151612a6a60a08601826129dd565b5060c0830151612a7d60c08601826129dd565b508091505092915050565b6000612a9483836129ec565b905092915050565b6000602082019050919050565b6000612ab48261293a565b612abe8185612945565b935083602082028501612ad085612956565b8060005b85811015612b0c5784840389528151612aed8582612a88565b9450612af883612a9c565b925060208a01995050600181019050612ad4565b50829750879550505050505092915050565b60006020820190508181036000830152612b388184612aa9565b905092915050565b6000602082019050612b5560008301846126bf565b92915050565b612b648161288d565b82525050565b612b73816125c3565b82525050565b600060e082019050612b8e600083018a6126bf565b8181036020830152612ba08189612686565b9050612baf6040830188612b5b565b612bbc6060830187612b6a565b612bc960808301866126da565b612bd660a08301856126da565b612be360c08301846126da565b98975050505050505050565b60008060408385031215612c0657612c0561252e565b5b6000612c14858286016128b6565b9250506020612c25858286016125e4565b9150509250929050565b600080600060608486031215612c4857612c4761252e565b5b6000612c5686828701612581565b935050602084013567ffffffffffffffff811115612c7757612c76612533565b5b612c838682870161285f565b925050604084013567ffffffffffffffff811115612ca457612ca3612533565b5b612cb08682870161285f565b9150509250925092565b600081519050919050565b600082825260208201905092915050565b6000819050602082019050919050565b600060c0830160008301518482036000860152612d038282612986565b91505060208301518482036020860152612d1d8282612986565b9150506040830151612d326040860182612966565b506060830151612d456060860182612966565b506080830151612d5860808601826129dd565b5060a0830151612d6b60a08601826129dd565b508091505092915050565b6000612d828383612ce6565b905092915050565b6000602082019050919050565b6000612da282612cba565b612dac8185612cc5565b935083602082028501612dbe85612cd6565b8060005b85811015612dfa5784840389528151612ddb8582612d76565b9450612de683612d8a565b925060208a01995050600181019050612dc2565b50829750879550505050505092915050565b60006020820190508181036000830152612e268184612d97565b905092915050565b7f4e487b7100000000000000000000000000000000000000000000000000000000600052602260045260246000fd5b60006002820490506001821680612e7557607f821691505b60208210811415612e8957612e88612e2e565b5b50919050565b7f4e487b7100000000000000000000000000000000000000000000000000000000600052603260045260246000fd5b7f4e487b7100000000000000000000000000000000000000000000000000000000600052601160045260246000fd5b6000612ef8826125c3565b91507fffffffffffffffffffffffffffffffffffffffffffffffffffffffffffffffff821415612f2b57612f2a612ebe565b5b60018201905091905056fea2646970667358221220600359f17cb6a97bf6dcc538cba353c5554550a35e3cefce2f66bfe434b70d0764736f6c634300080b0033",
  "immutableReferences": {},
  "source": "pragma solidity ^0.8.4;\n\ncontract GeneSlimeMoldAlpha{\n    //\n    struct GeneHolder{\n        uint[] gene_mining_data_id_list;\n        uint[] use_event_id_list;\n        mapping(address => bool)block_address_list;\n    }\n\n    //\n    struct GeneMiner{\n        uint[] mined_gene_mining_data_id_list;\n        bool is_available;\n    }\n\n    //\n    struct UseEventMaker{\n        uint[] use_event_id_list;\n        bool is_available;\n    }\n\n    //\n    struct UseEvent{\n        address event_owner_address;\n        string description;\n        address payable offer_to_address;\n        uint pay_amount;\n        bool is_approved;\n        bool is_blocked;\n        bool is_executed;\n    }\n    \n    struct GeneMiningData{\n        string url;\n        string description;\n        address gene_holder_address;\n        address miner_address;\n        bool is_accepted_by_holder;\n        bool is_blocked_by_holder;\n    }\n\n    mapping(address => GeneHolder) private gene_holder_list; //\n    mapping(address => GeneMiner) private gene_miner_list; //\n    mapping(address => UseEventMaker) private use_event_maker_list; //\n\n    UseEvent[] public use_event_list; //use event\n    GeneMiningData[] public gene_mining_data_list; //\n\n    address[] empty; //\n    address public supervisor; //\n\n    constructor(){\n        supervisor = msg.sender; //\n    }\n\n/*gene holder*/\n    //\n    function add_block_list(address block_address) public{\n        gene_holder_list[msg.sender].block_address_list[block_address] = true;\n    }\n\n    function remove_block_list(address block_address) public{\n        gene_holder_list[msg.sender].block_address_list[block_address] = false;\n    }\n\n/*gene miner*/\n    function generate_gene_miner(address miner_address) public {\n        require(supervisor == msg.sender);//\n        gene_miner_list[miner_address].is_available = true;\n    }\n\n    function invalidate_gene_miner(address miner_address) public {\n        require(supervisor == msg.sender);//\n        gene_miner_list[miner_address].is_available = false; \n    }\n\n/* use event maker */\n    function generate_use_event_maker(address use_event_maker_address) public {\n        require(supervisor == msg.sender);//\n        use_event_maker_list[use_event_maker_address].is_available = true;\n    }\n\n    function invalidate_use_event_maker(address use_event_maker_address) public {\n        require(supervisor == msg.sender);//\n        use_event_maker_list[use_event_maker_address].is_available = false; \n    }\n\n/* */\n    //use event maker use event \n    function generate_use_event(string memory description, address payable offer_to_address, uint payment) public {\n        require(use_event_maker_list[msg.sender].is_available);//event maker\n        require(gene_holder_list[offer_to_address].block_address_list[msg.sender] == false);//\n        uint id = use_event_list.length;\n        \n        use_event_list.push(UseEvent(msg.sender, description, offer_to_address, payment, false, false, false)); // use_event_listuse eventid\n        use_event_maker_list[msg.sender].use_event_id_list.push(id); //use_event_listid\n\n        gene_holder_list[offer_to_address].use_event_id_list.push(id);//gene holderid\n    }\n    \n    //use event\n    function approve_use_event_offer(uint use_event_id) public{\n        require(use_event_list[use_event_id].offer_to_address == msg.sender);\n        use_event_list[use_event_id].is_approved = true;\n        use_event_list[use_event_id].is_blocked = false;\n    }\n\n    //use event\n    function block_use_event_offer(uint use_event_id) public{\n        require(use_event_list[use_event_id].offer_to_address == msg.sender);\n        use_event_list[use_event_id].is_blocked = true;\n        use_event_list[use_event_id].is_approved = false;\n    }\n\n/**/\n\n    //\n    function balance_to(address payable reciever_address, uint pay_amount) public payable{\n        reciever_address.transfer(pay_amount);\n    }\n\n    //use event\n    function execute_use_event(uint use_event_id)public{\n        require(use_event_list[use_event_id].event_owner_address == msg.sender);\n        require(use_event_list[use_event_id].is_approved);\n        require(use_event_list[use_event_id].pay_amount <= address(this).balance);\n        balance_to(use_event_list[use_event_id].offer_to_address, use_event_list[use_event_id].pay_amount);\n        use_event_list[use_event_id].is_executed = true;\n    }\n\n/**/\n    //\n    function register_mining_gene(address gene_holder_address, string memory gene_url, string memory description) public {\n        require(gene_miner_list[msg.sender].is_available);\n        require(gene_holder_list[gene_holder_address].block_address_list[msg.sender] == false);//\n        uint id = gene_mining_data_list.length;\n        gene_mining_data_list.push(GeneMiningData(gene_url, description, gene_holder_address, msg.sender, false, false));\n        gene_holder_list[gene_holder_address].gene_mining_data_id_list.push(id);\n        gene_miner_list[msg.sender].mined_gene_mining_data_id_list.push(id);\n    }\n    \n    //\n    function accept_mining_gene(uint gene_mining_data_id) public {\n        require(gene_mining_data_list[gene_mining_data_id].gene_holder_address == msg.sender);\n        gene_mining_data_list[gene_mining_data_id].is_blocked_by_holder = false;\n        gene_mining_data_list[gene_mining_data_id].is_accepted_by_holder = true;\n    }\n\n    //\n    function blocked_mining_gene(uint gene_mining_data_id) public {\n        require(gene_mining_data_list[gene_mining_data_id].gene_holder_address == msg.sender);\n        gene_mining_data_list[gene_mining_data_id].is_accepted_by_holder = false;\n        gene_mining_data_list[gene_mining_data_id].is_blocked_by_holder = true;\n    }\n\n/**/\n    //\n    function request_own_gene_mining_data_list() public view returns(GeneMiningData[] memory){\n        uint[] memory gene_mining_data_id_list; \n        GeneMiningData[] memory own_gene_mining_data_list;\n        gene_mining_data_id_list = gene_holder_list[msg.sender].gene_mining_data_id_list;        \n        \n        for(uint i = 0; i < gene_mining_data_id_list.length; i++){\n            own_gene_mining_data_list[i] = gene_mining_data_list[gene_mining_data_id_list[i]];\n        }\n\n        return own_gene_mining_data_list;\n    }\n\n    //use event\n    function request_own_use_event_list() public view returns(UseEvent[] memory){\n        uint[] memory use_event_id_list; \n        UseEvent[] memory own_use_event_list;\n        use_event_id_list = gene_holder_list[msg.sender].use_event_id_list;\n        \n        for(uint i = 0; i < use_event_id_list.length; i++){\n            own_use_event_list[i] = use_event_list[use_event_id_list[i]];\n        }\n\n        return own_use_event_list;\n    }\n\n    //\n    function request_own_mined_gene_mining_data_list() public view returns(GeneMiningData[] memory){\n        uint[] memory mined_gene_mining_data_id_list; \n        GeneMiningData[] memory own_mined_gene_mining_data_list;\n        mined_gene_mining_data_id_list = gene_miner_list[msg.sender].mined_gene_mining_data_id_list;\n        \n        for(uint i = 0; i < mined_gene_mining_data_id_list.length; i++){\n            own_mined_gene_mining_data_list[i] = gene_mining_data_list[mined_gene_mining_data_id_list[i]];\n        }\n\n        return own_mined_gene_mining_data_list;\n    }\n\n    //use event\n    function request_own_made_use_event_list() public view returns(UseEvent[] memory){\n        uint[] memory use_event_id_list; \n        UseEvent[] memory own_use_event_list;\n        use_event_id_list = use_event_maker_list[msg.sender].use_event_id_list;\n        \n        for(uint i = 0; i < use_event_id_list.length; i++){\n            own_use_event_list[i] = use_event_list[use_event_id_list[i]];\n        }\n\n        return own_use_event_list;\n    }\n\n}",
  "sourcePath": "C:\\Users\\okuda\\OneDrive\\\\gitRepository\\SecHack365GeneSlimeMold\\SecHack365GeneSlimeMold\\contracts\\GeneSlimeMoldAlpha.sol",
  "compiler": {
    "name": "solc",
    "version": "0.8.11+commit.d7f03943.Emscripten.clang"
  },
  "schemaVersion": "3.4.3",
  "updatedAt": "2022-01-15T00:37:53.864Z",
  "networkType": "ethereum",
  "devdoc": {
    "kind": "dev",
    "methods": {},
    "version": 1
  },
  "userdoc": {
    "kind": "user",
    "methods": {},
    "version": 1
  }
}