{
  "contractName": "GeneSlimeMoldAlpha",
  "abi": [
    {
      "inputs": [],
      "stateMutability": "payable",
      "type": "constructor",
      "payable": true
    },
    {
      "inputs": [
        {
          "internalType": "address",
          "name": "",
          "type": "address"
        }
      ],
      "name": "balances",
      "outputs": [
        {
          "internalType": "uint256",
          "name": "",
          "type": "uint256"
        }
      ],
      "stateMutability": "view",
      "type": "function",
      "constant": true
    },
    {
      "inputs": [],
      "name": "coin_name",
      "outputs": [
        {
          "internalType": "string",
          "name": "",
          "type": "string"
        }
      ],
      "stateMutability": "view",
      "type": "function",
      "constant": true
    },
    {
      "inputs": [
        {
          "internalType": "uint256",
          "name": "",
          "type": "uint256"
        }
      ],
      "name": "gene_mining_data_list",
      "outputs": [
        {
          "internalType": "uint256",
          "name": "id",
          "type": "uint256"
        },
        {
          "internalType": "string",
          "name": "url",
          "type": "string"
        },
        {
          "internalType": "string",
          "name": "description",
          "type": "string"
        },
        {
          "internalType": "address",
          "name": "gene_holder_address",
          "type": "address"
        },
        {
          "internalType": "address",
          "name": "miner_address",
          "type": "address"
        },
        {
          "internalType": "bool",
          "name": "is_accepted_by_holder",
          "type": "bool"
        },
        {
          "internalType": "bool",
          "name": "is_blocked_by_holder",
          "type": "bool"
        },
        {
          "internalType": "uint256",
          "name": "used_count",
          "type": "uint256"
        }
      ],
      "stateMutability": "view",
      "type": "function",
      "constant": true
    },
    {
      "inputs": [],
      "name": "miner_used_bonus",
      "outputs": [
        {
          "internalType": "uint256",
          "name": "",
          "type": "uint256"
        }
      ],
      "stateMutability": "view",
      "type": "function",
      "constant": true
    },
    {
      "inputs": [],
      "name": "supervisor",
      "outputs": [
        {
          "internalType": "address",
          "name": "",
          "type": "address"
        }
      ],
      "stateMutability": "view",
      "type": "function",
      "constant": true
    },
    {
      "inputs": [],
      "name": "symbol",
      "outputs": [
        {
          "internalType": "string",
          "name": "",
          "type": "string"
        }
      ],
      "stateMutability": "view",
      "type": "function",
      "constant": true
    },
    {
      "inputs": [
        {
          "internalType": "uint256",
          "name": "",
          "type": "uint256"
        }
      ],
      "name": "use_event_list",
      "outputs": [
        {
          "internalType": "uint256",
          "name": "id",
          "type": "uint256"
        },
        {
          "internalType": "address",
          "name": "event_owner_address",
          "type": "address"
        },
        {
          "internalType": "string",
          "name": "description",
          "type": "string"
        },
        {
          "internalType": "address payable",
          "name": "offer_to_address",
          "type": "address"
        },
        {
          "internalType": "uint256",
          "name": "gene_data_id",
          "type": "uint256"
        },
        {
          "internalType": "uint256",
          "name": "pay_amount",
          "type": "uint256"
        },
        {
          "internalType": "bool",
          "name": "is_approved",
          "type": "bool"
        },
        {
          "internalType": "bool",
          "name": "is_blocked",
          "type": "bool"
        },
        {
          "internalType": "bool",
          "name": "is_executed",
          "type": "bool"
        }
      ],
      "stateMutability": "view",
      "type": "function",
      "constant": true
    },
    {
      "inputs": [
        {
          "internalType": "address",
          "name": "block_address",
          "type": "address"
        }
      ],
      "name": "add_block_list",
      "outputs": [],
      "stateMutability": "nonpayable",
      "type": "function"
    },
    {
      "inputs": [
        {
          "internalType": "address",
          "name": "block_address",
          "type": "address"
        }
      ],
      "name": "remove_block_list",
      "outputs": [],
      "stateMutability": "nonpayable",
      "type": "function"
    },
    {
      "inputs": [
        {
          "internalType": "address",
          "name": "miner_address",
          "type": "address"
        }
      ],
      "name": "generate_gene_miner",
      "outputs": [],
      "stateMutability": "nonpayable",
      "type": "function"
    },
    {
      "inputs": [
        {
          "internalType": "address",
          "name": "miner_address",
          "type": "address"
        }
      ],
      "name": "invalidate_gene_miner",
      "outputs": [],
      "stateMutability": "nonpayable",
      "type": "function"
    },
    {
      "inputs": [
        {
          "internalType": "address",
          "name": "use_event_maker_address",
          "type": "address"
        }
      ],
      "name": "generate_use_event_maker",
      "outputs": [],
      "stateMutability": "nonpayable",
      "type": "function"
    },
    {
      "inputs": [
        {
          "internalType": "address",
          "name": "use_event_maker_address",
          "type": "address"
        }
      ],
      "name": "invalidate_use_event_maker",
      "outputs": [],
      "stateMutability": "nonpayable",
      "type": "function"
    },
    {
      "inputs": [
        {
          "internalType": "string",
          "name": "description",
          "type": "string"
        },
        {
          "internalType": "address payable",
          "name": "offer_to_address",
          "type": "address"
        },
        {
          "internalType": "uint256",
          "name": "gene_data_id",
          "type": "uint256"
        },
        {
          "internalType": "uint256",
          "name": "payment",
          "type": "uint256"
        }
      ],
      "name": "generate_use_event",
      "outputs": [],
      "stateMutability": "nonpayable",
      "type": "function"
    },
    {
      "inputs": [
        {
          "internalType": "uint256",
          "name": "use_event_id",
          "type": "uint256"
        }
      ],
      "name": "approve_use_event_offer",
      "outputs": [],
      "stateMutability": "nonpayable",
      "type": "function"
    },
    {
      "inputs": [
        {
          "internalType": "uint256",
          "name": "use_event_id",
          "type": "uint256"
        }
      ],
      "name": "block_use_event_offer",
      "outputs": [],
      "stateMutability": "nonpayable",
      "type": "function"
    },
    {
      "inputs": [],
      "name": "balanceOf",
      "outputs": [
        {
          "internalType": "uint256",
          "name": "",
          "type": "uint256"
        }
      ],
      "stateMutability": "view",
      "type": "function",
      "constant": true
    },
    {
      "inputs": [
        {
          "internalType": "address",
          "name": "_to",
          "type": "address"
        },
        {
          "internalType": "uint256",
          "name": "_value",
          "type": "uint256"
        }
      ],
      "name": "transfer",
      "outputs": [],
      "stateMutability": "nonpayable",
      "type": "function"
    },
    {
      "inputs": [
        {
          "internalType": "address",
          "name": "_to",
          "type": "address"
        },
        {
          "internalType": "uint256",
          "name": "_value",
          "type": "uint256"
        }
      ],
      "name": "supervisorTransfer",
      "outputs": [],
      "stateMutability": "nonpayable",
      "type": "function"
    },
    {
      "inputs": [
        {
          "internalType": "address payable",
          "name": "reciever_address",
          "type": "address"
        },
        {
          "internalType": "uint256",
          "name": "pay_amount",
          "type": "uint256"
        }
      ],
      "name": "balance_to",
      "outputs": [],
      "stateMutability": "payable",
      "type": "function",
      "payable": true
    },
    {
      "inputs": [
        {
          "internalType": "uint256",
          "name": "use_event_id",
          "type": "uint256"
        }
      ],
      "name": "execute_use_event",
      "outputs": [],
      "stateMutability": "nonpayable",
      "type": "function"
    },
    {
      "inputs": [
        {
          "internalType": "address",
          "name": "gene_holder_address",
          "type": "address"
        },
        {
          "internalType": "string",
          "name": "gene_url",
          "type": "string"
        },
        {
          "internalType": "string",
          "name": "description",
          "type": "string"
        }
      ],
      "name": "register_mining_gene",
      "outputs": [],
      "stateMutability": "nonpayable",
      "type": "function"
    },
    {
      "inputs": [
        {
          "internalType": "uint256",
          "name": "gene_mining_data_id",
          "type": "uint256"
        }
      ],
      "name": "accept_mining_gene",
      "outputs": [],
      "stateMutability": "nonpayable",
      "type": "function"
    },
    {
      "inputs": [
        {
          "internalType": "uint256",
          "name": "gene_mining_data_id",
          "type": "uint256"
        }
      ],
      "name": "blocked_mining_gene",
      "outputs": [],
      "stateMutability": "nonpayable",
      "type": "function"
    },
    {
      "inputs": [],
      "name": "request_my_account_address",
      "outputs": [
        {
          "internalType": "address",
          "name": "",
          "type": "address"
        }
      ],
      "stateMutability": "view",
      "type": "function",
      "constant": true
    },
    {
      "inputs": [],
      "name": "request_own_gene_mining_data_list",
      "outputs": [
        {
          "components": [
            {
              "internalType": "uint256",
              "name": "id",
              "type": "uint256"
            },
            {
              "internalType": "string",
              "name": "url",
              "type": "string"
            },
            {
              "internalType": "string",
              "name": "description",
              "type": "string"
            },
            {
              "internalType": "address",
              "name": "gene_holder_address",
              "type": "address"
            },
            {
              "internalType": "address",
              "name": "miner_address",
              "type": "address"
            },
            {
              "internalType": "bool",
              "name": "is_accepted_by_holder",
              "type": "bool"
            },
            {
              "internalType": "bool",
              "name": "is_blocked_by_holder",
              "type": "bool"
            },
            {
              "internalType": "uint256",
              "name": "used_count",
              "type": "uint256"
            }
          ],
          "internalType": "struct GeneSlimeMoldAlpha.GeneMiningData[]",
          "name": "",
          "type": "tuple[]"
        }
      ],
      "stateMutability": "view",
      "type": "function",
      "constant": true
    },
    {
      "inputs": [],
      "name": "request_own_use_event_list",
      "outputs": [
        {
          "components": [
            {
              "internalType": "uint256",
              "name": "id",
              "type": "uint256"
            },
            {
              "internalType": "address",
              "name": "event_owner_address",
              "type": "address"
            },
            {
              "internalType": "string",
              "name": "description",
              "type": "string"
            },
            {
              "internalType": "address payable",
              "name": "offer_to_address",
              "type": "address"
            },
            {
              "internalType": "uint256",
              "name": "gene_data_id",
              "type": "uint256"
            },
            {
              "internalType": "uint256",
              "name": "pay_amount",
              "type": "uint256"
            },
            {
              "internalType": "bool",
              "name": "is_approved",
              "type": "bool"
            },
            {
              "internalType": "bool",
              "name": "is_blocked",
              "type": "bool"
            },
            {
              "internalType": "bool",
              "name": "is_executed",
              "type": "bool"
            }
          ],
          "internalType": "struct GeneSlimeMoldAlpha.UseEvent[]",
          "name": "",
          "type": "tuple[]"
        }
      ],
      "stateMutability": "view",
      "type": "function",
      "constant": true
    },
    {
      "inputs": [],
      "name": "request_own_mined_gene_mining_data_list",
      "outputs": [
        {
          "components": [
            {
              "internalType": "uint256",
              "name": "id",
              "type": "uint256"
            },
            {
              "internalType": "string",
              "name": "url",
              "type": "string"
            },
            {
              "internalType": "string",
              "name": "description",
              "type": "string"
            },
            {
              "internalType": "address",
              "name": "gene_holder_address",
              "type": "address"
            },
            {
              "internalType": "address",
              "name": "miner_address",
              "type": "address"
            },
            {
              "internalType": "bool",
              "name": "is_accepted_by_holder",
              "type": "bool"
            },
            {
              "internalType": "bool",
              "name": "is_blocked_by_holder",
              "type": "bool"
            },
            {
              "internalType": "uint256",
              "name": "used_count",
              "type": "uint256"
            }
          ],
          "internalType": "struct GeneSlimeMoldAlpha.GeneMiningData[]",
          "name": "",
          "type": "tuple[]"
        }
      ],
      "stateMutability": "view",
      "type": "function",
      "constant": true
    },
    {
      "inputs": [],
      "name": "request_own_made_use_event_list",
      "outputs": [
        {
          "components": [
            {
              "internalType": "uint256",
              "name": "id",
              "type": "uint256"
            },
            {
              "internalType": "address",
              "name": "event_owner_address",
              "type": "address"
            },
            {
              "internalType": "string",
              "name": "description",
              "type": "string"
            },
            {
              "internalType": "address payable",
              "name": "offer_to_address",
              "type": "address"
            },
            {
              "internalType": "uint256",
              "name": "gene_data_id",
              "type": "uint256"
            },
            {
              "internalType": "uint256",
              "name": "pay_amount",
              "type": "uint256"
            },
            {
              "internalType": "bool",
              "name": "is_approved",
              "type": "bool"
            },
            {
              "internalType": "bool",
              "name": "is_blocked",
              "type": "bool"
            },
            {
              "internalType": "bool",
              "name": "is_executed",
              "type": "bool"
            }
          ],
          "internalType": "struct GeneSlimeMoldAlpha.UseEvent[]",
          "name": "",
          "type": "tuple[]"
        }
      ],
      "stateMutability": "view",
      "type": "function",
      "constant": true
    }
  ],
  "bytecode": "0x60806040526040518060400160405280600881526020017f47656e65436f696e0000000000000000000000000000000000000000000000008152506000908051906020019062000051929190620000ec565b506040518060400160405280600281526020017f4743000000000000000000000000000000000000000000000000000000000000815250600190805190602001906200009f929190620000ec565b50600a60095533600860006101000a81548173ffffffffffffffffffffffffffffffffffffffff021916908373ffffffffffffffffffffffffffffffffffffffff16021790555062000201565b828054620000fa90620001cb565b90600052602060002090601f0160209004810192826200011e57600085556200016a565b82601f106200013957805160ff19168380011785556200016a565b828001600101855582156200016a579182015b82811115620001695782518255916020019190600101906200014c565b5b5090506200017991906200017d565b5090565b5b80821115620001985760008160009055506001016200017e565b5090565b7f4e487b7100000000000000000000000000000000000000000000000000000000600052602260045260246000fd5b60006002820490506001821680620001e457607f821691505b60208210811415620001fb57620001fa6200019c565b5b50919050565b613b7180620002116000396000f3fe6080604052600436106101c25760003560e01c80638cf005e7116100f7578063b7082e0411610095578063dad7aa5f11610064578063dad7aa5f14610616578063f38a36a41461063f578063f4092aec1461066a578063f66327c814610693576101c2565b8063b7082e0414610570578063bbb0d92614610599578063c3cb0965146105c2578063d417bd57146105eb576101c2565b8063a1ea1304116100d1578063a1ea1304146104d9578063a4ab29de146104f5578063a9059cbb1461051e578063b06355c514610547576101c2565b80638cf005e71461045a57806395d89b411461048357806395e6c039146104ae576101c2565b80635a8515ea1161016457806374632b861161013e57806374632b861461039a57806379fed660146103c3578063821dc23f146103ec57806388df39fb14610431576101c2565b80635a8515ea146103195780635ca9afb614610344578063722713f71461036f576101c2565b806339583c05116101a057806339583c05146102715780633fbeb5da1461029a57806348d3d7a0146102c357806356e4b68b146102ee576101c2565b80630b6d7b0e146101c757806314a8ba97146101f057806327e235e314610234575b600080fd5b3480156101d357600080fd5b506101ee60048036038101906101e99190612ff5565b6106be565b005b3480156101fc57600080fd5b5061021760048036038101906102129190613058565b610759565b60405161022b989796959493929190613157565b60405180910390f35b34801561024057600080fd5b5061025b60048036038101906102569190612ff5565b61091b565b60405161026891906131e3565b60405180910390f35b34801561027d57600080fd5b5061029860048036038101906102939190613371565b610933565b005b3480156102a657600080fd5b506102c160048036038101906102bc9190612ff5565b610d3f565b005b3480156102cf57600080fd5b506102d8610df7565b6040516102e59190613601565b60405180910390f35b3480156102fa57600080fd5b50610303611119565b6040516103109190613623565b60405180910390f35b34801561032557600080fd5b5061032e61113f565b60405161033b9190613601565b60405180910390f35b34801561035057600080fd5b50610359611461565b6040516103669190613623565b60405180910390f35b34801561037b57600080fd5b50610384611469565b60405161039191906131e3565b60405180910390f35b3480156103a657600080fd5b506103c160048036038101906103bc9190612ff5565b6114b0565b005b3480156103cf57600080fd5b506103ea60048036038101906103e59190613058565b611568565b005b3480156103f857600080fd5b50610413600480360381019061040e9190613058565b611664565b6040516104289998979695949392919061364d565b60405180910390f35b34801561043d57600080fd5b5061045860048036038101906104539190612ff5565b6117b1565b005b34801561046657600080fd5b50610481600480360381019061047c9190612ff5565b61184c565b005b34801561048f57600080fd5b50610498611904565b6040516104a591906136e1565b60405180910390f35b3480156104ba57600080fd5b506104c3611992565b6040516104d091906136e1565b60405180910390f35b6104f360048036038101906104ee9190613703565b611a20565b005b34801561050157600080fd5b5061051c60048036038101906105179190613743565b611a6b565b005b34801561052a57600080fd5b5061054560048036038101906105409190613743565b611b1f565b005b34801561055357600080fd5b5061056e60048036038101906105699190613058565b611c1b565b005b34801561057c57600080fd5b5061059760048036038101906105929190613058565b611d17565b005b3480156105a557600080fd5b506105c060048036038101906105bb9190613058565b611fa0565b005b3480156105ce57600080fd5b506105e960048036038101906105e49190613783565b61213e565b005b3480156105f757600080fd5b50610600612473565b60405161060d9190613987565b60405180910390f35b34801561062257600080fd5b5061063d60048036038101906106389190612ff5565b612802565b005b34801561064b57600080fd5b506106546128ba565b6040516106619190613987565b60405180910390f35b34801561067657600080fd5b50610691600480360381019061068c9190613058565b612c49565b005b34801561069f57600080fd5b506106a8612de7565b6040516106b591906131e3565b60405180910390f35b6000600360003373ffffffffffffffffffffffffffffffffffffffff1673ffffffffffffffffffffffffffffffffffffffff16815260200190815260200160002060020160008373ffffffffffffffffffffffffffffffffffffffff1673ffffffffffffffffffffffffffffffffffffffff16815260200190815260200160002060006101000a81548160ff02191690831515021790555050565b6006818154811061076957600080fd5b9060005260206000209060060201600091509050806000015490806001018054610792906139d8565b80601f01602080910402602001604051908101604052809291908181526020018280546107be906139d8565b801561080b5780601f106107e05761010080835404028352916020019161080b565b820191906000526020600020905b8154815290600101906020018083116107ee57829003601f168201915b505050505090806002018054610820906139d8565b80601f016020809104026020016040519081016040528092919081815260200182805461084c906139d8565b80156108995780601f1061086e57610100808354040283529160200191610899565b820191906000526020600020905b81548152906001019060200180831161087c57829003601f168201915b5050505050908060030160009054906101000a900473ffffffffffffffffffffffffffffffffffffffff16908060040160009054906101000a900473ffffffffffffffffffffffffffffffffffffffff16908060040160149054906101000a900460ff16908060040160159054906101000a900460ff16908060050154905088565b60026020528060005260406000206000915090505481565b60001515600360008573ffffffffffffffffffffffffffffffffffffffff1673ffffffffffffffffffffffffffffffffffffffff16815260200190815260200160002060020160003373ffffffffffffffffffffffffffffffffffffffff1673ffffffffffffffffffffffffffffffffffffffff16815260200190815260200160002060009054906101000a900460ff161515146109d057600080fd5b8273ffffffffffffffffffffffffffffffffffffffff16600683815481106109fb576109fa613a0a565b5b906000526020600020906006020160030160009054906101000a900473ffffffffffffffffffffffffffffffffffffffff1673ffffffffffffffffffffffffffffffffffffffff1614610a4d57600080fd5b6001151560068381548110610a6557610a64613a0a565b5b906000526020600020906006020160040160149054906101000a900460ff16151514610a9057600080fd5b6000600780549050905060076040518061012001604052808381526020013373ffffffffffffffffffffffffffffffffffffffff1681526020018781526020018673ffffffffffffffffffffffffffffffffffffffff1681526020018581526020018481526020016000151581526020016000151581526020016000151581525090806001815401808255809150506001900390600052602060002090600702016000909190919091506000820151816000015560208201518160010160006101000a81548173ffffffffffffffffffffffffffffffffffffffff021916908373ffffffffffffffffffffffffffffffffffffffff1602179055506040820151816002019080519060200190610ba7929190612ded565b5060608201518160030160006101000a81548173ffffffffffffffffffffffffffffffffffffffff021916908373ffffffffffffffffffffffffffffffffffffffff1602179055506080820151816004015560a0820151816005015560c08201518160060160006101000a81548160ff02191690831515021790555060e08201518160060160016101000a81548160ff0219169083151502179055506101008201518160060160026101000a81548160ff0219169083151502179055505050600560003373ffffffffffffffffffffffffffffffffffffffff1673ffffffffffffffffffffffffffffffffffffffff168152602001908152602001600020600001819080600181540180825580915050600190039060005260206000200160009091909190915055600360008573ffffffffffffffffffffffffffffffffffffffff1673ffffffffffffffffffffffffffffffffffffffff1681526020019081526020016000206001018190806001815401808255809150506001900390600052602060002001600090919091909150555050505050565b3373ffffffffffffffffffffffffffffffffffffffff16600860009054906101000a900473ffffffffffffffffffffffffffffffffffffffff1673ffffffffffffffffffffffffffffffffffffffff1614610d9957600080fd5b6000600460008373ffffffffffffffffffffffffffffffffffffffff1673ffffffffffffffffffffffffffffffffffffffff16815260200190815260200160002060010160006101000a81548160ff02191690831515021790555050565b60606000600560003373ffffffffffffffffffffffffffffffffffffffff1673ffffffffffffffffffffffffffffffffffffffff16815260200190815260200160002060000180549050905060008167ffffffffffffffff811115610e5f57610e5e613208565b5b604051908082528060200260200182016040528015610e9857816020015b610e85612e73565b815260200190600190039081610e7d5790505b50905060005b82811015611110576007600560003373ffffffffffffffffffffffffffffffffffffffff1673ffffffffffffffffffffffffffffffffffffffff1681526020019081526020016000206000018281548110610efc57610efb613a0a565b5b906000526020600020015481548110610f1857610f17613a0a565b5b906000526020600020906007020160405180610120016040529081600082015481526020016001820160009054906101000a900473ffffffffffffffffffffffffffffffffffffffff1673ffffffffffffffffffffffffffffffffffffffff1673ffffffffffffffffffffffffffffffffffffffff168152602001600282018054610fa2906139d8565b80601f0160208091040260200160405190810160405280929190818152602001828054610fce906139d8565b801561101b5780601f10610ff05761010080835404028352916020019161101b565b820191906000526020600020905b815481529060010190602001808311610ffe57829003601f168201915b505050505081526020016003820160009054906101000a900473ffffffffffffffffffffffffffffffffffffffff1673ffffffffffffffffffffffffffffffffffffffff1673ffffffffffffffffffffffffffffffffffffffff16815260200160048201548152602001600582015481526020016006820160009054906101000a900460ff161515151581526020016006820160019054906101000a900460ff161515151581526020016006820160029054906101000a900460ff1615151515815250508282815181106110f2576110f1613a0a565b5b6020026020010181905250808061110890613a68565b915050610e9e565b50809250505090565b600860009054906101000a900473ffffffffffffffffffffffffffffffffffffffff1681565b60606000600360003373ffffffffffffffffffffffffffffffffffffffff1673ffffffffffffffffffffffffffffffffffffffff16815260200190815260200160002060010180549050905060008167ffffffffffffffff8111156111a7576111a6613208565b5b6040519080825280602002602001820160405280156111e057816020015b6111cd612e73565b8152602001906001900390816111c55790505b50905060005b82811015611458576007600360003373ffffffffffffffffffffffffffffffffffffffff1673ffffffffffffffffffffffffffffffffffffffff168152602001908152602001600020600101828154811061124457611243613a0a565b5b9060005260206000200154815481106112605761125f613a0a565b5b906000526020600020906007020160405180610120016040529081600082015481526020016001820160009054906101000a900473ffffffffffffffffffffffffffffffffffffffff1673ffffffffffffffffffffffffffffffffffffffff1673ffffffffffffffffffffffffffffffffffffffff1681526020016002820180546112ea906139d8565b80601f0160208091040260200160405190810160405280929190818152602001828054611316906139d8565b80156113635780601f1061133857610100808354040283529160200191611363565b820191906000526020600020905b81548152906001019060200180831161134657829003601f168201915b505050505081526020016003820160009054906101000a900473ffffffffffffffffffffffffffffffffffffffff1673ffffffffffffffffffffffffffffffffffffffff1673ffffffffffffffffffffffffffffffffffffffff16815260200160048201548152602001600582015481526020016006820160009054906101000a900460ff161515151581526020016006820160019054906101000a900460ff161515151581526020016006820160029054906101000a900460ff16151515158152505082828151811061143a57611439613a0a565b5b6020026020010181905250808061145090613a68565b9150506111e6565b50809250505090565b600033905090565b6000600260003373ffffffffffffffffffffffffffffffffffffffff1673ffffffffffffffffffffffffffffffffffffffff16815260200190815260200160002054905090565b3373ffffffffffffffffffffffffffffffffffffffff16600860009054906101000a900473ffffffffffffffffffffffffffffffffffffffff1673ffffffffffffffffffffffffffffffffffffffff161461150a57600080fd5b6001600460008373ffffffffffffffffffffffffffffffffffffffff1673ffffffffffffffffffffffffffffffffffffffff16815260200190815260200160002060010160006101000a81548160ff02191690831515021790555050565b3373ffffffffffffffffffffffffffffffffffffffff166006828154811061159357611592613a0a565b5b906000526020600020906006020160030160009054906101000a900473ffffffffffffffffffffffffffffffffffffffff1673ffffffffffffffffffffffffffffffffffffffff16146115e557600080fd5b6000600682815481106115fb576115fa613a0a565b5b906000526020600020906006020160040160146101000a81548160ff02191690831515021790555060016006828154811061163957611638613a0a565b5b906000526020600020906006020160040160156101000a81548160ff02191690831515021790555050565b6007818154811061167457600080fd5b90600052602060002090600702016000915090508060000154908060010160009054906101000a900473ffffffffffffffffffffffffffffffffffffffff16908060020180546116c3906139d8565b80601f01602080910402602001604051908101604052809291908181526020018280546116ef906139d8565b801561173c5780601f106117115761010080835404028352916020019161173c565b820191906000526020600020905b81548152906001019060200180831161171f57829003601f168201915b5050505050908060030160009054906101000a900473ffffffffffffffffffffffffffffffffffffffff16908060040154908060050154908060060160009054906101000a900460ff16908060060160019054906101000a900460ff16908060060160029054906101000a900460ff16905089565b6001600360003373ffffffffffffffffffffffffffffffffffffffff1673ffffffffffffffffffffffffffffffffffffffff16815260200190815260200160002060020160008373ffffffffffffffffffffffffffffffffffffffff1673ffffffffffffffffffffffffffffffffffffffff16815260200190815260200160002060006101000a81548160ff02191690831515021790555050565b3373ffffffffffffffffffffffffffffffffffffffff16600860009054906101000a900473ffffffffffffffffffffffffffffffffffffffff1673ffffffffffffffffffffffffffffffffffffffff16146118a657600080fd5b6001600560008373ffffffffffffffffffffffffffffffffffffffff1673ffffffffffffffffffffffffffffffffffffffff16815260200190815260200160002060010160006101000a81548160ff02191690831515021790555050565b60018054611911906139d8565b80601f016020809104026020016040519081016040528092919081815260200182805461193d906139d8565b801561198a5780601f1061195f5761010080835404028352916020019161198a565b820191906000526020600020905b81548152906001019060200180831161196d57829003601f168201915b505050505081565b6000805461199f906139d8565b80601f01602080910402602001604051908101604052809291908181526020018280546119cb906139d8565b8015611a185780601f106119ed57610100808354040283529160200191611a18565b820191906000526020600020905b8154815290600101906020018083116119fb57829003601f168201915b505050505081565b8173ffffffffffffffffffffffffffffffffffffffff166108fc829081150290604051600060405180830381858888f19350505050158015611a66573d6000803e3d6000fd5b505050565b3373ffffffffffffffffffffffffffffffffffffffff16600860009054906101000a900473ffffffffffffffffffffffffffffffffffffffff1673ffffffffffffffffffffffffffffffffffffffff1614611ac557600080fd5b80600260008473ffffffffffffffffffffffffffffffffffffffff1673ffffffffffffffffffffffffffffffffffffffff1681526020019081526020016000206000828254611b149190613ab1565b925050819055505050565b600260003373ffffffffffffffffffffffffffffffffffffffff1673ffffffffffffffffffffffffffffffffffffffff16815260200190815260200160002054811115611b6b57600080fd5b80600260003373ffffffffffffffffffffffffffffffffffffffff1673ffffffffffffffffffffffffffffffffffffffff1681526020019081526020016000206000828254611bba9190613b07565b9250508190555080600260008473ffffffffffffffffffffffffffffffffffffffff1673ffffffffffffffffffffffffffffffffffffffff1681526020019081526020016000206000828254611c109190613ab1565b925050819055505050565b3373ffffffffffffffffffffffffffffffffffffffff1660068281548110611c4657611c45613a0a565b5b906000526020600020906006020160030160009054906101000a900473ffffffffffffffffffffffffffffffffffffffff1673ffffffffffffffffffffffffffffffffffffffff1614611c9857600080fd5b600060068281548110611cae57611cad613a0a565b5b906000526020600020906006020160040160156101000a81548160ff021916908315150217905550600160068281548110611cec57611ceb613a0a565b5b906000526020600020906006020160040160146101000a81548160ff02191690831515021790555050565b3373ffffffffffffffffffffffffffffffffffffffff1660078281548110611d4257611d41613a0a565b5b906000526020600020906007020160010160009054906101000a900473ffffffffffffffffffffffffffffffffffffffff1673ffffffffffffffffffffffffffffffffffffffff1614611d9457600080fd5b6000151560078281548110611dac57611dab613a0a565b5b906000526020600020906007020160060160029054906101000a900460ff16151514611dd757600080fd5b60078181548110611deb57611dea613a0a565b5b906000526020600020906007020160060160009054906101000a900460ff16611e1357600080fd5b600160078281548110611e2957611e28613a0a565b5b906000526020600020906007020160060160026101000a81548160ff021916908315150217905550611ec560078281548110611e6857611e67613a0a565b5b906000526020600020906007020160030160009054906101000a900473ffffffffffffffffffffffffffffffffffffffff1660078381548110611eae57611ead613a0a565b5b906000526020600020906007020160050154611b1f565b611f3b600660078381548110611ede57611edd613a0a565b5b90600052602060002090600702016004015481548110611f0157611f00613a0a565b5b906000526020600020906006020160040160009054906101000a900473ffffffffffffffffffffffffffffffffffffffff16600954611b1f565b6001600660078381548110611f5357611f52613a0a565b5b90600052602060002090600702016004015481548110611f7657611f75613a0a565b5b90600052602060002090600602016005016000828254611f969190613ab1565b9250508190555050565b3373ffffffffffffffffffffffffffffffffffffffff1660078281548110611fcb57611fca613a0a565b5b906000526020600020906007020160030160009054906101000a900473ffffffffffffffffffffffffffffffffffffffff1673ffffffffffffffffffffffffffffffffffffffff161461201d57600080fd5b3373ffffffffffffffffffffffffffffffffffffffff1660066007838154811061204a57612049613a0a565b5b9060005260206000209060070201600401548154811061206d5761206c613a0a565b5b906000526020600020906006020160030160009054906101000a900473ffffffffffffffffffffffffffffffffffffffff1673ffffffffffffffffffffffffffffffffffffffff16146120bf57600080fd5b6001600782815481106120d5576120d4613a0a565b5b906000526020600020906007020160060160016101000a81548160ff02191690831515021790555060006007828154811061211357612112613a0a565b5b906000526020600020906007020160060160006101000a81548160ff02191690831515021790555050565b60001515600360008573ffffffffffffffffffffffffffffffffffffffff1673ffffffffffffffffffffffffffffffffffffffff16815260200190815260200160002060020160003373ffffffffffffffffffffffffffffffffffffffff1673ffffffffffffffffffffffffffffffffffffffff16815260200190815260200160002060009054906101000a900460ff161515146121db57600080fd5b6000600680549050905060066040518061010001604052808381526020018581526020018481526020018673ffffffffffffffffffffffffffffffffffffffff1681526020013373ffffffffffffffffffffffffffffffffffffffff168152602001600015158152602001600015158152602001600081525090806001815401808255809150506001900390600052602060002090600602016000909190919091506000820151816000015560208201518160010190805190602001906122a3929190612ded565b5060408201518160020190805190602001906122c0929190612ded565b5060608201518160030160006101000a81548173ffffffffffffffffffffffffffffffffffffffff021916908373ffffffffffffffffffffffffffffffffffffffff16021790555060808201518160040160006101000a81548173ffffffffffffffffffffffffffffffffffffffff021916908373ffffffffffffffffffffffffffffffffffffffff16021790555060a08201518160040160146101000a81548160ff02191690831515021790555060c08201518160040160156101000a81548160ff02191690831515021790555060e082015181600501555050600360008573ffffffffffffffffffffffffffffffffffffffff1673ffffffffffffffffffffffffffffffffffffffff168152602001908152602001600020600001819080600181540180825580915050600190039060005260206000200160009091909190915055600460003373ffffffffffffffffffffffffffffffffffffffff1673ffffffffffffffffffffffffffffffffffffffff16815260200190815260200160002060000181908060018154018082558091505060019003906000526020600020016000909190919091505550505050565b60606000600360003373ffffffffffffffffffffffffffffffffffffffff1673ffffffffffffffffffffffffffffffffffffffff16815260200190815260200160002060000180549050905060008167ffffffffffffffff8111156124db576124da613208565b5b60405190808252806020026020018201604052801561251457816020015b612501612ef1565b8152602001906001900390816124f95790505b50905060005b828110156127f9576006600360003373ffffffffffffffffffffffffffffffffffffffff1673ffffffffffffffffffffffffffffffffffffffff168152602001908152602001600020600001828154811061257857612577613a0a565b5b90600052602060002001548154811061259457612593613a0a565b5b906000526020600020906006020160405180610100016040529081600082015481526020016001820180546125c8906139d8565b80601f01602080910402602001604051908101604052809291908181526020018280546125f4906139d8565b80156126415780601f1061261657610100808354040283529160200191612641565b820191906000526020600020905b81548152906001019060200180831161262457829003601f168201915b5050505050815260200160028201805461265a906139d8565b80601f0160208091040260200160405190810160405280929190818152602001828054612686906139d8565b80156126d35780601f106126a8576101008083540402835291602001916126d3565b820191906000526020600020905b8154815290600101906020018083116126b657829003601f168201915b505050505081526020016003820160009054906101000a900473ffffffffffffffffffffffffffffffffffffffff1673ffffffffffffffffffffffffffffffffffffffff1673ffffffffffffffffffffffffffffffffffffffff1681526020016004820160009054906101000a900473ffffffffffffffffffffffffffffffffffffffff1673ffffffffffffffffffffffffffffffffffffffff1673ffffffffffffffffffffffffffffffffffffffff1681526020016004820160149054906101000a900460ff161515151581526020016004820160159054906101000a900460ff161515151581526020016005820154815250508282815181106127db576127da613a0a565b5b602002602001018190525080806127f190613a68565b91505061251a565b50809250505090565b3373ffffffffffffffffffffffffffffffffffffffff16600860009054906101000a900473ffffffffffffffffffffffffffffffffffffffff1673ffffffffffffffffffffffffffffffffffffffff161461285c57600080fd5b6000600560008373ffffffffffffffffffffffffffffffffffffffff1673ffffffffffffffffffffffffffffffffffffffff16815260200190815260200160002060010160006101000a81548160ff02191690831515021790555050565b60606000600460003373ffffffffffffffffffffffffffffffffffffffff1673ffffffffffffffffffffffffffffffffffffffff16815260200190815260200160002060000180549050905060008167ffffffffffffffff81111561292257612921613208565b5b60405190808252806020026020018201604052801561295b57816020015b612948612ef1565b8152602001906001900390816129405790505b50905060005b82811015612c40576006600460003373ffffffffffffffffffffffffffffffffffffffff1673ffffffffffffffffffffffffffffffffffffffff16815260200190815260200160002060000182815481106129bf576129be613a0a565b5b9060005260206000200154815481106129db576129da613a0a565b5b90600052602060002090600602016040518061010001604052908160008201548152602001600182018054612a0f906139d8565b80601f0160208091040260200160405190810160405280929190818152602001828054612a3b906139d8565b8015612a885780601f10612a5d57610100808354040283529160200191612a88565b820191906000526020600020905b815481529060010190602001808311612a6b57829003601f168201915b50505050508152602001600282018054612aa1906139d8565b80601f0160208091040260200160405190810160405280929190818152602001828054612acd906139d8565b8015612b1a5780601f10612aef57610100808354040283529160200191612b1a565b820191906000526020600020905b815481529060010190602001808311612afd57829003601f168201915b505050505081526020016003820160009054906101000a900473ffffffffffffffffffffffffffffffffffffffff1673ffffffffffffffffffffffffffffffffffffffff1673ffffffffffffffffffffffffffffffffffffffff1681526020016004820160009054906101000a900473ffffffffffffffffffffffffffffffffffffffff1673ffffffffffffffffffffffffffffffffffffffff1673ffffffffffffffffffffffffffffffffffffffff1681526020016004820160149054906101000a900460ff161515151581526020016004820160159054906101000a900460ff16151515158152602001600582015481525050828281518110612c2257612c21613a0a565b5b60200260200101819052508080612c3890613a68565b915050612961565b50809250505090565b3373ffffffffffffffffffffffffffffffffffffffff1660078281548110612c7457612c73613a0a565b5b906000526020600020906007020160030160009054906101000a900473ffffffffffffffffffffffffffffffffffffffff1673ffffffffffffffffffffffffffffffffffffffff1614612cc657600080fd5b3373ffffffffffffffffffffffffffffffffffffffff16600660078381548110612cf357612cf2613a0a565b5b90600052602060002090600702016004015481548110612d1657612d15613a0a565b5b906000526020600020906006020160030160009054906101000a900473ffffffffffffffffffffffffffffffffffffffff1673ffffffffffffffffffffffffffffffffffffffff1614612d6857600080fd5b600160078281548110612d7e57612d7d613a0a565b5b906000526020600020906007020160060160006101000a81548160ff021916908315150217905550600060078281548110612dbc57612dbb613a0a565b5b906000526020600020906007020160060160016101000a81548160ff02191690831515021790555050565b60095481565b828054612df9906139d8565b90600052602060002090601f016020900481019282612e1b5760008555612e62565b82601f10612e3457805160ff1916838001178555612e62565b82800160010185558215612e62579182015b82811115612e61578251825591602001919060010190612e46565b5b509050612e6f9190612f66565b5090565b60405180610120016040528060008152602001600073ffffffffffffffffffffffffffffffffffffffff16815260200160608152602001600073ffffffffffffffffffffffffffffffffffffffff16815260200160008152602001600081526020016000151581526020016000151581526020016000151581525090565b604051806101000160405280600081526020016060815260200160608152602001600073ffffffffffffffffffffffffffffffffffffffff168152602001600073ffffffffffffffffffffffffffffffffffffffff168152602001600015158152602001600015158152602001600081525090565b5b80821115612f7f576000816000905550600101612f67565b5090565b6000604051905090565b600080fd5b600080fd5b600073ffffffffffffffffffffffffffffffffffffffff82169050919050565b6000612fc282612f97565b9050919050565b612fd281612fb7565b8114612fdd57600080fd5b50565b600081359050612fef81612fc9565b92915050565b60006020828403121561300b5761300a612f8d565b5b600061301984828501612fe0565b91505092915050565b6000819050919050565b61303581613022565b811461304057600080fd5b50565b6000813590506130528161302c565b92915050565b60006020828403121561306e5761306d612f8d565b5b600061307c84828501613043565b91505092915050565b61308e81613022565b82525050565b600081519050919050565b600082825260208201905092915050565b60005b838110156130ce5780820151818401526020810190506130b3565b838111156130dd576000848401525b50505050565b6000601f19601f8301169050919050565b60006130ff82613094565b613109818561309f565b93506131198185602086016130b0565b613122816130e3565b840191505092915050565b61313681612fb7565b82525050565b60008115159050919050565b6131518161313c565b82525050565b60006101008201905061316d600083018b613085565b818103602083015261317f818a6130f4565b9050818103604083015261319381896130f4565b90506131a2606083018861312d565b6131af608083018761312d565b6131bc60a0830186613148565b6131c960c0830185613148565b6131d660e0830184613085565b9998505050505050505050565b60006020820190506131f86000830184613085565b92915050565b600080fd5b600080fd5b7f4e487b7100000000000000000000000000000000000000000000000000000000600052604160045260246000fd5b613240826130e3565b810181811067ffffffffffffffff8211171561325f5761325e613208565b5b80604052505050565b6000613272612f83565b905061327e8282613237565b919050565b600067ffffffffffffffff82111561329e5761329d613208565b5b6132a7826130e3565b9050602081019050919050565b82818337600083830152505050565b60006132d66132d184613283565b613268565b9050828152602081018484840111156132f2576132f1613203565b5b6132fd8482856132b4565b509392505050565b600082601f83011261331a576133196131fe565b5b813561332a8482602086016132c3565b91505092915050565b600061333e82612f97565b9050919050565b61334e81613333565b811461335957600080fd5b50565b60008135905061336b81613345565b92915050565b6000806000806080858703121561338b5761338a612f8d565b5b600085013567ffffffffffffffff8111156133a9576133a8612f92565b5b6133b587828801613305565b94505060206133c68782880161335c565b93505060406133d787828801613043565b92505060606133e887828801613043565b91505092959194509250565b600081519050919050565b600082825260208201905092915050565b6000819050602082019050919050565b61342981613022565b82525050565b61343881612fb7565b82525050565b600082825260208201905092915050565b600061345a82613094565b613464818561343e565b93506134748185602086016130b0565b61347d816130e3565b840191505092915050565b61349181613333565b82525050565b6134a08161313c565b82525050565b6000610120830160008301516134bf6000860182613420565b5060208301516134d2602086018261342f565b50604083015184820360408601526134ea828261344f565b91505060608301516134ff6060860182613488565b5060808301516135126080860182613420565b5060a083015161352560a0860182613420565b5060c083015161353860c0860182613497565b5060e083015161354b60e0860182613497565b50610100830151613560610100860182613497565b508091505092915050565b600061357783836134a6565b905092915050565b6000602082019050919050565b6000613597826133f4565b6135a181856133ff565b9350836020820285016135b385613410565b8060005b858110156135ef57848403895281516135d0858261356b565b94506135db8361357f565b925060208a019950506001810190506135b7565b50829750879550505050505092915050565b6000602082019050818103600083015261361b818461358c565b905092915050565b6000602082019050613638600083018461312d565b92915050565b61364781613333565b82525050565b600061012082019050613663600083018c613085565b613670602083018b61312d565b8181036040830152613682818a6130f4565b9050613691606083018961363e565b61369e6080830188613085565b6136ab60a0830187613085565b6136b860c0830186613148565b6136c560e0830185613148565b6136d3610100830184613148565b9a9950505050505050505050565b600060208201905081810360008301526136fb81846130f4565b905092915050565b6000806040838503121561371a57613719612f8d565b5b60006137288582860161335c565b925050602061373985828601613043565b9150509250929050565b6000806040838503121561375a57613759612f8d565b5b600061376885828601612fe0565b925050602061377985828601613043565b9150509250929050565b60008060006060848603121561379c5761379b612f8d565b5b60006137aa86828701612fe0565b935050602084013567ffffffffffffffff8111156137cb576137ca612f92565b5b6137d786828701613305565b925050604084013567ffffffffffffffff8111156137f8576137f7612f92565b5b61380486828701613305565b9150509250925092565b600081519050919050565b600082825260208201905092915050565b6000819050602082019050919050565b6000610100830160008301516138536000860182613420565b506020830151848203602086015261386b828261344f565b91505060408301518482036040860152613885828261344f565b915050606083015161389a606086018261342f565b5060808301516138ad608086018261342f565b5060a08301516138c060a0860182613497565b5060c08301516138d360c0860182613497565b5060e08301516138e660e0860182613420565b508091505092915050565b60006138fd838361383a565b905092915050565b6000602082019050919050565b600061391d8261380e565b6139278185613819565b9350836020820285016139398561382a565b8060005b85811015613975578484038952815161395685826138f1565b945061396183613905565b925060208a0199505060018101905061393d565b50829750879550505050505092915050565b600060208201905081810360008301526139a18184613912565b905092915050565b7f4e487b7100000000000000000000000000000000000000000000000000000000600052602260045260246000fd5b600060028204905060018216806139f057607f821691505b60208210811415613a0457613a036139a9565b5b50919050565b7f4e487b7100000000000000000000000000000000000000000000000000000000600052603260045260246000fd5b7f4e487b7100000000000000000000000000000000000000000000000000000000600052601160045260246000fd5b6000613a7382613022565b91507fffffffffffffffffffffffffffffffffffffffffffffffffffffffffffffffff821415613aa657613aa5613a39565b5b600182019050919050565b6000613abc82613022565b9150613ac783613022565b9250827fffffffffffffffffffffffffffffffffffffffffffffffffffffffffffffffff03821115613afc57613afb613a39565b5b828201905092915050565b6000613b1282613022565b9150613b1d83613022565b925082821015613b3057613b2f613a39565b5b82820390509291505056fea2646970667358221220658974871f3f0e4ab3b612e8e9c7e472b2120086989ef50241f0d30c715c155564736f6c634300080b0033",
  "immutableReferences": {},
  "source": "pragma solidity ^0.8.4;\n\ncontract GeneSlimeMoldAlpha{\n    //\n    struct GeneHolder{\n        uint[] gene_mining_data_id_list;\n        uint[] use_event_id_list;\n        mapping(address => bool)block_address_list;\n    }\n\n    //\n    struct GeneMiner{\n        uint[] mined_gene_mining_data_id_list;\n        bool is_available;\n    }\n\n    //\n    struct UseEventMaker{\n        uint[] use_event_id_list;\n        bool is_available;\n    }\n\n    //\n    struct UseEvent{\n        uint id;\n        address event_owner_address;\n        string description;\n        address payable offer_to_address;\n        uint gene_data_id;\n        uint pay_amount;\n        bool is_approved;\n        bool is_blocked;\n        bool is_executed;\n    }\n    \n    //\n    struct GeneMiningData{\n        uint id;\n        string url;\n        string description;\n        address gene_holder_address;\n        address miner_address;\n        bool is_accepted_by_holder;\n        bool is_blocked_by_holder;\n        uint used_count;\n    }\n\n    //\n    string public coin_name = \"GeneCoin\";\n    string public symbol = \"GC\";\n\n    mapping(address => uint) public balances; //\n    mapping(address => GeneHolder) private gene_holder_list; //\n    mapping(address => GeneMiner) private gene_miner_list; //\n    mapping(address => UseEventMaker) private use_event_maker_list; //\n\n    GeneMiningData[] public gene_mining_data_list; //\n    UseEvent[] public use_event_list; //use event\n\n    address public supervisor; //\n    uint public miner_used_bonus = 10; //\n\n    constructor() public payable {\n        supervisor = msg.sender; //\n    }\n\n/*gene holder*/\n    //\n    function add_block_list(address block_address) public{\n        gene_holder_list[msg.sender].block_address_list[block_address] = true;\n    }\n\n    function remove_block_list(address block_address) public{\n        gene_holder_list[msg.sender].block_address_list[block_address] = false;\n    }\n\n/*gene miner*/\n    function generate_gene_miner(address miner_address) public {\n        require(supervisor == msg.sender);//\n        gene_miner_list[miner_address].is_available = true;\n    }\n\n    function invalidate_gene_miner(address miner_address) public {\n        require(supervisor == msg.sender);//\n        gene_miner_list[miner_address].is_available = false; \n    }\n\n/* use event maker */\n    function generate_use_event_maker(address use_event_maker_address) public {\n        require(supervisor == msg.sender);//\n        use_event_maker_list[use_event_maker_address].is_available = true;\n    }\n\n    function invalidate_use_event_maker(address use_event_maker_address) public {\n        require(supervisor == msg.sender);//\n        use_event_maker_list[use_event_maker_address].is_available = false; \n    }\n\n/* */\n    //use event maker use event \n    function generate_use_event(string memory description, address payable offer_to_address, uint gene_data_id, uint payment) public {\n        //require(use_event_maker_list[msg.sender].is_available);//event maker\n        require(gene_holder_list[offer_to_address].block_address_list[msg.sender] == false);//\n        require(gene_mining_data_list[gene_data_id].gene_holder_address == offer_to_address);//\n        require(gene_mining_data_list[gene_data_id].is_accepted_by_holder == true);\n        uint id = use_event_list.length;\n        \n        use_event_list.push(UseEvent(id, msg.sender, description, offer_to_address, gene_data_id, payment, false, false, false)); // use_event_listuse eventid\n        use_event_maker_list[msg.sender].use_event_id_list.push(id); //use_event_listid\n\n        gene_holder_list[offer_to_address].use_event_id_list.push(id);//gene holderid\n    }\n    \n    //use event\n    function approve_use_event_offer(uint use_event_id) public{\n        require(use_event_list[use_event_id].offer_to_address == msg.sender);\n        require(gene_mining_data_list[use_event_list[use_event_id].gene_data_id].gene_holder_address == msg.sender);\n        use_event_list[use_event_id].is_approved = true;\n        use_event_list[use_event_id].is_blocked = false;\n    }\n\n    //use event\n    function block_use_event_offer(uint use_event_id) public{\n        require(use_event_list[use_event_id].offer_to_address == msg.sender);\n        require(gene_mining_data_list[use_event_list[use_event_id].gene_data_id].gene_holder_address == msg.sender);\n        use_event_list[use_event_id].is_blocked = true;\n        use_event_list[use_event_id].is_approved = false;\n    }\n\n/**/\n    //\n    function balanceOf() public view returns (uint) {\n        return (balances[msg.sender]);\n    }\n    //msg.sender\n    function transfer(address _to, uint256 _value) public {\n        require(_value <= balances[msg.sender]);\n\n        balances[msg.sender] -= _value;\n        balances[_to] += _value;\n    }\n    \n    //SuperVisor\n    function supervisorTransfer(address _to, uint256 _value) public{\n        require(supervisor == msg.sender);\n        balances[_to] += _value;\n\n\n    }\n/**/\n\n    //\n    function balance_to(address payable reciever_address, uint pay_amount) public payable{\n        reciever_address.transfer(pay_amount);\n    }\n\n    //use event\n    function execute_use_event(uint use_event_id)public{\n        require(use_event_list[use_event_id].event_owner_address == msg.sender);\n        require(use_event_list[use_event_id].is_executed == false);        \n        require(use_event_list[use_event_id].is_approved);\n        //require(use_event_list[use_event_id].pay_amount <= address(this).balance);\n        //balance_to(use_event_list[use_event_id].offer_to_address, use_event_list[use_event_id].pay_amount);\n        use_event_list[use_event_id].is_executed = true;\n\n        transfer(use_event_list[use_event_id].offer_to_address, use_event_list[use_event_id].pay_amount);\n        transfer(gene_mining_data_list[use_event_list[use_event_id].gene_data_id].miner_address, miner_used_bonus);\n        gene_mining_data_list[use_event_list[use_event_id].gene_data_id].used_count += 1;\n    }\n\n/**/\n    //\n    function register_mining_gene(address gene_holder_address, string memory gene_url, string memory description) public {\n        //require(gene_miner_list[msg.sender].is_available);\n        require(gene_holder_list[gene_holder_address].block_address_list[msg.sender] == false);//\n        uint id = gene_mining_data_list.length;\n\n        gene_mining_data_list.push(GeneMiningData(id, gene_url, description, gene_holder_address, msg.sender, false, false, 0));\n        gene_holder_list[gene_holder_address].gene_mining_data_id_list.push(id);\n        gene_miner_list[msg.sender].mined_gene_mining_data_id_list.push(id);\n    }\n    \n    //\n    function accept_mining_gene(uint gene_mining_data_id) public {\n        require(gene_mining_data_list[gene_mining_data_id].gene_holder_address == msg.sender);\n        gene_mining_data_list[gene_mining_data_id].is_blocked_by_holder = false;\n        gene_mining_data_list[gene_mining_data_id].is_accepted_by_holder = true;\n        \n    }\n\n    //\n    function blocked_mining_gene(uint gene_mining_data_id) public {\n        require(gene_mining_data_list[gene_mining_data_id].gene_holder_address == msg.sender);\n        gene_mining_data_list[gene_mining_data_id].is_accepted_by_holder = false;\n        gene_mining_data_list[gene_mining_data_id].is_blocked_by_holder = true;\n    }\n\n    \n/**/\n    //\n    function request_my_account_address() public view returns(address){\n        return msg.sender;\n    }\n\n    //\n    function request_own_gene_mining_data_list() external view returns(GeneMiningData[] memory){\n        uint array_length = gene_holder_list[msg.sender].gene_mining_data_id_list.length;  \n        GeneMiningData[] memory own_gene_mining_data_list = new GeneMiningData[](array_length);\n\n        for(uint i = 0; i < array_length; i++){\n            own_gene_mining_data_list[i] = gene_mining_data_list[gene_holder_list[msg.sender].gene_mining_data_id_list[i]];\n        }\n\n        return own_gene_mining_data_list;\n    }\n\n    //use event\n    function request_own_use_event_list() external view returns(UseEvent[] memory){\n        uint array_length = gene_holder_list[msg.sender].use_event_id_list.length;\n        UseEvent[] memory own_use_event_list = new UseEvent[](array_length);\n        \n        for(uint i = 0; i < array_length; i++){\n            own_use_event_list[i] = use_event_list[gene_holder_list[msg.sender].use_event_id_list[i]];\n        }\n\n        return own_use_event_list;\n    }\n\n    //\n    function request_own_mined_gene_mining_data_list() external view returns(GeneMiningData[] memory){\n        uint array_length = gene_miner_list[msg.sender].mined_gene_mining_data_id_list.length;\n        GeneMiningData[] memory own_mined_gene_mining_data_list = new GeneMiningData[](array_length);\n        \n        for(uint i = 0; i < array_length; i++){\n            own_mined_gene_mining_data_list[i] = gene_mining_data_list[gene_miner_list[msg.sender].mined_gene_mining_data_id_list[i]];\n        }\n\n        return own_mined_gene_mining_data_list;\n    }\n\n    //use event\n    function request_own_made_use_event_list() external view returns(UseEvent[] memory){\n        uint array_length = use_event_maker_list[msg.sender].use_event_id_list.length;\n        UseEvent[] memory own_use_event_list = new UseEvent[](array_length);\n\n        for(uint i = 0; i < array_length; i++){\n            own_use_event_list[i] = use_event_list[use_event_maker_list[msg.sender].use_event_id_list[i]];\n        }\n\n        return own_use_event_list;\n    }\n\n}",
  "sourcePath": "C:\\Users\\okuda\\OneDrive\\\\gitRepository\\SecHack365GeneSlimeMold\\SecHack365GeneSlimeMold\\contracts\\GeneSlimeMoldAlpha.sol",
  "compiler": {
    "name": "solc",
    "version": "0.8.11+commit.d7f03943.Emscripten.clang"
  },
  "schemaVersion": "3.4.3",
  "updatedAt": "2022-01-22T02:20:15.507Z",
  "networkType": "ethereum",
  "devdoc": {
    "kind": "dev",
    "methods": {},
    "version": 1
  },
  "userdoc": {
    "kind": "user",
    "methods": {},
    "version": 1
  }
}