{
  "contractName": "GeneSlimeMoldAlpha",
  "abi": [
    {
      "inputs": [],
      "stateMutability": "nonpayable",
      "type": "constructor"
    },
    {
      "inputs": [
        {
          "internalType": "uint256",
          "name": "",
          "type": "uint256"
        }
      ],
      "name": "gene_mining_data_list",
      "outputs": [
        {
          "internalType": "uint256",
          "name": "id",
          "type": "uint256"
        },
        {
          "internalType": "string",
          "name": "url",
          "type": "string"
        },
        {
          "internalType": "string",
          "name": "description",
          "type": "string"
        },
        {
          "internalType": "address",
          "name": "gene_holder_address",
          "type": "address"
        },
        {
          "internalType": "address",
          "name": "miner_address",
          "type": "address"
        },
        {
          "internalType": "bool",
          "name": "is_accepted_by_holder",
          "type": "bool"
        },
        {
          "internalType": "bool",
          "name": "is_blocked_by_holder",
          "type": "bool"
        }
      ],
      "stateMutability": "view",
      "type": "function",
      "constant": true
    },
    {
      "inputs": [],
      "name": "supervisor",
      "outputs": [
        {
          "internalType": "address",
          "name": "",
          "type": "address"
        }
      ],
      "stateMutability": "view",
      "type": "function",
      "constant": true
    },
    {
      "inputs": [
        {
          "internalType": "uint256",
          "name": "",
          "type": "uint256"
        }
      ],
      "name": "use_event_list",
      "outputs": [
        {
          "internalType": "uint256",
          "name": "id",
          "type": "uint256"
        },
        {
          "internalType": "address",
          "name": "event_owner_address",
          "type": "address"
        },
        {
          "internalType": "string",
          "name": "description",
          "type": "string"
        },
        {
          "internalType": "address payable",
          "name": "offer_to_address",
          "type": "address"
        },
        {
          "internalType": "uint256",
          "name": "pay_amount",
          "type": "uint256"
        },
        {
          "internalType": "bool",
          "name": "is_approved",
          "type": "bool"
        },
        {
          "internalType": "bool",
          "name": "is_blocked",
          "type": "bool"
        },
        {
          "internalType": "bool",
          "name": "is_executed",
          "type": "bool"
        }
      ],
      "stateMutability": "view",
      "type": "function",
      "constant": true
    },
    {
      "inputs": [
        {
          "internalType": "address",
          "name": "block_address",
          "type": "address"
        }
      ],
      "name": "add_block_list",
      "outputs": [],
      "stateMutability": "nonpayable",
      "type": "function"
    },
    {
      "inputs": [
        {
          "internalType": "address",
          "name": "block_address",
          "type": "address"
        }
      ],
      "name": "remove_block_list",
      "outputs": [],
      "stateMutability": "nonpayable",
      "type": "function"
    },
    {
      "inputs": [
        {
          "internalType": "address",
          "name": "miner_address",
          "type": "address"
        }
      ],
      "name": "generate_gene_miner",
      "outputs": [],
      "stateMutability": "nonpayable",
      "type": "function"
    },
    {
      "inputs": [
        {
          "internalType": "address",
          "name": "miner_address",
          "type": "address"
        }
      ],
      "name": "invalidate_gene_miner",
      "outputs": [],
      "stateMutability": "nonpayable",
      "type": "function"
    },
    {
      "inputs": [
        {
          "internalType": "address",
          "name": "use_event_maker_address",
          "type": "address"
        }
      ],
      "name": "generate_use_event_maker",
      "outputs": [],
      "stateMutability": "nonpayable",
      "type": "function"
    },
    {
      "inputs": [
        {
          "internalType": "address",
          "name": "use_event_maker_address",
          "type": "address"
        }
      ],
      "name": "invalidate_use_event_maker",
      "outputs": [],
      "stateMutability": "nonpayable",
      "type": "function"
    },
    {
      "inputs": [
        {
          "internalType": "string",
          "name": "description",
          "type": "string"
        },
        {
          "internalType": "address payable",
          "name": "offer_to_address",
          "type": "address"
        },
        {
          "internalType": "uint256",
          "name": "payment",
          "type": "uint256"
        }
      ],
      "name": "generate_use_event",
      "outputs": [],
      "stateMutability": "nonpayable",
      "type": "function"
    },
    {
      "inputs": [
        {
          "internalType": "uint256",
          "name": "use_event_id",
          "type": "uint256"
        }
      ],
      "name": "approve_use_event_offer",
      "outputs": [],
      "stateMutability": "nonpayable",
      "type": "function"
    },
    {
      "inputs": [
        {
          "internalType": "uint256",
          "name": "use_event_id",
          "type": "uint256"
        }
      ],
      "name": "block_use_event_offer",
      "outputs": [],
      "stateMutability": "nonpayable",
      "type": "function"
    },
    {
      "inputs": [
        {
          "internalType": "address payable",
          "name": "reciever_address",
          "type": "address"
        },
        {
          "internalType": "uint256",
          "name": "pay_amount",
          "type": "uint256"
        }
      ],
      "name": "balance_to",
      "outputs": [],
      "stateMutability": "payable",
      "type": "function",
      "payable": true
    },
    {
      "inputs": [
        {
          "internalType": "uint256",
          "name": "use_event_id",
          "type": "uint256"
        }
      ],
      "name": "execute_use_event",
      "outputs": [],
      "stateMutability": "nonpayable",
      "type": "function"
    },
    {
      "inputs": [
        {
          "internalType": "address",
          "name": "gene_holder_address",
          "type": "address"
        },
        {
          "internalType": "string",
          "name": "gene_url",
          "type": "string"
        },
        {
          "internalType": "string",
          "name": "description",
          "type": "string"
        }
      ],
      "name": "register_mining_gene",
      "outputs": [],
      "stateMutability": "nonpayable",
      "type": "function"
    },
    {
      "inputs": [
        {
          "internalType": "uint256",
          "name": "gene_mining_data_id",
          "type": "uint256"
        }
      ],
      "name": "accept_mining_gene",
      "outputs": [],
      "stateMutability": "nonpayable",
      "type": "function"
    },
    {
      "inputs": [
        {
          "internalType": "uint256",
          "name": "gene_mining_data_id",
          "type": "uint256"
        }
      ],
      "name": "blocked_mining_gene",
      "outputs": [],
      "stateMutability": "nonpayable",
      "type": "function"
    },
    {
      "inputs": [],
      "name": "request_my_account_address",
      "outputs": [
        {
          "internalType": "address",
          "name": "",
          "type": "address"
        }
      ],
      "stateMutability": "view",
      "type": "function",
      "constant": true
    },
    {
      "inputs": [],
      "name": "request_own_gene_mining_data_list",
      "outputs": [
        {
          "components": [
            {
              "internalType": "uint256",
              "name": "id",
              "type": "uint256"
            },
            {
              "internalType": "string",
              "name": "url",
              "type": "string"
            },
            {
              "internalType": "string",
              "name": "description",
              "type": "string"
            },
            {
              "internalType": "address",
              "name": "gene_holder_address",
              "type": "address"
            },
            {
              "internalType": "address",
              "name": "miner_address",
              "type": "address"
            },
            {
              "internalType": "bool",
              "name": "is_accepted_by_holder",
              "type": "bool"
            },
            {
              "internalType": "bool",
              "name": "is_blocked_by_holder",
              "type": "bool"
            }
          ],
          "internalType": "struct GeneSlimeMoldAlpha.GeneMiningData[]",
          "name": "",
          "type": "tuple[]"
        }
      ],
      "stateMutability": "view",
      "type": "function",
      "constant": true
    },
    {
      "inputs": [],
      "name": "request_own_use_event_list",
      "outputs": [
        {
          "components": [
            {
              "internalType": "uint256",
              "name": "id",
              "type": "uint256"
            },
            {
              "internalType": "address",
              "name": "event_owner_address",
              "type": "address"
            },
            {
              "internalType": "string",
              "name": "description",
              "type": "string"
            },
            {
              "internalType": "address payable",
              "name": "offer_to_address",
              "type": "address"
            },
            {
              "internalType": "uint256",
              "name": "pay_amount",
              "type": "uint256"
            },
            {
              "internalType": "bool",
              "name": "is_approved",
              "type": "bool"
            },
            {
              "internalType": "bool",
              "name": "is_blocked",
              "type": "bool"
            },
            {
              "internalType": "bool",
              "name": "is_executed",
              "type": "bool"
            }
          ],
          "internalType": "struct GeneSlimeMoldAlpha.UseEvent[]",
          "name": "",
          "type": "tuple[]"
        }
      ],
      "stateMutability": "view",
      "type": "function",
      "constant": true
    },
    {
      "inputs": [],
      "name": "request_own_mined_gene_mining_data_list",
      "outputs": [
        {
          "components": [
            {
              "internalType": "uint256",
              "name": "id",
              "type": "uint256"
            },
            {
              "internalType": "string",
              "name": "url",
              "type": "string"
            },
            {
              "internalType": "string",
              "name": "description",
              "type": "string"
            },
            {
              "internalType": "address",
              "name": "gene_holder_address",
              "type": "address"
            },
            {
              "internalType": "address",
              "name": "miner_address",
              "type": "address"
            },
            {
              "internalType": "bool",
              "name": "is_accepted_by_holder",
              "type": "bool"
            },
            {
              "internalType": "bool",
              "name": "is_blocked_by_holder",
              "type": "bool"
            }
          ],
          "internalType": "struct GeneSlimeMoldAlpha.GeneMiningData[]",
          "name": "",
          "type": "tuple[]"
        }
      ],
      "stateMutability": "view",
      "type": "function",
      "constant": true
    },
    {
      "inputs": [],
      "name": "request_own_made_use_event_list",
      "outputs": [
        {
          "components": [
            {
              "internalType": "uint256",
              "name": "id",
              "type": "uint256"
            },
            {
              "internalType": "address",
              "name": "event_owner_address",
              "type": "address"
            },
            {
              "internalType": "string",
              "name": "description",
              "type": "string"
            },
            {
              "internalType": "address payable",
              "name": "offer_to_address",
              "type": "address"
            },
            {
              "internalType": "uint256",
              "name": "pay_amount",
              "type": "uint256"
            },
            {
              "internalType": "bool",
              "name": "is_approved",
              "type": "bool"
            },
            {
              "internalType": "bool",
              "name": "is_blocked",
              "type": "bool"
            },
            {
              "internalType": "bool",
              "name": "is_executed",
              "type": "bool"
            }
          ],
          "internalType": "struct GeneSlimeMoldAlpha.UseEvent[]",
          "name": "",
          "type": "tuple[]"
        }
      ],
      "stateMutability": "view",
      "type": "function",
      "constant": true
    }
  ],
  "bytecode": "0x608060405234801561001057600080fd5b5033600660006101000a81548173ffffffffffffffffffffffffffffffffffffffff021916908373ffffffffffffffffffffffffffffffffffffffff160217905550612f3c806100616000396000f3fe6080604052600436106101355760003560e01c806388df39fb116100ab578063bbb0d9261161006f578063bbb0d926146103fa578063c3cb096514610423578063d417bd571461044c578063dad7aa5f14610477578063f38a36a4146104a0578063f4092aec146104cb57610135565b806388df39fb1461033a5780638cf005e714610363578063a1ea13041461038c578063b06355c5146103a8578063b7082e04146103d157610135565b806356e4b68b116100fd57806356e4b68b146102235780635a8515ea1461024e5780635ca9afb61461027957806374632b86146102a457806379fed660146102cd578063821dc23f146102f657610135565b80630b6d7b0e1461013a57806314a8ba97146101635780631af12f96146101a65780633fbeb5da146101cf57806348d3d7a0146101f8575b600080fd5b34801561014657600080fd5b50610161600480360381019061015c9190612522565b6104f4565b005b34801561016f57600080fd5b5061018a60048036038101906101859190612585565b61058e565b60405161019d9796959493929190612684565b60405180910390f35b3480156101b257600080fd5b506101cd60048036038101906101c89190612874565b61074a565b005b3480156101db57600080fd5b506101f660048036038101906101f19190612522565b610a82565b005b34801561020457600080fd5b5061020d610b3a565b60405161021a9190612adb565b60405180910390f35b34801561022f57600080fd5b50610238610e03565b6040516102459190612afd565b60405180910390f35b34801561025a57600080fd5b50610263610e29565b6040516102709190612adb565b60405180910390f35b34801561028557600080fd5b5061028e6110f1565b60405161029b9190612afd565b60405180910390f35b3480156102b057600080fd5b506102cb60048036038101906102c69190612522565b6110f9565b005b3480156102d957600080fd5b506102f460048036038101906102ef9190612585565b6111b0565b005b34801561030257600080fd5b5061031d60048036038101906103189190612585565b6112ac565b604051610331989796959493929190612b27565b60405180910390f35b34801561034657600080fd5b50610361600480360381019061035c9190612522565b6113f3565b005b34801561036f57600080fd5b5061038a60048036038101906103859190612522565b61148d565b005b6103a660048036038101906103a19190612bac565b611545565b005b3480156103b457600080fd5b506103cf60048036038101906103ca9190612585565b611590565b005b3480156103dd57600080fd5b506103f860048036038101906103f39190612585565b61168c565b005b34801561040657600080fd5b50610421600480360381019061041c9190612585565b61186f565b005b34801561042f57600080fd5b5061044a60048036038101906104459190612bec565b61196b565b005b34801561045857600080fd5b50610461611bf0565b60405161046e9190612ddc565b60405180910390f35b34801561048357600080fd5b5061049e60048036038101906104999190612522565b611f24565b005b3480156104ac57600080fd5b506104b5611fdc565b6040516104c29190612ddc565b60405180910390f35b3480156104d757600080fd5b506104f260048036038101906104ed9190612585565b612311565b005b60008060003373ffffffffffffffffffffffffffffffffffffffff1673ffffffffffffffffffffffffffffffffffffffff16815260200190815260200160002060020160008373ffffffffffffffffffffffffffffffffffffffff1673ffffffffffffffffffffffffffffffffffffffff16815260200190815260200160002060006101000a81548160ff02191690831515021790555050565b6004818154811061059e57600080fd5b90600052602060002090600502016000915090508060000154908060010180546105c790612e2d565b80601f01602080910402602001604051908101604052809291908181526020018280546105f390612e2d565b80156106405780601f1061061557610100808354040283529160200191610640565b820191906000526020600020905b81548152906001019060200180831161062357829003601f168201915b50505050509080600201805461065590612e2d565b80601f016020809104026020016040519081016040528092919081815260200182805461068190612e2d565b80156106ce5780601f106106a3576101008083540402835291602001916106ce565b820191906000526020600020905b8154815290600101906020018083116106b157829003601f168201915b5050505050908060030160009054906101000a900473ffffffffffffffffffffffffffffffffffffffff16908060040160009054906101000a900473ffffffffffffffffffffffffffffffffffffffff16908060040160149054906101000a900460ff16908060040160159054906101000a900460ff16905087565b600015156000808473ffffffffffffffffffffffffffffffffffffffff1673ffffffffffffffffffffffffffffffffffffffff16815260200190815260200160002060020160003373ffffffffffffffffffffffffffffffffffffffff1673ffffffffffffffffffffffffffffffffffffffff16815260200190815260200160002060009054906101000a900460ff161515146107e657600080fd5b6000600380549050905060036040518061010001604052808381526020013373ffffffffffffffffffffffffffffffffffffffff1681526020018681526020018573ffffffffffffffffffffffffffffffffffffffff1681526020018481526020016000151581526020016000151581526020016000151581525090806001815401808255809150506001900390600052602060002090600602016000909190919091506000820151816000015560208201518160010160006101000a81548173ffffffffffffffffffffffffffffffffffffffff021916908373ffffffffffffffffffffffffffffffffffffffff16021790555060408201518160020190805190602001906108f792919061240d565b5060608201518160030160006101000a81548173ffffffffffffffffffffffffffffffffffffffff021916908373ffffffffffffffffffffffffffffffffffffffff1602179055506080820151816004015560a08201518160050160006101000a81548160ff02191690831515021790555060c08201518160050160016101000a81548160ff02191690831515021790555060e08201518160050160026101000a81548160ff0219169083151502179055505050600260003373ffffffffffffffffffffffffffffffffffffffff1673ffffffffffffffffffffffffffffffffffffffff1681526020019081526020016000206000018190806001815401808255809150506001900390600052602060002001600090919091909150556000808473ffffffffffffffffffffffffffffffffffffffff1673ffffffffffffffffffffffffffffffffffffffff16815260200190815260200160002060010181908060018154018082558091505060019003906000526020600020016000909190919091505550505050565b3373ffffffffffffffffffffffffffffffffffffffff16600660009054906101000a900473ffffffffffffffffffffffffffffffffffffffff1673ffffffffffffffffffffffffffffffffffffffff1614610adc57600080fd5b6000600160008373ffffffffffffffffffffffffffffffffffffffff1673ffffffffffffffffffffffffffffffffffffffff16815260200190815260200160002060010160006101000a81548160ff02191690831515021790555050565b6060806060600260003373ffffffffffffffffffffffffffffffffffffffff1673ffffffffffffffffffffffffffffffffffffffff168152602001908152602001600020600001805480602002602001604051908101604052809291908181526020018280548015610bcb57602002820191906000526020600020905b815481526020019060010190808311610bb7575b5050505050915060005b8251811015610dfa576003838281518110610bf357610bf2612e5f565b5b602002602001015181548110610c0c57610c0b612e5f565b5b906000526020600020906006020160405180610100016040529081600082015481526020016001820160009054906101000a900473ffffffffffffffffffffffffffffffffffffffff1673ffffffffffffffffffffffffffffffffffffffff1673ffffffffffffffffffffffffffffffffffffffff168152602001600282018054610c9690612e2d565b80601f0160208091040260200160405190810160405280929190818152602001828054610cc290612e2d565b8015610d0f5780601f10610ce457610100808354040283529160200191610d0f565b820191906000526020600020905b815481529060010190602001808311610cf257829003601f168201915b505050505081526020016003820160009054906101000a900473ffffffffffffffffffffffffffffffffffffffff1673ffffffffffffffffffffffffffffffffffffffff1673ffffffffffffffffffffffffffffffffffffffff168152602001600482015481526020016005820160009054906101000a900460ff161515151581526020016005820160019054906101000a900460ff161515151581526020016005820160029054906101000a900460ff161515151581525050828281518110610ddc57610ddb612e5f565b5b60200260200101819052508080610df290612ebd565b915050610bd5565b50809250505090565b600660009054906101000a900473ffffffffffffffffffffffffffffffffffffffff1681565b60608060606000803373ffffffffffffffffffffffffffffffffffffffff1673ffffffffffffffffffffffffffffffffffffffff168152602001908152602001600020600101805480602002602001604051908101604052809291908181526020018280548015610eb957602002820191906000526020600020905b815481526020019060010190808311610ea5575b5050505050915060005b82518110156110e8576003838281518110610ee157610ee0612e5f565b5b602002602001015181548110610efa57610ef9612e5f565b5b906000526020600020906006020160405180610100016040529081600082015481526020016001820160009054906101000a900473ffffffffffffffffffffffffffffffffffffffff1673ffffffffffffffffffffffffffffffffffffffff1673ffffffffffffffffffffffffffffffffffffffff168152602001600282018054610f8490612e2d565b80601f0160208091040260200160405190810160405280929190818152602001828054610fb090612e2d565b8015610ffd5780601f10610fd257610100808354040283529160200191610ffd565b820191906000526020600020905b815481529060010190602001808311610fe057829003601f168201915b505050505081526020016003820160009054906101000a900473ffffffffffffffffffffffffffffffffffffffff1673ffffffffffffffffffffffffffffffffffffffff1673ffffffffffffffffffffffffffffffffffffffff168152602001600482015481526020016005820160009054906101000a900460ff161515151581526020016005820160019054906101000a900460ff161515151581526020016005820160029054906101000a900460ff1615151515815250508282815181106110ca576110c9612e5f565b5b602002602001018190525080806110e090612ebd565b915050610ec3565b50809250505090565b600033905090565b3373ffffffffffffffffffffffffffffffffffffffff16600660009054906101000a900473ffffffffffffffffffffffffffffffffffffffff1673ffffffffffffffffffffffffffffffffffffffff161461115357600080fd5b60018060008373ffffffffffffffffffffffffffffffffffffffff1673ffffffffffffffffffffffffffffffffffffffff16815260200190815260200160002060010160006101000a81548160ff02191690831515021790555050565b3373ffffffffffffffffffffffffffffffffffffffff16600482815481106111db576111da612e5f565b5b906000526020600020906005020160030160009054906101000a900473ffffffffffffffffffffffffffffffffffffffff1673ffffffffffffffffffffffffffffffffffffffff161461122d57600080fd5b60006004828154811061124357611242612e5f565b5b906000526020600020906005020160040160146101000a81548160ff02191690831515021790555060016004828154811061128157611280612e5f565b5b906000526020600020906005020160040160156101000a81548160ff02191690831515021790555050565b600381815481106112bc57600080fd5b90600052602060002090600602016000915090508060000154908060010160009054906101000a900473ffffffffffffffffffffffffffffffffffffffff169080600201805461130b90612e2d565b80601f016020809104026020016040519081016040528092919081815260200182805461133790612e2d565b80156113845780601f1061135957610100808354040283529160200191611384565b820191906000526020600020905b81548152906001019060200180831161136757829003601f168201915b5050505050908060030160009054906101000a900473ffffffffffffffffffffffffffffffffffffffff16908060040154908060050160009054906101000a900460ff16908060050160019054906101000a900460ff16908060050160029054906101000a900460ff16905088565b60016000803373ffffffffffffffffffffffffffffffffffffffff1673ffffffffffffffffffffffffffffffffffffffff16815260200190815260200160002060020160008373ffffffffffffffffffffffffffffffffffffffff1673ffffffffffffffffffffffffffffffffffffffff16815260200190815260200160002060006101000a81548160ff02191690831515021790555050565b3373ffffffffffffffffffffffffffffffffffffffff16600660009054906101000a900473ffffffffffffffffffffffffffffffffffffffff1673ffffffffffffffffffffffffffffffffffffffff16146114e757600080fd5b6001600260008373ffffffffffffffffffffffffffffffffffffffff1673ffffffffffffffffffffffffffffffffffffffff16815260200190815260200160002060010160006101000a81548160ff02191690831515021790555050565b8173ffffffffffffffffffffffffffffffffffffffff166108fc829081150290604051600060405180830381858888f1935050505015801561158b573d6000803e3d6000fd5b505050565b3373ffffffffffffffffffffffffffffffffffffffff16600482815481106115bb576115ba612e5f565b5b906000526020600020906005020160030160009054906101000a900473ffffffffffffffffffffffffffffffffffffffff1673ffffffffffffffffffffffffffffffffffffffff161461160d57600080fd5b60006004828154811061162357611622612e5f565b5b906000526020600020906005020160040160156101000a81548160ff02191690831515021790555060016004828154811061166157611660612e5f565b5b906000526020600020906005020160040160146101000a81548160ff02191690831515021790555050565b3373ffffffffffffffffffffffffffffffffffffffff16600382815481106116b7576116b6612e5f565b5b906000526020600020906006020160010160009054906101000a900473ffffffffffffffffffffffffffffffffffffffff1673ffffffffffffffffffffffffffffffffffffffff161461170957600080fd5b600015156003828154811061172157611720612e5f565b5b906000526020600020906006020160050160029054906101000a900460ff1615151461174c57600080fd5b600381815481106117605761175f612e5f565b5b906000526020600020906006020160050160009054906101000a900460ff1661178857600080fd5b476003828154811061179d5761179c612e5f565b5b90600052602060002090600602016004015411156117ba57600080fd5b61182e600382815481106117d1576117d0612e5f565b5b906000526020600020906006020160030160009054906101000a900473ffffffffffffffffffffffffffffffffffffffff166003838154811061181757611816612e5f565b5b906000526020600020906006020160040154611545565b60016003828154811061184457611843612e5f565b5b906000526020600020906006020160050160026101000a81548160ff02191690831515021790555050565b3373ffffffffffffffffffffffffffffffffffffffff166003828154811061189a57611899612e5f565b5b906000526020600020906006020160030160009054906101000a900473ffffffffffffffffffffffffffffffffffffffff1673ffffffffffffffffffffffffffffffffffffffff16146118ec57600080fd5b60016003828154811061190257611901612e5f565b5b906000526020600020906006020160050160016101000a81548160ff0219169083151502179055506000600382815481106119405761193f612e5f565b5b906000526020600020906006020160050160006101000a81548160ff02191690831515021790555050565b6000600480549050905060046040518060e001604052808381526020018581526020018481526020018673ffffffffffffffffffffffffffffffffffffffff1681526020013373ffffffffffffffffffffffffffffffffffffffff168152602001600015158152602001600015158152509080600181540180825580915050600190039060005260206000209060050201600090919091909150600082015181600001556020820151816001019080519060200190611a2b92919061240d565b506040820151816002019080519060200190611a4892919061240d565b5060608201518160030160006101000a81548173ffffffffffffffffffffffffffffffffffffffff021916908373ffffffffffffffffffffffffffffffffffffffff16021790555060808201518160040160006101000a81548173ffffffffffffffffffffffffffffffffffffffff021916908373ffffffffffffffffffffffffffffffffffffffff16021790555060a08201518160040160146101000a81548160ff02191690831515021790555060c08201518160040160156101000a81548160ff02191690831515021790555050506000808573ffffffffffffffffffffffffffffffffffffffff1673ffffffffffffffffffffffffffffffffffffffff168152602001908152602001600020600001819080600181540180825580915050600190039060005260206000200160009091909190915055600160003373ffffffffffffffffffffffffffffffffffffffff1673ffffffffffffffffffffffffffffffffffffffff16815260200190815260200160002060000181908060018154018082558091505060019003906000526020600020016000909190919091505550505050565b60608060606000803373ffffffffffffffffffffffffffffffffffffffff1673ffffffffffffffffffffffffffffffffffffffff168152602001908152602001600020600001805480602002602001604051908101604052809291908181526020018280548015611c8057602002820191906000526020600020905b815481526020019060010190808311611c6c575b5050505050915060005b8251811015611f1b576004838281518110611ca857611ca7612e5f565b5b602002602001015181548110611cc157611cc0612e5f565b5b90600052602060002090600502016040518060e001604052908160008201548152602001600182018054611cf490612e2d565b80601f0160208091040260200160405190810160405280929190818152602001828054611d2090612e2d565b8015611d6d5780601f10611d4257610100808354040283529160200191611d6d565b820191906000526020600020905b815481529060010190602001808311611d5057829003601f168201915b50505050508152602001600282018054611d8690612e2d565b80601f0160208091040260200160405190810160405280929190818152602001828054611db290612e2d565b8015611dff5780601f10611dd457610100808354040283529160200191611dff565b820191906000526020600020905b815481529060010190602001808311611de257829003601f168201915b505050505081526020016003820160009054906101000a900473ffffffffffffffffffffffffffffffffffffffff1673ffffffffffffffffffffffffffffffffffffffff1673ffffffffffffffffffffffffffffffffffffffff1681526020016004820160009054906101000a900473ffffffffffffffffffffffffffffffffffffffff1673ffffffffffffffffffffffffffffffffffffffff1673ffffffffffffffffffffffffffffffffffffffff1681526020016004820160149054906101000a900460ff161515151581526020016004820160159054906101000a900460ff161515151581525050828281518110611efd57611efc612e5f565b5b60200260200101819052508080611f1390612ebd565b915050611c8a565b50809250505090565b3373ffffffffffffffffffffffffffffffffffffffff16600660009054906101000a900473ffffffffffffffffffffffffffffffffffffffff1673ffffffffffffffffffffffffffffffffffffffff1614611f7e57600080fd5b6000600260008373ffffffffffffffffffffffffffffffffffffffff1673ffffffffffffffffffffffffffffffffffffffff16815260200190815260200160002060010160006101000a81548160ff02191690831515021790555050565b6060806060600160003373ffffffffffffffffffffffffffffffffffffffff1673ffffffffffffffffffffffffffffffffffffffff16815260200190815260200160002060000180548060200260200160405190810160405280929190818152602001828054801561206d57602002820191906000526020600020905b815481526020019060010190808311612059575b5050505050915060005b825181101561230857600483828151811061209557612094612e5f565b5b6020026020010151815481106120ae576120ad612e5f565b5b90600052602060002090600502016040518060e0016040529081600082015481526020016001820180546120e190612e2d565b80601f016020809104026020016040519081016040528092919081815260200182805461210d90612e2d565b801561215a5780601f1061212f5761010080835404028352916020019161215a565b820191906000526020600020905b81548152906001019060200180831161213d57829003601f168201915b5050505050815260200160028201805461217390612e2d565b80601f016020809104026020016040519081016040528092919081815260200182805461219f90612e2d565b80156121ec5780601f106121c1576101008083540402835291602001916121ec565b820191906000526020600020905b8154815290600101906020018083116121cf57829003601f168201915b505050505081526020016003820160009054906101000a900473ffffffffffffffffffffffffffffffffffffffff1673ffffffffffffffffffffffffffffffffffffffff1673ffffffffffffffffffffffffffffffffffffffff1681526020016004820160009054906101000a900473ffffffffffffffffffffffffffffffffffffffff1673ffffffffffffffffffffffffffffffffffffffff1673ffffffffffffffffffffffffffffffffffffffff1681526020016004820160149054906101000a900460ff161515151581526020016004820160159054906101000a900460ff1615151515815250508282815181106122ea576122e9612e5f565b5b6020026020010181905250808061230090612ebd565b915050612077565b50809250505090565b3373ffffffffffffffffffffffffffffffffffffffff166003828154811061233c5761233b612e5f565b5b906000526020600020906006020160030160009054906101000a900473ffffffffffffffffffffffffffffffffffffffff1673ffffffffffffffffffffffffffffffffffffffff161461238e57600080fd5b6001600382815481106123a4576123a3612e5f565b5b906000526020600020906006020160050160006101000a81548160ff0219169083151502179055506000600382815481106123e2576123e1612e5f565b5b906000526020600020906006020160050160016101000a81548160ff02191690831515021790555050565b82805461241990612e2d565b90600052602060002090601f01602090048101928261243b5760008555612482565b82601f1061245457805160ff1916838001178555612482565b82800160010185558215612482579182015b82811115612481578251825591602001919060010190612466565b5b50905061248f9190612493565b5090565b5b808211156124ac576000816000905550600101612494565b5090565b6000604051905090565b600080fd5b600080fd5b600073ffffffffffffffffffffffffffffffffffffffff82169050919050565b60006124ef826124c4565b9050919050565b6124ff816124e4565b811461250a57600080fd5b50565b60008135905061251c816124f6565b92915050565b600060208284031215612538576125376124ba565b5b60006125468482850161250d565b91505092915050565b6000819050919050565b6125628161254f565b811461256d57600080fd5b50565b60008135905061257f81612559565b92915050565b60006020828403121561259b5761259a6124ba565b5b60006125a984828501612570565b91505092915050565b6125bb8161254f565b82525050565b600081519050919050565b600082825260208201905092915050565b60005b838110156125fb5780820151818401526020810190506125e0565b8381111561260a576000848401525b50505050565b6000601f19601f8301169050919050565b600061262c826125c1565b61263681856125cc565b93506126468185602086016125dd565b61264f81612610565b840191505092915050565b612663816124e4565b82525050565b60008115159050919050565b61267e81612669565b82525050565b600060e082019050612699600083018a6125b2565b81810360208301526126ab8189612621565b905081810360408301526126bf8188612621565b90506126ce606083018761265a565b6126db608083018661265a565b6126e860a0830185612675565b6126f560c0830184612675565b98975050505050505050565b600080fd5b600080fd5b7f4e487b7100000000000000000000000000000000000000000000000000000000600052604160045260246000fd5b61274382612610565b810181811067ffffffffffffffff821117156127625761276161270b565b5b80604052505050565b60006127756124b0565b9050612781828261273a565b919050565b600067ffffffffffffffff8211156127a1576127a061270b565b5b6127aa82612610565b9050602081019050919050565b82818337600083830152505050565b60006127d96127d484612786565b61276b565b9050828152602081018484840111156127f5576127f4612706565b5b6128008482856127b7565b509392505050565b600082601f83011261281d5761281c612701565b5b813561282d8482602086016127c6565b91505092915050565b6000612841826124c4565b9050919050565b61285181612836565b811461285c57600080fd5b50565b60008135905061286e81612848565b92915050565b60008060006060848603121561288d5761288c6124ba565b5b600084013567ffffffffffffffff8111156128ab576128aa6124bf565b5b6128b786828701612808565b93505060206128c88682870161285f565b92505060406128d986828701612570565b9150509250925092565b600081519050919050565b600082825260208201905092915050565b6000819050602082019050919050565b6129188161254f565b82525050565b612927816124e4565b82525050565b600082825260208201905092915050565b6000612949826125c1565b612953818561292d565b93506129638185602086016125dd565b61296c81612610565b840191505092915050565b61298081612836565b82525050565b61298f81612669565b82525050565b6000610100830160008301516129ae600086018261290f565b5060208301516129c1602086018261291e565b50604083015184820360408601526129d9828261293e565b91505060608301516129ee6060860182612977565b506080830151612a01608086018261290f565b5060a0830151612a1460a0860182612986565b5060c0830151612a2760c0860182612986565b5060e0830151612a3a60e0860182612986565b508091505092915050565b6000612a518383612995565b905092915050565b6000602082019050919050565b6000612a71826128e3565b612a7b81856128ee565b935083602082028501612a8d856128ff565b8060005b85811015612ac95784840389528151612aaa8582612a45565b9450612ab583612a59565b925060208a01995050600181019050612a91565b50829750879550505050505092915050565b60006020820190508181036000830152612af58184612a66565b905092915050565b6000602082019050612b12600083018461265a565b92915050565b612b2181612836565b82525050565b600061010082019050612b3d600083018b6125b2565b612b4a602083018a61265a565b8181036040830152612b5c8189612621565b9050612b6b6060830188612b18565b612b7860808301876125b2565b612b8560a0830186612675565b612b9260c0830185612675565b612b9f60e0830184612675565b9998505050505050505050565b60008060408385031215612bc357612bc26124ba565b5b6000612bd18582860161285f565b9250506020612be285828601612570565b9150509250929050565b600080600060608486031215612c0557612c046124ba565b5b6000612c138682870161250d565b935050602084013567ffffffffffffffff811115612c3457612c336124bf565b5b612c4086828701612808565b925050604084013567ffffffffffffffff811115612c6157612c606124bf565b5b612c6d86828701612808565b9150509250925092565b600081519050919050565b600082825260208201905092915050565b6000819050602082019050919050565b600060e083016000830151612cbb600086018261290f565b5060208301518482036020860152612cd3828261293e565b91505060408301518482036040860152612ced828261293e565b9150506060830151612d02606086018261291e565b506080830151612d15608086018261291e565b5060a0830151612d2860a0860182612986565b5060c0830151612d3b60c0860182612986565b508091505092915050565b6000612d528383612ca3565b905092915050565b6000602082019050919050565b6000612d7282612c77565b612d7c8185612c82565b935083602082028501612d8e85612c93565b8060005b85811015612dca5784840389528151612dab8582612d46565b9450612db683612d5a565b925060208a01995050600181019050612d92565b50829750879550505050505092915050565b60006020820190508181036000830152612df68184612d67565b905092915050565b7f4e487b7100000000000000000000000000000000000000000000000000000000600052602260045260246000fd5b60006002820490506001821680612e4557607f821691505b60208210811415612e5957612e58612dfe565b5b50919050565b7f4e487b7100000000000000000000000000000000000000000000000000000000600052603260045260246000fd5b7f4e487b7100000000000000000000000000000000000000000000000000000000600052601160045260246000fd5b6000612ec88261254f565b91507fffffffffffffffffffffffffffffffffffffffffffffffffffffffffffffffff821415612efb57612efa612e8e565b5b60018201905091905056fea2646970667358221220d75c07c879cab0841fee8ec2e10e7e65dd6378724541a2ddfd16c2f5e2060f3c64736f6c634300080b0033",
  "immutableReferences": {},
  "source": "pragma solidity ^0.8.4;\n\ncontract GeneSlimeMoldAlpha{\n    //\n    struct GeneHolder{\n        uint[] gene_mining_data_id_list;\n        uint[] use_event_id_list;\n        mapping(address => bool)block_address_list;\n    }\n\n    //\n    struct GeneMiner{\n        uint[] mined_gene_mining_data_id_list;\n        bool is_available;\n    }\n\n    //\n    struct UseEventMaker{\n        uint[] use_event_id_list;\n        bool is_available;\n    }\n\n    //\n    struct UseEvent{\n        uint id;\n        address event_owner_address;\n        string description;\n        address payable offer_to_address;\n        uint pay_amount;\n        bool is_approved;\n        bool is_blocked;\n        bool is_executed;\n    }\n    \n    struct GeneMiningData{\n        uint id;\n        string url;\n        string description;\n        address gene_holder_address;\n        address miner_address;\n        bool is_accepted_by_holder;\n        bool is_blocked_by_holder;\n    }\n\n    mapping(address => GeneHolder) private gene_holder_list; //\n    mapping(address => GeneMiner) private gene_miner_list; //\n    mapping(address => UseEventMaker) private use_event_maker_list; //\n\n    UseEvent[] public use_event_list; //use event\n    GeneMiningData[] public gene_mining_data_list; //\n\n    address[] empty; //\n    address public supervisor; //\n\n    constructor(){\n        supervisor = msg.sender; //\n    }\n\n/*gene holder*/\n    //\n    function add_block_list(address block_address) public{\n        gene_holder_list[msg.sender].block_address_list[block_address] = true;\n    }\n\n    function remove_block_list(address block_address) public{\n        gene_holder_list[msg.sender].block_address_list[block_address] = false;\n    }\n\n/*gene miner*/\n    function generate_gene_miner(address miner_address) public {\n        require(supervisor == msg.sender);//\n        gene_miner_list[miner_address].is_available = true;\n    }\n\n    function invalidate_gene_miner(address miner_address) public {\n        require(supervisor == msg.sender);//\n        gene_miner_list[miner_address].is_available = false; \n    }\n\n/* use event maker */\n    function generate_use_event_maker(address use_event_maker_address) public {\n        require(supervisor == msg.sender);//\n        use_event_maker_list[use_event_maker_address].is_available = true;\n    }\n\n    function invalidate_use_event_maker(address use_event_maker_address) public {\n        require(supervisor == msg.sender);//\n        use_event_maker_list[use_event_maker_address].is_available = false; \n    }\n\n/* */\n    //use event maker use event \n    function generate_use_event(string memory description, address payable offer_to_address, uint payment) public {\n        //require(use_event_maker_list[msg.sender].is_available);//event maker\n        require(gene_holder_list[offer_to_address].block_address_list[msg.sender] == false);//\n        uint id = use_event_list.length;\n        \n        use_event_list.push(UseEvent(id, msg.sender, description, offer_to_address, payment, false, false, false)); // use_event_listuse eventid\n        use_event_maker_list[msg.sender].use_event_id_list.push(id); //use_event_listid\n\n        gene_holder_list[offer_to_address].use_event_id_list.push(id);//gene holderid\n    }\n    \n    //use event\n    function approve_use_event_offer(uint use_event_id) public{\n        require(use_event_list[use_event_id].offer_to_address == msg.sender);\n        use_event_list[use_event_id].is_approved = true;\n        use_event_list[use_event_id].is_blocked = false;\n    }\n\n    //use event\n    function block_use_event_offer(uint use_event_id) public{\n        require(use_event_list[use_event_id].offer_to_address == msg.sender);\n        use_event_list[use_event_id].is_blocked = true;\n        use_event_list[use_event_id].is_approved = false;\n    }\n\n/**/\n\n    //\n    function balance_to(address payable reciever_address, uint pay_amount) public payable{\n        reciever_address.transfer(pay_amount);\n    }\n\n    //use event\n    function execute_use_event(uint use_event_id)public{\n        require(use_event_list[use_event_id].event_owner_address == msg.sender);\n        require(use_event_list[use_event_id].is_executed == false);        \n        require(use_event_list[use_event_id].is_approved);\n        require(use_event_list[use_event_id].pay_amount <= address(this).balance);\n        balance_to(use_event_list[use_event_id].offer_to_address, use_event_list[use_event_id].pay_amount);\n        use_event_list[use_event_id].is_executed = true;\n    }\n\n/**/\n    //\n    function register_mining_gene(address gene_holder_address, string memory gene_url, string memory description) public {\n        //require(gene_miner_list[msg.sender].is_available);\n        //require(gene_holder_list[gene_holder_address].block_address_list[msg.sender] == false);//\n        uint id = gene_mining_data_list.length;\n        gene_mining_data_list.push(GeneMiningData(id, gene_url, description, gene_holder_address, msg.sender, false, false));\n        gene_holder_list[gene_holder_address].gene_mining_data_id_list.push(id);\n        gene_miner_list[msg.sender].mined_gene_mining_data_id_list.push(id);\n    }\n    \n    //\n    function accept_mining_gene(uint gene_mining_data_id) public {\n        require(gene_mining_data_list[gene_mining_data_id].gene_holder_address == msg.sender);\n        gene_mining_data_list[gene_mining_data_id].is_blocked_by_holder = false;\n        gene_mining_data_list[gene_mining_data_id].is_accepted_by_holder = true;\n    }\n\n    //\n    function blocked_mining_gene(uint gene_mining_data_id) public {\n        require(gene_mining_data_list[gene_mining_data_id].gene_holder_address == msg.sender);\n        gene_mining_data_list[gene_mining_data_id].is_accepted_by_holder = false;\n        gene_mining_data_list[gene_mining_data_id].is_blocked_by_holder = true;\n    }\n\n/**/\n\n    //\n    function request_my_account_address() public view returns(address){\n        return msg.sender;\n    }\n\n    //\n    function request_own_gene_mining_data_list() public view returns(GeneMiningData[] memory){\n        uint[] memory gene_mining_data_id_list; \n        GeneMiningData[] memory own_gene_mining_data_list;\n        gene_mining_data_id_list = gene_holder_list[msg.sender].gene_mining_data_id_list;        \n        \n        for(uint i = 0; i < gene_mining_data_id_list.length; i++){\n            own_gene_mining_data_list[i] = gene_mining_data_list[gene_mining_data_id_list[i]];\n        }\n\n        return own_gene_mining_data_list;\n    }\n\n    //use event\n    function request_own_use_event_list() public view returns(UseEvent[] memory){\n        uint[] memory use_event_id_list; \n        UseEvent[] memory own_use_event_list;\n        use_event_id_list = gene_holder_list[msg.sender].use_event_id_list;\n        \n        for(uint i = 0; i < use_event_id_list.length; i++){\n            own_use_event_list[i] = use_event_list[use_event_id_list[i]];\n        }\n\n        return own_use_event_list;\n    }\n\n    //\n    function request_own_mined_gene_mining_data_list() public view returns(GeneMiningData[] memory){\n        uint[] memory mined_gene_mining_data_id_list; \n        GeneMiningData[] memory own_mined_gene_mining_data_list;\n        mined_gene_mining_data_id_list = gene_miner_list[msg.sender].mined_gene_mining_data_id_list;\n        \n        for(uint i = 0; i < mined_gene_mining_data_id_list.length; i++){\n            own_mined_gene_mining_data_list[i] = gene_mining_data_list[mined_gene_mining_data_id_list[i]];\n        }\n\n        return own_mined_gene_mining_data_list;\n    }\n\n    //use event\n    function request_own_made_use_event_list() public view returns(UseEvent[] memory){\n        uint[] memory use_event_id_list; \n        UseEvent[] memory own_use_event_list;\n        use_event_id_list = use_event_maker_list[msg.sender].use_event_id_list;\n        \n        for(uint i = 0; i < use_event_id_list.length; i++){\n            own_use_event_list[i] = use_event_list[use_event_id_list[i]];\n        }\n\n        return own_use_event_list;\n    }\n\n}",
  "sourcePath": "C:\\Users\\okuda\\OneDrive\\\\gitRepository\\SecHack365GeneSlimeMold\\SecHack365GeneSlimeMold\\contracts\\GeneSlimeMoldAlpha.sol",
  "compiler": {
    "name": "solc",
    "version": "0.8.11+commit.d7f03943.Emscripten.clang"
  },
  "schemaVersion": "3.4.4",
  "updatedAt": "2022-01-16T08:54:22.843Z",
  "networkType": "ethereum",
  "devdoc": {
    "kind": "dev",
    "methods": {},
    "version": 1
  },
  "userdoc": {
    "kind": "user",
    "methods": {},
    "version": 1
  }
}